:100000000C9497000C94B6000C94B6000C94B600B7
:100010000C94B6000C94B6000C94B6000C94B60088
:100020000C9485040C94B6000C94B6000C94B600A5
:100030000C945D010C94B6000C94B6000C94B600C0
:100040000C94FD000C94B6000C94B6000C94B60011
:100050000C94B6000C94B6000C94B6000C94B60048
:100060000C94B6000C94B6000C94B6000C94B60038
:100070000C94B6000C946C010C94B6000C94B60071
:100080000C94B6000C94840D0C94B600C50D9C0D18
:100090009C0D9C0D9C0D9C0D9C0D9C0DC50D9C0DEF
:1000A0009C0D9C0D9C0D9C0D9C0D9C0DCF0D9C0DD5
:1000B0009C0D9C0D9C0D9C0D9C0D9C0D9C0D9C0DF8
:1000C0009C0D9C0D9C0D9C0D9C0D9C0DCF0D9C0DB5
:1000D0009C0D9C0D9C0D9C0D9C0D9C0D9C0D9C0DD8
:1000E0009C0D9C0D9C0D9C0D9C0D9C0DE60D9C0D7E
:1000F0009C0D9C0D9C0D9C0D9C0D9C0DEA0D9C0D6A
:100100009C0D9C0D9C0D9C0D9C0D9C0D9C0D9C0DA7
:100110009C0D9C0D9C0D9C0D9C0D9C0DF80D9C0D3B
:100120009C0D9C0D9C0D9C0D9C0D9C0DB60D1124E1
:100130001FBECFEFD0E1DEBFCDBF13E0A0E0B1E046
:10014000EAE0F9E200E00BBF02C007900D92A83090
:10015000B107D9F724E0A8E0B3E001C01D92A737AA
:10016000B207E1F70E94760E0C9483140C94000001
:10017000E1E6F0E0808188608083E2E6F0E0808163
:10018000877F808387B3876087BBC19A80E58DB9FD
:1001900081E08EB987B3876887BB81B3806381BBF9
:1001A0008DB181658DB9709AC598089580912B03A2
:1001B0008823B9F00E94650880911D0190911E016D
:1001C0000E94830810922B039498949A80910A03BA
:1001D0008FB9779BFECF8FB180936D04C09AC09882
:1001E00008950E946B0880911B0190911C010E9450
:1001F000830881E080932B03E7CF1F920F920FB605
:100200000F9211242F938F939F9380912A038F5FD6
:1002100080932A03803809F43FC08F7190911503B1
:100220009C3338F010921503909124019F5F9093B6
:100230002401909124019C3338F010922401909174
:1002400023019F5F9093230120912301909120012E
:10025000921758F420912301291B20932301909198
:1002600010039923A9F010921003811107C081E0B7
:1002700090910F0391110AC080930F039F918F916A
:100280002F910F900FBE0F901F90189580E0F4CF24
:1002900091E090931003E9CF81E080931F0180915A
:1002A00015038F5F80931503809109038F5F8093FF
:1002B000090310922A0380E0B1CF1F920F920FB66C
:1002C0000F9211248F9382B3805882BB8F910F902D
:1002D0000FBE0F901F9018951F920F920FB60F929E
:1002E00011248F939F93369A349BFECF349A84B116
:1002F00095B190934703809346039695879596957D
:100300008795809583BD9F918F910F900FBE0F9021
:100310001F90189580B7886080BF87B7816187BFBD
:10032000EDE7F0E080818460808381E083BF8EB55B
:100330008B608EBD8FEE90E09BBD8ABD85B58167D9
:1003400085BD8FEF82B983B982E880938B008CE002
:1003500080938A0086E490E09093870080938600E3
:100360000895E1E6F0E0908121E030E001C0220F45
:100370008A95EAF7209592239083E2E6F0E0808167
:100380002823208387B1876487B986B1876886B9B7
:1003900008958FEF8ABB10924B0388B318BA98B3B5
:1003A000E0914B03F0E0E05AFB4F8081892B88BB42
:1003B000E0914B03F0E0E859FB4F80818BBB8FE568
:1003C00099E00197F1F700C0000080914B038F5F27
:1003D00080934B03853008F388B318BA88B38067DD
:1003E00088BB98B380916204892B88BB1ABA0895A0
:1003F000369A349BFECF349A84B195B190934703DB
:1004000080934603089580915304823009F476C0A6
:10041000843009F460C0813049F1809116039091D5
:100420001703029709F491C0809116039091170366
:10043000039721F0109217031092160310925304A1
:10044000809116039091170382309105E1F48AE5BB
:1004500091E090931E0180931D018BE691E09093B3
:100460001C0180931B0110925304089581E090E0D9
:1004700090931703809316038091160390911703AE
:100480008230910521F38330910590F4009709F4AF
:1004900081C00197D1F588E391E090931E0180938C
:1004A0001D0189E491E090931C0180931B01089544
:1004B0008330910509F461C0049739F588E391E030
:1004C00090931E0180931D018CE791E090931C0195
:1004D00080931B0108958091160390911703039751
:1004E00009F180911603909117030297D9F082E0E9
:1004F00090E09093170380931603BECF84E090E0C2
:100500009093170380931603B7CF8FEA91E09093EF
:100510001E0180931D0180EC91E090931C0180935B
:100520001B010895109217031092160310925304A2
:10053000809114038093120380911303809311031D
:10054000809122018093210197CF809153048823C9
:1005500031F083E090E0909317038093160380912D
:100560001503865F80931203809124018093110309
:1005700080912301809321017FCF8DE891E09093BA
:100580001E0180931D018EE991E090931C018093E0
:100590001B01089587E291E090931E0180931D0155
:1005A0008091190190911A0190931C0180931B0175
:1005B00008950F931F93CF93DF9300D01F92CDB771
:1005C000DEB78FE39FE3A0E089839A83AB838091BA
:1005D0001F01811120C009E113E089E193E09F939D
:1005E0008F9325EE31E03F932F939F938F930E943B
:1005F0008A1110931A01009319010F900F900F9018
:100600000F900F900F900F900F900F90DF91CF9160
:100610001F910F91089510921F0142E065E774E069
:1006200080E90E94280E8FE39FE10197F1F700C057
:1006300000006091750470E0762F66278091760443
:10064000682B41E0CE0101960E94420E9091160166
:100650009F93909115019F931F928F9381ED91E04D
:100660009F938F9309E113E01F930F930E948A11C8
:100670008091140190E0880F991F909387008093D8
:1006800086008091140180934A036091140170E008
:1006900080E090E00E946C1020E030E040E250E406
:1006A0000E94C20F0E9434107F936F9380911A01B1
:1006B0008F93809119018F938BED91E09F938F938E
:1006C0001F930F930E948A110FB6F894DEBF0FBEDE
:1006D000CDBF83CFCF93DF9384E70E9418078FEDC0
:1006E0009EE20197F1F700C000000E944C07C0E0B5
:1006F000D1E088830E944C0789831A82D093160127
:10070000C0931501DF91CF910895809116039091C8
:100710001703049709F454C0409114032091130364
:1007200090912201F091150380912401E091230121
:1007300054E6259F90011124240F311D40E157E21A
:10074000949FB001959F700D1124260F371F64E60A
:10075000869FC00111248F0F911DE49FB001E59F7A
:10076000700D1124860F971F28173907B1F160917A
:1007700012032091110390912101F09115038091B2
:100780002401E091230174E6279F90011124260F94
:10079000311D949FB001959F700D1124260F371FB6
:1007A00064E6869FC00111248F0F911DE49FB00164
:1007B000E59F700D1124860F971F2817390769F0E0
:1007C000809113038C3310F0109213038091220157
:1007D0008C3310F010922201089582E090E0909303
:1007E000170380931603ECCF8091150380930A03BF
:1007F00080910903843008F44EC0809116039091D3
:1008000017030497C9F1209124018091230134E654
:10081000839FC0011124820F911D90930C0380933C
:100820000B0380910B0390910C030E94A20A80910C
:10083000100381110DC080916A04846080936A0462
:100840009091150390FF0DC08C7F80936A040895EA
:1008500080916A048B7F80936A049091150390FDC8
:10086000F3CF20911603309117032230310579F729
:10087000826080936A04089520911303809122017D
:1008800034E6839FC0011124820F911D90930C03C5
:1008900080930B03C6CF2091100130911101ADEC74
:1008A000BCEC0E94100F9695879596958795969526
:1008B000879590930C0380930B0380910B03909189
:1008C0000C030E94A20A809169048F7780936904C7
:1008D00008958FEF82B913B81A9A8AB780688ABFD1
:1008E00089B7806889BF1F98179A1A9A8FE193E099
:1008F0000197F1F700C000001A9887EC90E001978B
:10090000F1F700C00000179808951F920F920FB6DC
:100910000F9211248F9381E0809373038F910F9036
:100920000FBE0F901F90189584E18093520341E011
:1009300062E573E082E20E94170E0E94130E81119D
:10094000FCCF8FEA94E00197F1F700C0000041E08E
:1009500064E773E082E20E94280E0E94130E811168
:10096000FCCF80917403089580E28093520310922B
:10097000530380911001909111019093540380933F
:100980005503109256031092730345E062E573E03D
:1009900082E20E94170E809173038823E1F3089589
:1009A00080E4809352031092530380914C03909102
:1009B0004D03909354038093550310925603109265
:1009C00057031092730346E062E573E082E20E94EF
:1009D000170E809173038823E1F30895E2E5F3E0B5
:1009E00080E48083118280914E0390914F03928323
:1009F0008383148281E0858346E0BF0182E20E9406
:100A0000170E2FEF87EE93E0215080409040E1F7E2
:100A100000C000000895809112019091130181306F
:100A2000910551F100F1029741F460914E037091EC
:100A30004F0380E593E00E947E1460914A0383E4B3
:100A400093E00E94711481E18093520341E062E5DA
:100A500073E082E20E94170E87ED94E00197F1F7B0
:100A600000C00000089560914C0370914D0388E42C
:100A700093E00E947E14E1CF60911001709111010A
:100A800084E493E00E947E14D8CF83E280935203E3
:100A900081E08093530342E062E573E082E20E94CA
:100AA000170E0E94130E8111FCCF8FEA94E001977C
:100AB000F1F700C0000048E06BE573E082E20E94BD
:100AC000280E0E94130E8111FCCF089582E28093BC
:100AD000520381E08093530342E062E573E082E2D7
:100AE0000E94170E0E94130E8111FCCF8FEA94E032
:100AF0000197F1F700C0000048E06BE573E082E287
:100B00000E94280E0E94130E8111FCCF089582E4EA
:100B10008093520381E08093530342E062E573E0E7
:100B200082E20E94170E0E94130E8111FCCF8FEA01
:100B300094E00197F1F700C0000048E06BE573E036
:100B400082E20C94280E83E48093520381E0809328
:100B5000530342E062E573E082E20E94170E0E94B6
:100B6000130E8111FCCF8FEA94E00197F1F700C0DA
:100B7000000048E06BE573E082E20C94280EE2E5A9
:100B8000F3E022E12083118292838383748365835F
:100B900046E0BF0182E20E94170E8FE39CE90197B5
:100BA000F1F700C000000895E2E5F3E081E0808302
:100BB00080E5818385E0828343E0BF0182E20E9479
:100BC000170E2FEF85EA9EE0215080409040E1F71C
:100BD00000C0000061E070E081E090E00C94BF058F
:100BE000E2E5F3E081E0808381E5818385E0828333
:100BF00043E0BF0182E20E94170E2FEF8BED95E0DC
:100C0000215080409040E1F700C0000061E070E0BA
:100C100081E090E00C94BF05E2E5F3E081E08083A1
:100C200081E5818385E0828343E0BF0182E20E9407
:100C3000170E2FEF8BED95E0215080409040E1F7AB
:100C400000C0000060E070E082E093E30E94BF0516
:100C500061E071E082E091E30E94BF0561E070E035
:100C600081E090E00C94BF0580E18093520341E065
:100C700062E573E082E20E94170E0E94130E81115A
:100C8000FCCF8FEA94E00197F1F700C0000048E044
:100C900063E673E082E20E94280E0E94130E811127
:100CA000FCCF8BE092E00E94170784E492E00E9460
:100CB00017078DE792E00E941707809164034AE0CE
:100CC0006BEA73E090E00E9465118BEA93E00E946A
:100CD00017078AE892E00E941707809165034AE0AF
:100CE0006BEA73E090E00E9465118BEA93E00E944A
:100CF00017078AE792E00C941707FF920F931F9350
:100D0000CF93DF93CDB7DEB7A8970FB6F894DEBFC9
:100D10000FBECDBF88E992E00E94170788EA92E0F3
:100D20000E9417070BE513E0F801808140E16BEAB0
:100D300073E090E00E9465118BEA93E00E94170730
:100D40008AE792E00E94170788EB92E00E9417075B
:100D5000F80181814AE06BEA73E090E00E9465113E
:100D60008BEA93E00E9417078AE792E00E94170738
:100D7000F801F38088EC92E00E9417074AE06BEAE2
:100D800073E08F2D90E00E9465118BEA93E00E9442
:100D900017078AE792E00E94170788ED92E00E9409
:100DA0001707F801828140E1BE016F5F7F4F90E03D
:100DB0000E946511CE0101960E9417078AE792E012
:100DC0000E94170788EE92E00E941707F8018381BE
:100DD00040E1BE016F5F7F4F90E00E946511CE0140
:100DE00001960E9417078AE792E00E94170788EF92
:100DF00092E00E941707F801848140E16BEA73E0FA
:100E000090E00E9465118BEA93E00E9417078AE741
:100E100092E00E941707A8960FB6F894DEBF0FBEA7
:100E2000CDBFDF91CF911F910F91FF90089508954D
:100E30005D9BFECF8CB95D9BFECF0895FC01908138
:100E4000992349F031965D9BFECF9CB95D9BFECF07
:100E500091919111F8CF08959C01FC014491442394
:100E600069F00196F90124915D9BFECF2CB95D9B41
:100E7000FECF9C01FC0144914111F3CF08958AB14A
:100E800088618AB9E5E9F0E080818660808310920C
:100E9000900087E689B9089580E89EE302C0019733
:100EA00021F05F9BFCCF8CB1089580E0089591E024
:100EB000811101C090E09FB9779BFECF6FB9779BFE
:100EC000FECF809162008860809362008091620012
:100ED000877F809362008FE99FE00197F1F700C060
:100EE0000000089521E02FB9779BFECF20912C03BD
:100EF000FC01E20FF11D80818FB9779BFECF8091BD
:100F0000620088608093620080916200877F809396
:100F1000620080912C038F5F80932C03803181F0DD
:100F2000803209F0089585ED8A95F1F700004CEDC7
:100F300055E062E080E00E94570710922C0308956C
:100F400085ED8A95F1F700004CED55E060EC80E00E
:100F50000E94570780912C03E3CFEF92FF920F93EB
:100F60001F93CF93DF931F92CDB7DEB7182F660F75
:100F7000660F660F605C48EE53E080E099830E9444
:100F80005707E12E9981F92E8701085F1F4FF7015E
:100F900061917F0144E650E081E00E945707E0162E
:100FA000F106A9F70F90DF91CF911F910F91FF905C
:100FB000EF90089590E4899F600D1124605C48EEE5
:100FC00053E080E00C945707CF93882309F43DC089
:100FD000C82F8436A8F48A30F8F48DECC89F812D90
:100FE00011248695869586956C2F2AE0829F60193C
:100FF0001124605D44E650E081E0CF910C945707E6
:1010000069E2869F612D112462956F70605D44E6F0
:1010100050E081E00E94570789E2C89F812D11248A
:1010200082958F709C2F24E6829F901911246DEC7D
:10103000969F612D1124669566956695605D44E6E0
:1010400050E081E00E945707C8CF44E650E060E3DB
:1010500081E0CF910C945707CF9387FD03C0CF91C8
:101060000C94E407C82F44E650E06DE281E00E9452
:1010700057078C2F8195CF910C94E40748EE53E0ED
:101080006EE080E00C94570748EE53E06CE080E09F
:101090000C94570748EE53E06EE180E00C9457073C
:1010A00048EE53E068E180E00C945707E2E6F0E098
:1010B0008081886080838081877F8083089540ED70
:1010C00057E061E080E00C9457074CED55E062E09A
:1010D00080E00C9457074CED55E060EC80E00C94F8
:1010E0005707CF93C0E144E650E060E281E00E9400
:1010F0005707C150C1F7CF91089544E650E0682FDB
:1011000081E00C9457070F931F93CF938C0140E01D
:1011100050E0C0E0F801E40FF51F44E650E06081C4
:1011200081E00E945707CF5F4C2F50E0F8010190FB
:101130000020E9F79F01201B310B225031092417B1
:10114000350740F7CF911F910F9108958FEF99EFD9
:101150000197F1F700C0000088E08093610048E546
:101160005BE160E380E00E94570748E55BE160E3F4
:1011700080E00E94570748E55BE160E380E00E9461
:10118000570748E853E168E380E00E94570748E8C2
:1011900053E168E080E00E94570748E853E161E0CE
:1011A00080E00E94570748E853E166E080E00E9433
:1011B000570745E050E06CE080E00C9457078F92B1
:1011C0009F92AF92BF92CF92DF92EF92FF920F93D6
:1011D0001F93CF93DF93CDB7DEB769970FB6F8941F
:1011E000DEBF0FBECDBFF42E122F002359F04B01EE
:1011F0005C018824B7FC83949924AA24BB24082D7D
:1012000097FD8DC0112309F482C09E012F5F3F4FCF
:101210006901590188248A94810E912C3FEF831A29
:10122000930A8C0C9D1C2AE030E040E050E00E94C4
:10123000E80EE62F2A8B3B8B4C8B5D8B6A897B8972
:101240008C899D8920E32E0FF50121935F01E8151C
:10125000F90549F7BB24B394B10EF601E10FF11D76
:101260002EE220832AE030E040E050E00E94E80EC9
:10127000E62F2A8B3B8B4C8B5D8B6E8B7F8B888F05
:10128000998F6A897B898C899D8911E01B0DD60114
:10129000AB0DB11DE05DEC93B12E611571058105BB
:1012A000910501F7FF2061F0E11037C080E21F15C2
:1012B00038F4F601E10FF11D80831F5F1F11F9CF94
:1012C000002331F0F601E10FF11D8DE280831F5FF5
:1012D0001150F601E10FF11D48EE53E0608181E00D
:1012E0000E9457071111F4CF69960FB6F894DEBF2C
:1012F0000FBECDBFDF91CF911F910F91FF90EF9067
:10130000DF90CF90BF90AF909F908F900895B12CB9
:101310009E012F5F3F4F6901A5CF80E3C8CF909515
:101320008095709561957F4F8F4F9F4F6BCF5F92E8
:101330006F927F928F929F92AF92BF92CF92DF92E5
:10134000EF92FF920F931F93CF93DF93CDB7DEB74A
:1013500061970FB6F894DEBF0FBECDBFA62E542EF8
:10136000622E792E771C7724771CB72CC72CD12CB2
:10137000EE27FF27EC19FD098E279F27FC01EC0DB6
:10138000FD1D442309F48CC0CE0101967C018C0123
:1013900088248A94840E912C9FEF891A990A8E0CC6
:1013A0009F1C6AE070E0CF010E94D40E262FE22F2E
:1013B000F72F805DD8018D938D01A815B90589F7A8
:1013C00001E0050DD701A50DB11D8EE28C936AE0F9
:1013D00070E0CF010E94D40E262FE22FF72F11E0EC
:1013E000100FD701A00FB11D805D8C93012F309796
:1013F00071F7611015C0772039F011E0100FF70177
:10140000E00FF11D8DE28083AA2041F1812F90E051
:101410002A2D30E0821793070CF5B12C40E20CC066
:10142000AA20A1F0812F90E02A2D30E02C193D094F
:10143000821793075CF440E31F5FF701E80FF91F81
:101440004083812F90E082179307B4F3BB2031F0E3
:10145000F701E10FF11D8DE280831F5F1150F7014D
:10146000E10FF11D48EE53E0608181E00E945707D3
:101470001111F4CF61960FB6F894DEBF0FBECDBF49
:10148000DF91CF911F910F91FF90EF90DF90CF9060
:10149000BF90AF909F908F907F906F905F900895D6
:1014A00000E0CE0101967C0192CFE0E6F4E01082EC
:1014B00080E1818380E2828380E3838380E484838C
:1014C000E4E5F4E080EC808389EF818384EA828321
:1014D00080EB838389E9848382E9858382E886833C
:1014E00088EF878380E8808790E991879FEF9287D4
:1014F00090E797BB80936100E2E6F0E080818F7710
:1015000080830895482FE82FF0E099B3EE0FFF1F76
:10151000E35DFC4F20813181220F331F306E892F14
:1015200090E002C0959587954A95E2F781709927DA
:10153000282B392B3183208381E021153F4F09F07F
:1015400080E00895AC019C01ADECBCEC0E94100F52
:10155000FC01F695E795F695E795F695E7959F01D9
:10156000220F331FCF01880F991F880F991F880FF3
:10157000991F820F931F9A01281B390B209368042F
:101580009F010E94100F9695879596958795969541
:1015900087959C01220F331F880F991F880F991F71
:1015A000880F991F820F931FE81BF90BE0936904C2
:1015B0008AE080936A049A01369527953695279597
:1015C000ABE7B4E10E94100FFC01F695E7959F018F
:1015D000ADECBCEC0E94100F96958795969587957B
:1015E00096958795BC01660F771F880F991F880F06
:1015F000991F880F991F680F791FE61BF70BE0935F
:101600006B049A013695279536952795369527953B
:10161000A5ECB0E20E94100FFC01F295E295EF708C
:10162000EF27FF70EF279F01ADECBCEC0E94100F7D
:10163000969587959695879596958795AC01440FD5
:10164000551F880F991F880F991F880F991F480FE2
:10165000591FCF01841B950BE82F80936C04ACE6D7
:10166000B4E084E090E021E04FEF07C0E11107C053
:101670004C9321E0019781F0EE912111F7CF823058
:1016800009F020E0F0E0EC5AFB4F3081FC01E85912
:10169000FB4F3083019781F710924B03E091680470
:1016A000F0E0EC5AFB4F80818093680408951ABAE9
:1016B0008FEF8BBB88B318BA88B3806788BBEDE225
:1016C000F3E020E030E061E070E005C02F5F3F4FC5
:1016D0002830310539F199B340815181440F551FAC
:1016E000892F90E0022E02C0959587950A94E2F723
:1016F00081709927842B952B906E819391938115FE
:101700009F4F21F740915304CB01022E01C0880F57
:101710000A94EAF78427809353042F5F3F4F2830C1
:101720003105C9F688B318BA8FEF8ABB0895637084
:1017300083708230A9F0833071F0813031F06130F4
:1017400041F0623089F482E008956623E1F363306A
:1017500059F481E008956130B1F36230D1F304C0EF
:101760006623B9F3633079F380E00895209116037E
:101770003091170321303105C1F060F0243031057C
:1017800041F48230D1F0809113038F5F8093130373
:10179000089508958230E9F080911401865F8A30BF
:1017A00008F48AEF809314010895823061F08091EB
:1017B00024018F5F809324010895809122018F5F1F
:1017C000809322010895809123018F5F80932301EC
:1017D00008951092090381E080930803809110011D
:1017E00090911101449690931101809310018A33D6
:1017F0009A42D0F2109208038AE39AE29093110180
:101800008093100108952091160330911703213021
:101810003105B9F060F02430310541F48230C9F06F
:1018200080911303815080931303089508958230AB
:10183000E1F0809114018A50813F88F110921401E7
:101840000895823061F080912401815080932401B9
:101850000895809122018150809322010895809102
:10186000230181508093230108951092090381E0A0
:1018700080930803809110019091110144979093F7
:1018800011018093100187359242D0F6109208031F
:1018900086E592E290931101809310010895809360
:1018A000140108950F931F93CF93DF93D0916D048C
:1018B000C09141031C2F1D27812F837009F466C03E
:1018C0000D2F03706C2F6370802F0E94970B813057
:1018D000C9F0823009F0EDC0809140038695809375
:1018E000400380913F03880F816080933F03033062
:1018F000B1F41092400310923F038091410384FFA2
:1019000038C011C080914003880F816080934003EC
:1019100080913F03869580933F03033051F380917C
:10192000410384FF1FC080914003833008F4CCC082
:10193000809140038F3150F0809140038F3318F035
:1019400081E00E94B60B81E00E94B60B81E00E940C
:10195000B60B809141038F7E809341031092400328
:1019600010923F03011105C0809141038061809373
:101970004103809141038C7F8093410380916D04EA
:10198000909141038370892B809341031C7009F46B
:1019900056C0DC70CC706C2F70E0759567957595AE
:1019A00067958D2F869586950E94970B813009F457
:1019B0004BC0823009F05FC080913E0386958093D2
:1019C0003E0380913D03880F816080933D03DC30AE
:1019D00009F448C08091410385FF1DC080913E03FA
:1019E000882309F453C080913E038F3140F08091E9
:1019F0003E038F3308F07CC082E00E94B60B82E089
:101A00000E94B60B809141038F7D80934103109219
:101A10003E0310923D03D11105C0809141038062C5
:101A20008093410380914103837F809341038091A0
:101A30006D04909141038C70892B80934103DF9159
:101A4000CF911F910F91089580913E03880F81607F
:101A500080933E0380913D03869580933D03DC3067
:101A600009F0B8CF10923E0310923D0380914103DC
:101A700085FFD8CFB3CF80913E03869580933E03F8
:101A800080913D03869580933D03A1CF80913D03D6
:101A9000882309F280913D038F3138F080913D0316
:101AA0008F3350F582E00E94030C82E00E94030C09
:101AB000A9CF8091400386958093400380913F0396
:101AC000869580933F0329CF80913F03833008F4AC
:101AD00049CF80913F038F3138F080913F038F339E
:101AE00078F481E00E94030C81E00E94030C31CF66
:101AF00082E00E94B60B80CF82E00E94030CD2CF1E
:101B000081E00E94030CEDCF1F920F920FB60F924F
:101B100011240BB60F922F933F938F939F93AF9304
:101B2000BF93EF93FF93E09171008E2F90E0FC0143
:101B30003897E135F105B0F08091710080936E0423
:101B400084E080937400FF91EF91BF91AF919F91DA
:101B50008F913F912F910F900BBE0F900FBE0F9062
:101B60001F901895EA5BFF4F0C94070F809142037A
:101B7000E0916F04F0917004E80FF11D8091730003
:101B8000808384E980937400DECF80917104809318
:101B900073001092420385E880937400D4CF809143
:101BA000420390917204891760F7E0916F04F091FD
:101BB000700491E0980F90934203E80FF11D80812B
:101BC0008093730085E880937400BDCF85EA80938D
:101BD0007400B9CF209142038091720430E090E00C
:101BE000019728173907DCF485EC80937400ABCF9C
:101BF000E0916F04F09170048091420321E0280F7E
:101C000020934203E80FF11D80917300808380913F
:101C1000720430E090E00197281739072CF385E82B
:101C20008093740090CF809174008170089590919A
:101C3000740090FDFCCF8E7F8093710470937004CC
:101C400060936F044093720485EA80937400089552
:101C50009091740090FDFCCF81608093710470932B
:101C6000700460936F044093720485EA809374005B
:101C700008958FEF80937300109271008CE0809331
:101C8000700008951F93CF93DF93EC0177FD2AC076
:101C9000660F672F661F770B7195442301F1072E9E
:101CA000000C880B990B0E946C1026E636E646EE77
:101CB0005FE30E94F81020E030E040E052E40E9430
:101CC000560F0E943410162FCB0199274AE0BE010F
:101CD0000E946511812FDF91CF911F910895162FDA
:101CE000CB01F4CF80E090E010E0F0CF0E94550AE5
:101CF0000E948A010E94B8000E94A6080E94390E24
:101D000087E00E94B1010E945F080E943F070E9485
:101D1000690478941092730442E063E774E080E908
:101D20000E94170E8FE39FE10197F1F700C00000BA
:101D30000E94D40586E899E29093110180931001E6
:101D400060E070E081E090E40E94BF050E94B4046E
:101D50008091080381111DC00E9403020E94850327
:101D60000E94570B0E94D6000E94520C0E946A03E8
:101D70000E94D9020E94F4030E94C90180911603B7
:101D800090911703029751F08F9880910803882350
:101D900019F3109208030E94B404DECF80910F0360
:101DA000882391F38F9AD4CF97FB072E16F40094D3
:101DB00007D077FD09D00E941F0F07FC05D03EF425
:101DC000909581959F4F0895709561957F4F0895E7
:101DD000052E97FB1EF400940E94FF0E57FD07D0BE
:101DE0000E94330F07FC03D04EF40C94FF0E509565
:101DF0004095309521953F4F4F4F5F4F08959095F7
:101E00008095709561957F4F8F4F9F4F0895EE0F8E
:101E1000FF1F0024001C0BBE0790F691E02D0994D3
:101E2000A29FB001B39FC001A39F700D811D11241B
:101E3000911DB29F700D811D1124911D0895AA1B43
:101E4000BB1B51E107C0AA1FBB1FA617B70710F0A5
:101E5000A61BB70B881F991F5A95A9F780959095D7
:101E6000BC01CD010895A1E21A2EAA1BBB1BFD01E6
:101E70000DC0AA1FBB1FEE1FFF1FA217B307E40769
:101E8000F50720F0A21BB30BE40BF50B661F771FC1
:101E9000881F991F1A9469F76095709580959095A1
:101EA0009B01AC01BD01CF0108955058BB27AA2763
:101EB0000E946D0F0C94BE100E94B01038F00E946A
:101EC000B71020F039F49F3F19F426F40C94AD10AC
:101ED0000EF4E095E7FB0C94A710E92F0E94CF10B9
:101EE00058F3BA17620773078407950720F079F44F
:101EF000A6F50C94F1100EF4E0950B2EBA2FA02D40
:101F00000B01B90190010C01CA01A0011124FF27A6
:101F1000591B99F0593F50F4503E68F11A16F040A1
:101F2000A22F232F342F4427585FF3CF46953795A0
:101F30002795A795F0405395C9F77EF41F16BA0B65
:101F4000620B730B840BBAF09150A1F0FF0FBB1F13
:101F5000661F771F881FC2F70EC0BA0F621F731F5C
:101F6000841F48F4879577956795B795F7959E3FB9
:101F700008F0B0CF9395880F08F09927EE0F97954A
:101F8000879508950E94D60F0C94BE100E94B7103A
:101F900058F00E94B01040F029F45F3F29F00C94F3
:101FA000A71051110C94F2100C94AD100E94CF1098
:101FB00068F39923B1F3552391F3951B550BBB2778
:101FC000AA2762177307840738F09F5F5F4F220FBD
:101FD000331F441FAA1FA9F335D00E2E3AF0E0E8B4
:101FE00032D091505040E695001CCAF72BD0FE2FFE
:101FF00029D0660F771F881FBB1F26173707480792
:10200000AB07B0E809F0BB0B802DBF01FF27935849
:102010005F4F3AF09E3F510578F00C94A7100C9456
:10202000F2105F3FE4F3983ED4F386957795679579
:10203000B795F7959F5FC9F7880F911D969587957E
:1020400097F90895E1E0660F771F881FBB1F62179D
:1020500073078407BA0720F0621B730B840BBA0B5B
:10206000EE1F88F7E09508950E943B106894B11127
:102070000C94F21008950E94D71088F09F5798F0A2
:10208000B92F9927B751B0F0E1F0660F771F881F7D
:10209000991F1AF0BA95C9F714C0B13091F00E9497
:1020A000F110B1E008950C94F110672F782F882774
:1020B000B85F39F0B93FCCF3869577956795B395BE
:1020C000D9F73EF490958095709561957F4F8F4F2D
:1020D0009F4F0895E89409C097FB3EF49095809532
:1020E000709561957F4F8F4F9F4F9923A9F0F92FDE
:1020F00096E9BB279395F695879577956795B7955C
:10210000F111F8CFFAF4BB0F11F460FF1BC06F5F41
:102110007F4F8F4F9F4F16C0882311F096E911C053
:10212000772321F09EE8872F762F05C0662371F074
:1021300096E8862F70E060E02AF09A95660F771F88
:10214000881FDAF7880F9695879597F9089597F97C
:102150009F6780E870E060E008959FEF80EC08954D
:1021600000240A9416161706180609060895002476
:102170000A9412161306140605060895092E0394F0
:10218000000C11F4882352F0BB0F40F4BF2B11F464
:1021900060FF04C06F5F7F4F8F4F9F4F089557FDC3
:1021A0009058440F551F59F05F3F71F04795880FC5
:1021B00097FB991F61F09F3F79F08795089512165C
:1021C00013061406551FF2CF4695F1DF08C0161608
:1021D00017061806991FF1CF8695710561050894B9
:1021E0000895E894BB2766277727CB0197F90895D0
:1021F0000E940B110C94BE100E94B01038F00E9487
:10220000B71020F0952311F00C94A7100C94AD108A
:1022100011240C94F2100E94CF1070F3959FC1F31B
:10222000950F50E0551F629FF001729FBB27F00D84
:10223000B11D639FAA27F00DB11DAA1F649F6627D9
:10224000B00DA11D661F829F2227B00DA11D621F28
:10225000739FB00DA11D621F839FA00D611D221FE2
:10226000749F3327A00D611D231F849F600D211DC6
:10227000822F762F6A2F11249F5750409AF0F1F049
:1022800088234AF0EE0FFF1FBB1F661F771F881FB2
:1022900091505040A9F79E3F510580F00C94A71033
:1022A0000C94F2105F3FE4F3983ED4F38695779553
:1022B0006795B795F795E7959F5FC1F7FE2B880F58
:1022C000911D9695879597F90895BB274A3031F46B
:1022D000992322F4BDE2909581959F4F0C94711142
:1022E000BB27FB015527AA27880F991FAA1FA417F0
:1022F00010F0A41B83955051B9F7A05DAA3308F0E4
:10230000A95DA193009779F7B111B1931192CB0117
:102310000C94CB130F931F93CF93DF93CDB7DEB7FE
:102320002E970FB6F894DEBF0FBECDBF0D891E8964
:1023300086E08C831A8309838FEF9FE79E838D83CA
:10234000AE01475E5F4F6F89788DCE0101960E9486
:10235000BA112F813885F801E20FF31F10822E96F3
:102360000FB6F894DEBF0FBECDBFDF91CF911F91A6
:102370000F9108952F923F924F925F926F927F92AA
:102380008F929F92AF92BF92CF92DF92EF92FF9285
:102390000F931F93CF93DF93CDB7DEB72C970FB674
:1023A000F894DEBF0FBECDBF7C016B018A01FC013A
:1023B00017821682838181FFBDC1CE0101964C0137
:1023C000F7019381F60193FD859193FF81916F0150
:1023D000882309F4ABC1853239F493FD859193FFCD
:1023E00081916F01853229F4B70190E00E94DB13DF
:1023F000E7CF512C312C20E02032A0F48B3269F051
:1024000030F4803259F0833269F420612CC08D326F
:1024100039F0803339F4216026C02260246023C063
:10242000286021C027FD27C030ED380F3A3078F4FE
:1024300026FF06C0FAE05F9E300D1124532E13C014
:102440008AE0389E300D1124332E20620CC08E326B
:1024500021F426FD6BC1206406C08C3611F420687F
:1024600002C0883641F4F60193FD859193FF819176
:102470006F018111C1CF982F9F7D9554933028F41F
:102480000C5F1F4FFFE3F9830DC0833631F08337B4
:1024900071F0833509F05BC022C0F8018081898327
:1024A0000E5F1F4F44244394512C540115C0380132
:1024B000F2E06F0E711CF801A080B18026FF03C00E
:1024C000652D70E002C06FEF7FEFC5012C870E9481
:1024D000C0132C0183012C852F77222E17C03801C1
:1024E000F2E06F0E711CF801A080B18026FF03C0DE
:1024F000652D70E002C06FEF7FEFC5012C870E9451
:10250000B5132C012C852068222E830123FC1BC0CF
:10251000832D90E048165906B0F4B70180E290E0B0
:102520000E94DB133A94F4CFF50127FC859127FE36
:1025300081915F01B70190E00E94DB1331103A9462
:10254000F1E04F1A51084114510471F7E5C0843687
:1025500011F0893639F5F80127FF07C060817181D4
:10256000828193810C5F1F4F08C060817181072EAB
:10257000000C880B990B0E5F1F4F2F76722E97FF62
:1025800009C090958095709561957F4F8F4F9F4FB3
:102590002068722E2AE030E0A4010E941314A82EB5
:1025A000A81844C0853729F42F7EB22E2AE030E0E7
:1025B00025C0F22FF97FBF2E8F36C1F018F4883571
:1025C00079F0B4C0803719F0883721F0AFC02F2FD1
:1025D0002061B22EB4FE0DC08B2D8460B82E09C0D0
:1025E00024FF0AC09F2F9660B92E06C028E030E075
:1025F00005C020E130E002C020E132E0F801B7FE82
:1026000007C060817181828193810C5F1F4F06C07A
:102610006081718180E090E00E5F1F4FA4010E94F5
:102620001314A82EA818FB2DFF777F2E76FE0BC063
:10263000372D3E7FA51450F474FE0AC072FC08C00A
:10264000372D3E7E05C0BA2C372D03C0BA2C01C0F1
:10265000B52C34FF0DC0FE01EA0DF11D80818033E1
:1026600011F4397E09C032FF06C0B394B39404C09C
:10267000832F867809F0B39433FD13C030FF06C072
:102680005A2CB31418F4530C5B18B32CB31468F41D
:10269000B70180E290E03C870E94DB13B3943C8555
:1026A000F5CFB31410F43B1801C0312C34FF12C025
:1026B000B70180E390E03C870E94DB133C8532FF4A
:1026C00017C031FD03C088E790E002C088E590E0C4
:1026D000B7010CC0832F867859F031FF02C08BE21E
:1026E00001C080E237FD8DE2B70190E00E94DB136C
:1026F000A51438F4B70180E390E00E94DB135A94EC
:10270000F7CFAA94F401EA0DF11D8081B70190E0A2
:102710000E94DB13A110F5CF332009F451CEB7018D
:1027200080E290E00E94DB133A94F6CFF7018681B5
:10273000978102C08FEF9FEF2C960FB6F894DEBF03
:102740000FBECDBFDF91CF911F910F91FF90EF9002
:10275000DF90CF90BF90AF909F908F907F906F90C1
:102760005F904F903F902F900895FC01059061502D
:1027700070400110D8F7809590958E0F9F1F089597
:10278000FC016150704001900110D8F78095909540
:102790008E0F9F1F0895DC01FC01672F7191772335
:1027A000E1F7329704C07C916D9370836291AE170C
:1027B000BF07C8F308950F931F93CF93DF93FB01D7
:1027C000238121FD03C08FEF9FEF28C022FF16C099
:1027D00046815781248135814217530744F4A081F3
:1027E000B1819D012F5F3F4F318320838C932681E0
:1027F00037812F5F3F4F3783268310C0EB01092FAE
:10280000182F0084F185E02D0995892BE1F68E8142
:102810009F8101969F838E83812F902FDF91CF918F
:102820001F910F910895FA01AA27283051F1203104
:1028300081F1E8946F936E7F6E5F7F4F8F4F9F4F54
:10284000AF4FB1E03ED0B4E03CD0670F781F891F96
:102850009A1FA11D680F791F8A1F911DA11D6A0F64
:10286000711D811D911DA11D20D009F468943F9117
:102870002AE0269F11243019305D3193DEF6CF0116
:102880000895462F4770405D4193B3E00FD0C9F7DC
:10289000F6CF462F4F70405D4A3318F0495D31FD49
:1028A0004052419302D0A9F7EACFB4E0A69597959C
:1028B000879577956795BA95C9F700976105710572
:1028C00008959B01AC010A2E0694579547953795BC
:1028D0002795BA95C9F7620F731F841F951FA01D16
:1028E0000895262FE199FECF9FBB8EBB2DBB0FB65F
:1028F000F894E29AE19A0FBE019608950E9471142D
:0A290000272F0C947214F894FFCFF7
:10290A006E6F2100000000000000000000000000BF
:10291A008629010064EB01F001F7010302030201B9
:10292A000C0C0C0C0101905369676E616C2020201D
:10293A002020202020202000557365206469616CC6
:10294A007320746F20202020006368616E67652001
:10295A0074696D652020202020002020202020413D
:10296A004C41524D21202020202000202020285395
:10297A006E6F6F7A653F2920202020006368616EA0
:10298A00676520616C61726D2020202000536E6F94
:10299A006F7A696E672E2E2E2E2E2E2E2E007A7AA2
:1029AA005A7A7A5A5A5A7A7A7A5A7A5A5A7A002031
:1029BA0020202057656C636F6D6520202020200041
:1029CA0020285374617465206572726F7229202001
:1029DA0000493D2564204F3D257300257320563D4F
:1029EA002564252500252D313673005541525400A2
:1029FA00566F6C756D650054656D7065726174759E
:102A0A0072650057656C636F6D65005369343733BF
:102A1A0034205265763A20206C6173742032206427
:102A2A006967697473206F662070617274206E6FB3
:102A3A002E2020206368697020726576202020206D
:102A4A00200A0D00202020202020202020202020C5
:102A5A00202D2D2D2D2D2D2D2D2D2D2D2D2D2D2DA9
:102A6A002D2D2D2D2D2D2D2D2D2D2020202D2D2DB3
:102A7A002D2D2D2D2D20202020200A0D0020202054
:102A8A00202020202020202020202020202020203C
:102A9A002020202020202000464D5F5253515F53B2
:102AAA0054415455533A200073746174757320620B
:102ABA007974652020203A007265737031202020D5
:102ACA002020202020203A006672657120202020D4
:102ADA002020202020203A006672657120686967EC
:102AEA006820202020203A0066726571206C6F777A
:102AFA002020202020203A00727373692020202091
:082B0A002020202020203A00C9
:00000001FF
