:100000000C9446000C9465000C9465000C946500FB
:100010000C9465000C9465000C9465000C946500CC
:100020000C9465000C9465000C9465000C946500BC
:100030000C94E3000C9465000C9465000C9465002E
:100040000C9485000C9465000C9465000C9465007C
:100050000C9465000C9465000C9465000C9465008C
:100060000C9465000C9465000C9465000C9465007C
:100070000C9465000C9468010C9465000C94650068
:100080000C9465000C94710A0C94650011241FBE39
:10009000CFEFD0E1DEBFCDBF13E0A0E0B1E0EAE6F4
:1000A000F9E200E00BBF02C007900D92A231B10748
:1000B000D9F713E0A2E1B3E001C01D92A23FB1075E
:1000C000E1F70E9468030C94B3140C940000E1E67D
:1000D000F0E0808188608083E2E6F0E08081877FC5
:1000E000808387B3876087BBC19A80E58DB981E043
:1000F0008EB987B3876887BB81B3806381BB8DB1BD
:1001000081658DB9709AC59808951F920F920FB6A8
:100110000F9211242F938F939F93909132039F5F9F
:1001200090933203903809F442C0809115038C33C8
:1001300038F0109215038091C9018F5F8093C90137
:100140008091C9018C3338F01092C9018091CA01A5
:100150008F5F8093CA018091CA012091CD01281739
:1001600058F48091CA01821B8093CA0180911A03BE
:100170008823C9F010921A03892F90E08F71907034
:10018000892B39F490E080911B03882351F09093E0
:100190001B039F918F912F910F900FBE0F901F9077
:1001A000189591E0F4CF81E080931A03E5CF81E0C8
:1001B0008093CE01809115038F5F80931503109279
:1001C000320390E0B2CF1F920F920FB60F9211241C
:1001D0008F9382B3805882BB8F910F900FBE0F9088
:1001E0001F90189580B7886080BF87B7816187BFEF
:1001F000EDE7F0E080818460808381E083BF8EB58D
:100200008B608EBD8FEE90E09BBD8ABD85B581670A
:1002100085BD8FEF82B983B982E880938B008CE033
:1002200080938A0086E490E0909387008093860014
:100230000895E1E6F0E0908121E030E002C0220F75
:10024000331F8A95E2F7209592239083E2E6F0E04F
:1002500080812823208387B1876487B986B1876826
:1002600086B908958FEF8ABB20E030E040E659E080
:1002700088B318BA88B3F901E552FC4F9081892BF5
:1002800088BBF901ED51FC4F80818BBBCA010197FE
:10029000F1F72F5F3F4F2530310551F785E080930F
:1002A0004D0388B318BA88B3806788BB88B3909130
:1002B000DD03892B88BB1ABA0895369A349BFECF8A
:1002C000349A84B195B190934C0380934B03089575
:1002D0001F920F920FB60F920BB60F9211242F930D
:1002E0003F934F935F936F937F938F939F93AF93BE
:1002F000BF93EF93FF930E945D0180914B03909118
:100300004C039695879596958795809583BDFF912B
:10031000EF91BF91AF919F918F917F916F915F917D
:100320004F913F912F910F900BBE0F900FBE0F90EA
:100330001F9018958091CE03823009F463C08430F9
:1003400009F443C0813071F12091130330911403FB
:100350002230310509F469C02330310531F01092A3
:1003600014031092130320E030E01092CE032230E9
:100370003105C9F12330310508F092C0211531054E
:1003800009F47FC02130310599F088E891E090931D
:10039000D8018093D70189E991E09093DA018093A5
:1003A000D901089581E090E09093140380931303A2
:1003B00081E191E09093D8018093D70182E291E0AE
:1003C0009093DA018093D90108958091130390915D
:1003D00014030297029708F442C082E090E09093E1
:1003E00014038093130383E391E09093D8018093E7
:1003F000D70184E491E09093DA018093D9011092BF
:10040000CE03089584E090E0909314038093130347
:1004100081E191E09093D8018093D70185E591E047
:100420009093DA018093D90108958091CE038823B7
:1004300041F083E090E0909314038093130323E052
:1004400030E080911503865F809318038091C90185
:10045000809319038091CA018093CC0188CF1092B8
:100460001403109213031092CE038091160380930D
:10047000180380911703809319038091CB01809317
:10048000CC0180E091E09093D8018093D7018091D6
:10049000E7019091E8019093DA018093D9010895E2
:1004A0002330310529F02430310509F06ECFB0CF6B
:1004B00086E691E09093D8018093D70187E791E099
:1004C0009093DA018093D901089584E70E947C0417
:1004D00080EE9EE20197F1F70E94B0048093FA014A
:1004E0000E94B0048093FB011092FC018AEF91E01E
:1004F0009093F8018093F7010895EF92FF920F9384
:100500001F93DF93CF9300D00F92CDB7DEB77E015C
:100510000894E11CF11CD701E4ECF1E083E00190C8
:100520000D928150E1F78091CE01882371F551E25F
:10053000E52E53E0F52E00D000D000D0EDB7FEB789
:100540003196ADB7BEB71296FC92EE9211978EEB34
:1005500091E093838283F582E4820E94CC11F09231
:10056000E801E092E701EDB7FEB736960FB6F894D2
:10057000FEBF0FBEEDBF0F900F900F90CF91DF9198
:100580001F910F91FF90EF9008951092CE0180E996
:1005900060EF73E042E00E94170B80E49FE1019757
:1005A000F1F77091F00360E08091F10390E0682B27
:1005B000792BC70141E00E94320B2DB73EB728507E
:1005C00030400FB6F8943EBF0FBE2DBFEDB7FEB75B
:1005D000319641E2E42E43E0F42EADB7BEB7129659
:1005E000FC92EE9211972AEA31E0338322838483CE
:1005F00015828091F7019091F801978386830E947C
:10060000CC118091F90190E0880F991F9093870099
:10061000809386006091F9010DB71EB70F5F1F4FE1
:10062000EDB7FEB7F282E18224EB31E0D8011396F8
:100630003C932E9312972091E7013091E801159693
:100640003C932E93149770E0882777FD8095982F20
:100650000E94B60E20E030E040E250E40E940A0E14
:100660000E94140FF801778366830E94CC112DB786
:100670003EB7285F3F4F0FB6F8943EBF0FBE2DBF69
:100680005ACF809133038823B9F00E94810580916D
:10069000D7019091D8010E948E071092330394984D
:1006A000949A809120038FB9779BFECF8FB180936E
:1006B000E803C09AC09808950E9488058091D901E6
:1006C0009091DA010E948E0781E080933303E7CF97
:1006D000EF92FF921F93CF93DF930E94B2070E9485
:1006E000F2000E9467000E94D1050E94290B87E05A
:1006F0000E9419010E947A050E94A3048FEF82B91B
:1007000013B81092EE0380E96EEE73E042E00E94AF
:10071000050B80E49FE10197F1F77894C0E1D7E2FF
:1007200014E662E0E62EF12C0E949A0180911303F8
:1007300090911403049709F45CC0A0911603809172
:10074000CB0140911703B09115036091CA01E0916C
:10075000C90190E08C9F90018D9F300D9C9F300DC2
:100760001124419FA0011124240F351F2A0F311D90
:1007700070E06C9FC0016D9F900D7C9F900D1124C7
:10078000E19FF00111248E0F9F1F8B0F911D2817E1
:10079000390709F498C0A09118038091CC014091C9
:1007A0001903B09115036091CA01E091C90190E06D
:1007B0008C9F90018D9F300D9C9F300D1124419F87
:1007C000A0011124240F351F2A0F311D70E06C9FEA
:1007D000C0016D9F900D7C9F900D1124E19FF00151
:1007E00011248E0F9F1F8B0F911D2817390709F4B5
:1007F0006AC0809117038C3310F010921703809118
:10080000CB018C3310F01092CB010E946B080E9438
:1008100041030E9422090E9465020E947D0280918C
:100820001503809320038091130390911403049780
:1008300009F44EC02091C9018091CA01819FC00175
:100840001124820F911D90931F0380931E038091AA
:100850001E0390911F030E940A0880911A038823A7
:1008600061F18091E5038B7F8093E503809115030F
:1008700090E09C012170307080FD16C080911303C0
:1008800090911403029791F10E9432018091130319
:1008900090911403029711F08F9846CF80911B031B
:1008A0008823D1F38F9A40CF2130310569F78091A9
:1008B000E5038C7F8093E503E7CF8091E5038460B7
:1008C0008093E503D3CFF0921403E092130391CF0A
:1008D000209117038091CB01819FC0011124820FC9
:1008E000911D90931F0380931E03B1CF8091E50368
:1008F00082608093E503C8CF5D9BFECF8CB95D9B82
:10090000FECF0895CF93DF93FC018081882339F0D7
:10091000EF010E947C04898121968823D1F7DF9121
:10092000CF910895CF93DF93EC0105C02196F90193
:1009300084910E947C049E01FE0184918823B1F77A
:10094000DF91CF9108958AB188618AB9E5E9F0E035
:100950008081866080831092900087E689B908952F
:1009600080E090E005C001962EE38038920721F0E8
:100970005F9BF9CF8CB1089580E00895811181E0EB
:100980008FB9779BFECF6FB9779BFECF80916200C6
:1009900088608093620080916200877F809362000C
:1009A00080EA9FE00197F1F708950F931F93CF938B
:1009B000DF938C01660F660F660F605C80E048EE87
:1009C00053E00E94BE04C0E0D0E0F801EC0FFD1F30
:1009D00081E0608144E650E00E94BE042196C83068
:1009E000D10599F7DF91CF911F910F91089560582C
:1009F00090E00197002496958795079496958795A2
:100A00000794982F802D680F80E048EE53E00E94F5
:100A1000BE0408951F93182F882359F1843678F463
:100A20008A30B8F4812F6AE00E940411905D81E061
:100A3000692F44E650E00E94BE041F91089564E6C9
:100A40000E940411682F605D81E044E650E00E943E
:100A5000BE04812F64E60E940411892F6AE00E947F
:100A60000411682F605D81E044E650E00E94BE04FE
:100A7000D9CF81E060E344E650E00E94BE041F91BC
:100A800008951F93182F87FD04C00E940A051F9127
:100A9000089581E06DE244E650E00E94BE04812F9B
:100AA00081950E940A051F91089580E06EE048EE4E
:100AB00053E00E94BE04089580E06CE048EE53E0ED
:100AC0000E94BE04089580E06EE148EE53E00E946B
:100AD000BE04089580E068E148EE53E00E94BE0441
:100AE0000895E2E6F0E08081886080838081877FDE
:100AF0008083089580E061E040ED57E00E94BE04ED
:100B0000089580E062E04CED55E00E94BE04089537
:100B100080E060EC4CED55E00E94BE040895FC01BD
:100B200081E08FB9779BFECF90913403E90FF11DDF
:100B300080818FB9779BFECF80916200886080931F
:100B4000620080916200877F80936200892F8F5FAF
:100B500080933403803159F0803209F0089585ED97
:100B60008A95F1F70E94810510923403089585ED6E
:100B70008A95F1F70E94880508951F9310E081E09F
:100B800060E244E650E00E94BE041F5F1031B9F7F6
:100B90001F910895682F81E044E650E00E94BE0452
:100BA000089580E09AEF0197F1F788E08093610063
:100BB00080E060E348E55BE10E94BE0480E060E322
:100BC00048E55BE10E94BE0480E060E348E55BE14C
:100BD0000E94BE0480E068E348E853E10E94BE043E
:100BE00080E068E048E853E10E94BE0480E061E0F4
:100BF00048E853E10E94BE0480E066E048E853E123
:100C00000E94BE0480E06CE045E050E00E94BE041B
:100C10000895BF92CF92DF92EF92FF920F931F93AE
:100C2000DF93CF93CDB7DEB761970FB6F894DEBFF1
:100C30000FBECDBFB62E042FC22EDD2497FD80C07F
:100C40009C01002309F056C010E07E010894E11CCD
:100C5000F11CC9016AE070E00E942411262F372F91
:100C6000F701E10FF11D805D80831F5F21153105C4
:100C700081F7CC2019F4DD2009F05AC0BB20B1F077
:100C8000CC2009F053C080E2E12FF0E06B2D70E042
:100C90006D197109E617F7074CF4EE0DFF1D8083FF
:100CA0001F5FE12FF0E0E617F707BCF3DD2031F01E
:100CB000F701E10FF11D8DE280831F5F1150F701F5
:100CC000E10FF11D81E0608148EE53E00E94BE0417
:100CD0001123A1F761960FB6F894DEBF0FBECDBF0A
:100CE000CF91DF911F910F91FF90EF90DF90CF9008
:100CF000BF90089510E07E010894E11CF11CC90129
:100D00006AE070E00E942411262F372FF701E10FCF
:100D1000F11D805D80831F5F011789F7F701E00FE8
:100D2000F11D8EE28083102F1F5F93CF80E3ACCF45
:100D3000F701E10FF11D8DE280831F5FDD249ECF5F
:100D4000DD24D39422273327281B390B7ACF7F92B7
:100D50008F929F92AF92BF92CF92DF92EF92FF92CB
:100D60000F931F93DF93CF93CDB7DEB7A1970FB645
:100D7000F894DEBF0FBECDBF5B016C01942E822EB6
:100D80007E2C002309F0B3C09B01AC01882009F040
:100D900073C010E07E010894E11CF11CFAE1AF2E53
:100DA000B12CAC0EBD1EE9E0CE2ED12CCC0EDD1E3A
:100DB000CA01B9012AE030E040E050E00E9437115A
:100DC0002A8F3B8F4C8F5D8F6E8F7F8F88A399A367
:100DD000D701F50188E001900D928150E1F729815A
:100DE0003A814B815C81F601E10FF11D8D81805DBF
:100DF00080831F5F2115310541055105C9F6912FEB
:100E0000992091F0772009F087C080E2191560F4ED
:100E1000F601E10FF11D80831F5F1915C8F3192D2D
:100E20001F5F190F9095190F002331F0F601E10FA4
:100E3000F11D8DE280831F5F1150F601E10FF11D5E
:100E400081E0608148EE53E00E94BE041123A1F7C7
:100E5000A1960FB6F894DEBF0FBECDBFCF91DF9144
:100E60001F910F91FF90EF90DF90CF90BF90AF90C8
:100E70009F908F907F90089510E07E010894E11C70
:100E8000F11C7AE1A72EB12CAC0EBD1E69E0C62E76
:100E9000D12CCC0EDD1ECA01B9012AE030E040E0C1
:100EA00050E00E9437112A8F3B8F4C8F5D8F6E8FE1
:100EB0007F8F88A399A3D701F50188E001900D9257
:100EC0008150E1F729813A814B815C81F601E10F84
:100ED000F11D8D81805D80831F5F8116E1F6F60133
:100EE000E80DF11D8EE28083182D1F5F61CFDC01BC
:100EF000CB018827B7FD83959927AA27BB27082F01
:100F0000A6019501D7FE42CF509540953095219589
:100F10003F4F4F4F5F4F3ACF80E378CFFF920F9311
:100F20001F93CF93DF938C01FF24C0E0D0E0C00F6C
:100F3000D11F81E0688144E650E00E94BE04F39432
:100F4000CF2DD0E0F80101900020E9F7E01BF10B74
:100F50003297EC17FD0758F7DF91CF911F910F9152
:100F6000FF9008951092DB0380E18093DC0380E220
:100F70008093DD0380E38093DE0380E48093DF03CE
:100F800080EC8093CF0389EF8093D00384EA809331
:100F9000D10380EB8093D20389E98093D30382E964
:100FA0008093D40382E88093D50388EF8093D6039F
:100FB00090E89093D70380E98093D8038FEF8093D4
:100FC000D90380E787BB90936100E2E6F0E080817F
:100FD0008F778083089590E049B3FC01EE0FFF1FE7
:100FE000EB5CFC4F20813181220F331F306E50E0CB
:100FF00002C0559547958A95E2F741705070242BB1
:10100000352B3183208380E020503F4F09F0089535
:1010100081E00895CF93DF939C016AE070E00E9425
:1010200010118093E303C9016AE070E00E9410117F
:10103000CB016AE070E00E9410118093E4038AE023
:101040008093E503C90164E670E00E941011CB01B2
:101050006AE070E00E9410118093E603C90168EE17
:1010600073E00E941011CB016AE070E00E94101141
:101070008093E703C7EED3E091E024E030E04FEF48
:101080000AC0A881AA2351F4488391E021972150F6
:101090003040222399F09923A1F7A881223009F04A
:1010A00090E0F901ED51FC4FB0E0A153BC4F8C91A1
:1010B0008083219721503040222369F710924D03FD
:1010C000E091E303F0E0E153FC4F80818093E30380
:1010D000DF91CF9108950F931F93CF93DF931ABAA7
:1010E0008FEF8BBB88B318BA88B3806788BBC0E02A
:1010F000D0E001E010E08C2F0E94EB07882361F024
:101100002091CE03C8010C2E02C0880F991F0A94AB
:10111000E2F728272093CE032196C830D10559F74E
:1011200088B318BA8FEF8ABBDF91CF911F910F91CF
:101130000895637083708130C9F0813030F082305F
:1011400081F0833041F080E00895613041F06230F9
:10115000D1F782E008956130E1F36230A1F781E0D8
:1011600008956623E1F3633071F7F3CF662389F3C3
:10117000633049F7F4CF20911303309114032130E9
:101180003105C9F02130310558F48091F901865FAD
:101190008093F9018A3018F48AEF8093F901089559
:1011A00024303105E1F78230A1F0809117038F5F81
:1011B000809317030895823031F08091C9018F5FC9
:1011C0008093C90108958091CA018F5F8093CA01FD
:1011D00008958091CB018F5F8093CB01089520917A
:1011E00013033091140321303105C1F02130310552
:1011F00050F48091F9018A508093F901813F10F0F9
:101200001092F901089524303105E1F78230A1F000
:10121000809117038150809317030895823031F035
:101220008091C90181508093C90108958091CA01BC
:1012300081508093CA0108958091CB0181508093A1
:10124000CB010895CF92DF92EF92FF920F931F93FD
:10125000CF93DF932091E803922F9F706091450315
:10126000862F8F70E92EFF24082F10E0E801CE258D
:10127000DF25CE0183709070892B09F05FC0CC70A0
:10128000D070CD2B49F4DF91CF911F910F91FF903A
:10129000EF90DF90CF900895E701CC70D070CE0131
:1012A0009595879595958795169507951695079524
:1012B000602F0E949908813009F4AEC0823009F491
:1012C0008BC08091470386958093470380914603A6
:1012D000869580934603CC30D10509F48CC080916B
:1012E000450385FF16C080914703833008F4B1C0E1
:1012F000809147038F3108F0D4C082E00E94BB0880
:10130000809145038F7D809345031092470310928F
:101310004603CD2B29F480914503806280934503D9
:1013200080914503837F809345038091E8039091EA
:1013300045038C70892B80934503A5CF6370822F62
:1013400083700E949908813009F472C0823009F4D8
:1013500057C0809149038695809349038091480343
:1013600086958093480333E0C32ED12CCE20DF2016
:1013700083E0C816D10409F467C08091450384FF57
:1013800016C080914903833008F477C080914903E7
:101390008F3108F08EC081E00E94BB088091450328
:1013A0008F7E809345031092490310924803CD2805
:1013B00029F4809145038061809345038091450322
:1013C0008C7F809345038091E8039091450383705F
:1013D000892B8093450353CF809147038695809353
:1013E000470380914603880F816080934603CC3089
:1013F000D10509F074CF10924703109246036FCFC6
:101400008091490386958093490380914803880F12
:10141000816080934803A7CF80914703880F816044
:10142000809347038091460386958093460353CF6C
:1014300080914903880F816080934903809148031C
:101440008695809348038FCF1092490310924803EA
:1014500094CF80914603833008F45BCF809146039C
:101460008F3138F0809146038F3398F582E00E94E7
:10147000EF0882E00E94EF0843CF80914803833059
:1014800008F495CF809148038F3138F0809148035C
:101490008F3318F581E00E94EF0881E00E94EF0889
:1014A0007DCF809147038F3360F482E00E94BB08B8
:1014B00024CF809149038F3340F481E00E94BB0820
:1014C0006ACF82E00E94BB08F0CF81E00E94BB0897
:1014D000F4CF82E00E94EF08C9CF81E00E94EF08BC
:1014E000D9CF1F920F920FB60F920BB60F92112405
:1014F0002F933F938F939F93EF93FF93809171006E
:10150000883209F45DC08932C8F0803409F440C0E3
:10151000813408F44FC0803569F18835B9F4809181
:101520004A03E091EA03F091EB03E80FF11D80918B
:101530007300808384E9809374000FC0803109F4C4
:1015400056C08831E9F1883009F451C080917100AA
:101550008093E90384E080937400FF91EF919F9161
:101560008F913F912F910F900BBE0F900FBE0F9058
:101570001F90189580914A03E091EA03F091EB03E4
:10158000E80FF11D9091730090838F5F80934A0361
:101590008091ED0320914A0330E090E001972817F5
:1015A000390724F485EC80937400D7CF85E88093C5
:1015B0007400D3CF883351F685EA80937400CDCF81
:1015C00090914A038091ED03981708F0B3CFE09112
:1015D000EA03F091EB03E90FF11D80818093730022
:1015E0009F5F90934A0385E880937400B6CF809103
:1015F000EC038093730010924A0385E88093740093
:10160000ACCF8091740081700895982F8091740000
:1016100080FDFCCF9E7F9093EC037093EB0360936F
:10162000EA034093ED0385EA809374000895982FB0
:101630008091740080FDFCCF91609093EC037093D7
:10164000EB036093EA034093ED0385EA8093740013
:1016500008958FEF80937300109271008CE0809357
:10166000700008951F93CF93DF93EC0177FD2AC09C
:10167000660F672F661F770B7195162F4423B1F005
:1016800070E0882777FD8095982F0E94B60E26E699
:1016900036E646EE5FE30E94100D20E030E040E0C9
:1016A00052E40E94E30C0E94140F162F812F90E049
:1016B000BE014AE050E00E94AB11812FDF91CF9133
:1016C0001F91089510E080E090E0F2CFA0E0B0E03C
:1016D000ECE6FBE00C947411DC012B01FA019C9107
:1016E000923008F439C1EB018881823008F433C1AB
:1016F000943069F4843009F02FC111969C911197B0
:101700008981981709F428C1AAE0B2E025C1843084
:1017100009F421C18230A9F4923009F01DC19A0167
:10172000AD0188E0EA010990AE01E90109929E014C
:101730008150C1F7E201898111969C9189238183AF
:1017400008C1923009F407C112962D903C9013976E
:10175000EB018A819B811496AD90BD90CD90DC9079
:101760001797EC80FD800E811F819101281B390B9A
:10177000B90137FF04C066277727621B730B6032FD
:1017800071050CF061C0121613066CF537014801A3
:10179000062E04C096948794779467940A94D2F79F
:1017A00021E030E040E050E004C0220F331F441F2E
:1017B000551F6A95D2F721503040404050402E21AD
:1017C0003F2140235123211531054105510521F0C9
:1017D00021E030E040E050E079018A01E628F72876
:1017E000082919293CC0232BD1F1260E371E3501BB
:1017F0004601062E04C096948794779467940A94C1
:10180000D2F721E030E040E050E004C0220F331F67
:10181000441F551F6A95D2F7215030404040504038
:101820002A213B214C215D2121153105410551051E
:1018300021F021E030E040E050E059016A01A628A3
:10184000B728C828D9280BC0821593052CF01C0195
:10185000AA24BB24650103C0EE24FF24870111964E
:101860009C91D20111968C91981709F445C0992347
:1018700039F0A80197012A193B094C095D0906C0F6
:10188000A60195012E193F09400B510B57FD08C0C9
:1018900011823382228224833583468357831DC07D
:1018A00081E081833382228288279927DC01821B91
:1018B000930BA40BB50B84839583A683B7830DC0CC
:1018C000220F331F441F551F2483358346835783BC
:1018D000828193810197938382832481358146811C
:1018E0005781DA01C9010197A109B1098F5F9F4FA3
:1018F000AF4FBF4328F30BC0918333822282EA0C9F
:10190000FB1C0C1D1D1DE482F5820683178383E0FA
:101910008083248135814681578157FF1AC0C901D0
:10192000AA2797FDA095BA2F81709070A070B07013
:101930005695479537952795822B932BA42BB52B3E
:1019400084839583A683B783828193810196938351
:101950008283DF0101C0D201CD01CDB7DEB7E2E164
:101960000C949011A0E2B0E0E8EBFCE00C94801144
:1019700069837A838B839C832D833E834F8358872F
:10198000E9E0EE2EF12CEC0EFD1ECE010196B70122
:101990000E948C108E010F5E1F4FCE010596B8017C
:1019A0000E948C108A8991E089278A8BC701B8012F
:1019B000AE01475E5F4F0E94660B0E94B70FA09674
:1019C000E6E00C949C11A0E2B0E0E9EEFCE00C949F
:1019D000801169837A838B839C832D833E834F831D
:1019E0005887F9E0EF2EF12CEC0EFD1ECE0101968A
:1019F000B7010E948C108E010F5E1F4FCE0105961D
:101A0000B8010E948C10C701B801AE01475E5F4F5C
:101A10000E94660B0E94B70FA096E6E00C949C1102
:101A2000A0E2B0E0E6E1FDE00C94741169837A83F2
:101A30008B839C832D833E834F835887CE010196F1
:101A4000BE01675F7F4F0E948C10CE010596BE01DC
:101A50006F5E7F4F0E948C109985923088F0898943
:101A60008230C8F0943019F4823051F404C08430CC
:101A700029F4923081F48AE092E0C6C0923049F4B1
:101A800020E09A858A89981321E02A87CE01099659
:101A9000BBC0823049F420E09A858A89981321E0FE
:101AA0002A8BCE014196B0C02D843E844F84588845
:101AB0006D887E888F88988CEE24FF248701AA2465
:101AC000BB24650140E050E060E070E0E0E0F0E061
:101AD000C10181709070892BE9F0E60CF71C081D9C
:101AE000191D9A01AB012A0D3B1D4C1D5D1D80E0A7
:101AF00090E0A0E0B0E0E614F7040805190520F432
:101B000081E090E0A0E0B0E0BA01A901480F591FC0
:101B10006A1F7B1FAA0CBB1CCC1CDD1C97FE08C0D7
:101B200081E090E0A0E0B0E0A82AB92ACA2ADB2A26
:101B30003196E032F10549F0660C771C881C991C3F
:101B40005694479437942794C3CFFA85EA892B8912
:101B50003C898B859C85280F391F2E5F3F4F17C00E
:101B6000CA0181709070892B61F016950795F794E2
:101B7000E79480E090E0A0E0B0E8E82AF92A0A2B98
:101B80001B2B76956795579547952F5F3F4F77FDB0
:101B9000E7CF0CC0440F551F661F771F17FD41602C
:101BA000EE0CFF1C001F111F21503040403090E010
:101BB000590790E0690790E4790760F32B8F3C8F19
:101BC000DB01CA018F779070A070B07080349105EE
:101BD000A105B10561F447FD0AC0E114F104010556
:101BE000110529F0405C5F4F6F4F7F4F40781A8E90
:101BF000FE1711F081E08A8F4D8F5E8F6F8F78A373
:101C000083E0898FCE0149960E94B70FA096E2E14A
:101C10000C949011A8E1B0E0E0E1FEE00C947C119E
:101C200069837A838B839C832D833E834F8358877C
:101C3000B9E0EB2EF12CEC0EFD1ECE010196B701A2
:101C40000E948C108E010F5E1F4FCE010596B801C9
:101C50000E948C102985223008F47EC039893230E8
:101C600010F4B8017CC08A859A8989278A87243034
:101C700011F0223031F4231709F06EC06AE072E0EF
:101C80006EC0343039F41D861E861F86188A1C8665
:101C90001B8604C0323021F484E08987B7015FC01D
:101CA0002B853C858B899C89281B390B3C872B878E
:101CB000ED84FE840F851889AD88BE88CF88D88CC6
:101CC000EA14FB040C051D0540F4EE0CFF1C001F7C
:101CD000111F215030403C872B8720E030E040E04E
:101CE00050E080E090E0A0E0B0E460E070E0EA1452
:101CF000FB040C051D0540F0282B392B4A2B5B2BD0
:101D0000EA18FB080C091D09B695A79597958795C4
:101D1000EE0CFF1C001F111F6F5F7F4F6F317105AD
:101D200031F7DA01C9018F779070A070B0708034FC
:101D30009105A105B10561F427FD0AC0E114F10484
:101D40000105110529F0205C3F4F4F4F5F4F207870
:101D50002D873E874F87588BBE01675F7F4FCB0132
:101D60000E94B70F6896EAE00C949811A8E0B0E0E2
:101D7000ECEBFEE00C947D119B01AC0183E08983C8
:101D8000DA01C9018827B7FD83959927AA27BB27C0
:101D9000B82E211531054105510519F482E08983DA
:101DA0003AC08823A9F0203080E0380780E0480757
:101DB00080E8580729F460E070E080E09FEC30C0D4
:101DC000EE24FF248701E21AF30A040B150B02C06C
:101DD00079018A018EE1C82ED12CDC82CB82ED8282
:101DE000FE820F831887C801B7010E94680F019710
:101DF0001816190684F4082E04C0EE0CFF1C001FF0
:101E0000111F0A94D2F7ED82FE820F831887C81A39
:101E1000D90ADC82CB82BA82CE0101960E94B70F2A
:101E20002896E9E00C949911ACE0B0E0EAE1FFE01B
:101E30000C94841169837A838B839C83CE010196F1
:101E4000BE016B5F7F4F0E948C108D81823061F1EB
:101E5000823050F1843021F48E81882351F12EC0DC
:101E60002F81388537FD20C06E812F3131051CF060
:101E70006623F9F023C08EE190E0821B930B298545
:101E80003A854B855C8504C05695479537952795CF
:101E90008A95D2F76623B1F05095409530952195FB
:101EA0003F4F4F4F5F4F0EC020E030E040E050E02A
:101EB00009C02FEF3FEF4FEF5FE704C020E030E0B5
:101EC00040E050E8B901CA012C96E2E00C94A01160
:101ED000EF92FF920F931F937B018C0180E0E81635
:101EE00080E0F80681E0080780E0180788F48FEFAB
:101EF000E816F1040105110531F028F088E090E0C2
:101F0000A0E0B0E017C080E090E0A0E0B0E012C038
:101F100080E0E81680E0F80680E0080781E0180716
:101F200028F088E190E0A0E0B0E004C080E190E01B
:101F3000A0E0B0E020E230E040E050E0281B390BA8
:101F40004A0B5B0B04C016950795F794E7948A95A6
:101F5000D2F7F701EE5EFD4F8081281B3109410960
:101F60005109C9011F910F91FF90EF900895DF92E1
:101F7000EF92FF920F931F93FC01E480F58006819E
:101F80001781D1808081823048F480E090E0A0E128
:101F9000B0E0E82AF92A0A2B1B2BA5C0843009F4EB
:101FA0009FC0823021F4EE24FF24870105C0E11494
:101FB000F1040105110519F4E0E0F0E096C062813A
:101FC00073819FEF623879070CF05BC022E83FEF26
:101FD000261B370B2A3131052CF020E030E040E0A1
:101FE00050E02AC0B801A701022E04C0769567957B
:101FF000579547950A94D2F781E090E0A0E0B0E0D1
:1020000004C0880F991FAA1FBB1F2A95D2F70197FA
:10201000A109B1098E219F21A023B1230097A10519
:10202000B10521F081E090E0A0E0B0E09A01AB01C1
:10203000282B392B4A2B5B2BDA01C9018F77907043
:10204000A070B07080349105A105B10539F427FF67
:1020500009C0205C3F4F4F4F5F4F04C0215C3F4F92
:102060004F4F5F4FE0E0F0E02030A0E03A07A0E003
:102070004A07A0E45A0710F0E1E0F0E079018A0194
:1020800027C06038710564F5FB01E158FF4FD801A6
:10209000C7018F779070A070B07080349105A10552
:1020A000B10539F4E7FE0DC080E490E0A0E0B0E0B7
:1020B00004C08FE390E0A0E0B0E0E80EF91E0A1F34
:1020C0001B1F17FF05C016950795F794E7943196E7
:1020D00087E016950795F794E7948A95D1F705C0A0
:1020E000EE24FF248701EFEFF0E06E2F679566275F
:1020F0006795902F9F77D794DD24D7948E2F869560
:10210000492F462B582F5D29B701CA011F910F9106
:10211000FF90EF90DF900895FC01DB014081518139
:102120002281622F6F7770E0221F2227221F938166
:10213000892F880F822B282F30E0991F9927991F0C
:1021400011969C93119721153105A9F5411551055B
:102150006105710511F482E037C082E89FEF1396A4
:102160009C938E9312979A01AB0167E0220F331F65
:10217000441F551F6A95D1F783E08C930DC0220F41
:10218000331F441F551F12968D919C9113970197F1
:1021900013969C938E931297203080E0380780E04E
:1021A000480780E4580758F314962D933D934D93B8
:1021B0005C93179708952F3F310579F44115510528
:1021C0006105710519F484E08C93089564FF03C0E0
:1021D00081E08C9312C01C9210C02F573040139690
:1021E0003C932E93129783E08C9387E0440F551F06
:1021F000661F771F8A95D1F7706414964D935D938F
:102200006D937C9317970895991B79E004C0991FEB
:10221000961708F0961B881F7A95C9F78095089540
:10222000AA1BBB1B51E107C0AA1FBB1FA617B707FC
:1022300010F0A61BB70B881F991F5A95A9F7809518
:102240009095BC01CD01089597FB092E07260AD071
:1022500077FD04D0E5DF06D000201AF47095619573
:102260007F4F0895F6F7909581959F4F089597FBBE
:10227000092E05260ED057FD04D014D00AD0001C1C
:1022800038F450954095309521953F4F4F4F5F4F13
:102290000895F6F790958095709561957F4F8F4FD3
:1022A0009F4F0895A1E21A2EAA1BBB1BFD010DC072
:1022B000AA1FBB1FEE1FFF1FA217B307E407F507F6
:1022C00020F0A21BB30BE40BF50B661F771F881FD2
:1022D000991F1A9469F760957095809590959B0168
:1022E000AC01BD01CF0108952F923F924F925F92B2
:1022F0006F927F928F929F92AF92BF92CF92DF9216
:10230000EF92FF920F931F93CF93DF93CDB7DEB77A
:10231000CA1BDB0B0FB6F894DEBF0FBECDBF09940E
:102320002A88398848885F846E847D848C849B8465
:10233000AA84B984C884DF80EE80FD800C811B8173
:10234000AA81B981CE0FD11D0FB6F894DEBF0FBEA2
:10235000CDBFED010895FB019F01E8944230C4F028
:102360004532B4F44A3029F497FB1EF490958195D8
:102370009F4F642F77270E941011805D8A330CF0E5
:10238000895D8193CB010097A1F716F45DE251932B
:102390001082C9010C9419140F931F93DF93CF93EC
:1023A000CDB7DEB72E970FB6F894DEBF0FBECDBF08
:1023B0000D891E8986E08C831A8309838FEF9FE73E
:1023C0009E838D839E01275E3F4FCE0101966F89CC
:1023D000788DA9010E94FD112F813885020F131FEE
:1023E000F80110822E960FB6F894DEBF0FBECDBF57
:1023F000CF91DF911F910F9108952F923F924F92AD
:102400005F926F927F928F929F92AF92BF92CF9284
:10241000DF92EF92FF920F931F93DF93CF93CDB78D
:10242000DEB72B970FB6F894DEBF0FBECDBF3C01D1
:102430002B015A01FC0117821682838181FD03C0A2
:102440006FEF7FEFC6C19AE0892E1E010894211C10
:10245000311CF3012381F20123FD859123FF81913A
:102460002F01882309F4B2C1853239F423FD859107
:1024700023FF81912F01853229F490E0B3010E945E
:102480002914E7CF982FFF24EE249924FFE1FF15AC
:10249000D0F09B3269F09C3228F4903259F093329C
:1024A00091F40EC09D3249F0903369F441E024C0AC
:1024B00052E0F52A84E0F82A28C098E0F92A25C0DD
:1024C000E0E1FE2A22C0F7FC29C0892F80538A3020
:1024D00070F4F6FE05C0989C902C1124980E15C03F
:1024E000E89CE02C1124E80EF0E2FF2A0EC09E3298
:1024F00029F4F6FC6BC140E4F42A07C09C3619F4B9
:1025000050E8F52A02C0983649F4F20123FD95916E
:1025100023FF91912F01992309F0B8CF892F85547A
:10252000833018F08052833038F444E050E0A40E39
:10253000B51E5FE359830FC0933631F0933779F0BE
:10254000933509F056C020C0F5018081898342E0AF
:1025500050E0A40EB51E610101E010E012C0F501CB
:10256000C080D180F6FC03C06FEF7FEF02C0692D01
:1025700070E042E050E0A40EB51EC6010E940E14A9
:102580008C015FE7F52214C0F501C080D180F6FC14
:1025900003C06FEF7FEF02C0692D70E042E050E0B2
:1025A000A40EB51EC6010E9403148C0150E8F52A42
:1025B000F3FE07C01AC080E290E0B3010E94291424
:1025C000EA948E2D90E008171907A8F30EC0F601C3
:1025D000F7FC8591F7FE81916F0190E0B3010E94B5
:1025E0002914E110EA94015010400115110579F702
:1025F000EAC0943611F0993669F5F7FE08C0F50186
:10260000208131814281538184E090E00AC0F5014C
:10261000808191819C01442737FD4095542F82E0B1
:1026200090E0A80EB91E9FE6F92257FF09C0509509
:102630004095309521953F4F4F4F5F4FE0E8FE2A80
:10264000CA01B901A1012AE030E00E945514D82E38
:10265000D21840C0953729F41F2D1F7E2AE030E0A4
:102660001DC01F2D197F9F3661F0903720F49835DB
:1026700009F0ACC00FC0903739F0983709F0A6C008
:1026800004C028E030E00AC0106114FD146020E1AD
:1026900030E004C014FD166020E132E017FF08C0EE
:1026A000F501608171818281938144E050E008C02E
:1026B000F50180819181BC0180E090E042E050E032
:1026C000A40EB51EA1010E945514D82ED2188FE772
:1026D000F82EF122F6FE0BC05EEFF522D91438F485
:1026E000F4FE07C0F2FC05C08FEEF82202C01D2DDB
:1026F00001C0192DF4FE0DC0FE01ED0DF11D80810C
:10270000803319F499EEF92208C01F5FF2FE05C06C
:1027100003C08F2D867809F01F5F0F2DF3FC14C0C6
:10272000F0FE0FC01E1510F09D2C0BC09D2C9E0CB2
:10273000911A1E2D06C080E290E0B3010E94291478
:102740001F5F1E15C0F304C01E1510F4E11A01C06E
:10275000EE2404FF0FC080E390E0B3010E9429142F
:1027600002FF1DC001FD03C088E790E00EC088E5B0
:1027700090E00BC0802F867891F001FF02C08BE2C1
:1027800001C080E2F7FC8DE290E0B3010E942914C1
:1027900006C080E390E0B3010E9429149A94D914F2
:1027A000C0F3DA94F101ED0DF11D808190E0B301E9
:1027B0000E942914DD20A9F706C080E290E0B30151
:1027C0000E942914EA94EE20C1F743CEF3016681FA
:1027D0007781CB012B960FB6F894DEBF0FBECDBF2D
:1027E000CF91DF911F910F91FF90EF90DF90CF90ED
:1027F000BF90AF909F908F907F906F905F904F9021
:102800003F902F900895FC01059061507040011099
:10281000D8F7809590958E0F9F1F0895FC01615009
:10282000704001900110D8F7809590958E0F9F1FF2
:102830000895DC01FC01672F71917723E1F732974E
:1028400004C07C916D9370836291AE17BF07C8F38B
:1028500008950F931F93CF93DF938C01EB018B812E
:1028600081FF1BC082FF0DC02E813F818C819D8125
:102870002817390764F4E881F9810193F983E88323
:1028800006C0E885F985802F0995892B31F48E8162
:102890009F8101969F838E8302C00FEF1FEFC801B7
:1028A000DF91CF911F910F910895FA01AA27283047
:1028B00051F1203181F1E8946F936E7F6E5F7F4F0D
:1028C0008F4F9F4FAF4FB1E03ED0B4E03CD0670F89
:1028D000781F891F9A1FA11D680F791F8A1F911DDC
:1028E000A11D6A0F711D811D911DA11D20D009F42C
:1028F00068943F912AE0269F11243019305D31936E
:10290000DEF6CF010895462F4770405D4193B3E056
:102910000FD0C9F7F6CF462F4F70405D4A3318F0FD
:10292000495D31FD4052419302D0A9F7EACFB4E0AE
:10293000A6959795879577956795BA95C9F7009766
:102940006105710508959B01AC010A2E0694579507
:10295000479537952795BA95C9F7620F731F841F5E
:0A296000951FA01D0895F894FFCF05
:10296A005369676E616C20202020202020202020BF
:10297A0000557365206469616C7320746F20202090
:10298A0020006368616E67652074696D6520202088
:10299A002020002020202020414C41524D2120207F
:1029AA002020200020202028536E6F6F7A653F294F
:1029BA0020202020006368616E676520616C617267
:1029CA006D2020202000536E6F6F7A696E672E2E5D
:1029DA002E2E2E2E2E2E007A7A5A7A7A5A5A5A7A0F
:1029EA007A7A5A7A5A5A7A002020202057656C63DC
:1029FA006F6D6520202020200020285374617465A3
:102A0A00206572726F7229202000493D2564204F8B
:102A1A003D257300257320563D2564252500252D67
:102A2A00313673003F3F000190010C0C0C0C01572A
:102A3A00656C636F6D6500CF01CF0154656D70657C
:102A4A0072617475726500DB01566F6C756D650095
:102A5A00E9015541525400F201646E6F21000000F1
:102A6A00000000000000000000000000000000005C
:102A7A000000000102020303030304040404040423
:102A8A0004040505050505050505050505050505EE
:102A9A0005050606060606060606060606060606CE
:102AAA0006060606060606060606060606060606BC
:102ABA00060607070707070707070707070707079E
:102ACA00070707070707070707070707070707078C
:102ADA00070707070707070707070707070707077C
:102AEA00070707070707070707070707070707076C
:102AFA00070708080808080808080808080808084E
:102B0A00080808080808080808080808080808083B
:102B1A00080808080808080808080808080808082B
:102B2A00080808080808080808080808080808081B
:102B3A00080808080808080808080808080808080B
:102B4A0008080808080808080808080808080808FB
:102B5A0008080808080808080808080808080808EB
:102B6A0008080808080808080808080808080808DB
:022B7A00080849
:00000001FF
