:100000000C9446000C9465000C9465000C946500FB
:100010000C9465000C9465000C9465000C946500CC
:100020000C940C030C9465000C9465000C94650012
:100030000C94E8000C9465000C9465000C94650029
:100040000C9485000C9465000C9465000C9465007C
:100050000C9465000C9465000C9465000C9465008C
:100060000C9465000C9465000C9465000C9465007C
:100070000C9465000C946D010C9465000C94650063
:100080000C9465000C94B50D0C94650011241FBEF2
:10009000CFEFD0E1DEBFCDBF14E0A0E0B1E0E6E1FC
:1000A000F0E300E00BBF02C007900D92A432B1074D
:1000B000D9F715E0A4E2B4E001C01D92A339B1075D
:1000C000E1F70E9499040C9409180C940000E1E6F1
:1000D000F0E0808188608083E2E6F0E08081877FC5
:1000E000808387B3876087BBC19A80E58DB981E043
:1000F0008EB987B3876887BB81B3806381BB8DB1BD
:1001000081658DB9709AC59808951F920F920FB6A8
:100110000F9211242F938F939F93909146049F5F8A
:1001200090934604903809F442C0809127048C33A0
:1001300038F0109227048091C9018F5F8093C90124
:100140008091C9018C3338F01092C9018091CA01A5
:100150008F5F8093CA018091CA012091CD01281739
:1001600058F48091CA01821B8093CA0180912C04AB
:100170008823C9F010922C04892F90E08F71907021
:10018000892B39F490E080912D04882351F09093CD
:100190002D049F918F912F910F900FBE0F901F9064
:1001A000189591E0F4CF81E080932C04E5CF81E0B5
:1001B0008093CE01809127048F5F809327048091E4
:1001C00033048F5F809333041092460490E0ADCFE8
:1001D0001F920F920FB60F9211248F9382B3805803
:1001E00082BB8F910F900FBE0F901F90189580B714
:1001F000886080BF87B7816187BFEDE7F0E08081CD
:100200008460808381E083BF8EB58B608EBD8FEE6E
:1002100090E09BBD8ABD85B5816785BD8FEF82B9B2
:1002200083B982E880938B008CE080938A0086E417
:1002300090E090938700809386000895E1E6F0E0D7
:10024000908121E030E002C0220F331F8A95E2F74F
:10025000209592239083E2E6F0E08081282320839A
:1002600087B1876487B986B1876886B908958FEFAB
:100270008ABB20E030E040E659E088B318BA88B382
:10028000F901E458FA4F9081892B88BBF901EC57AA
:10029000FA4F80818BBBCA010197F1F72F5F3F4F67
:1002A0002530310551F785E08093670488B318BA8B
:1002B00088B3806788BB88B390917E05892B88BB03
:1002C0001ABA0895369A349BFECF349A84B195B108
:1002D000909363048093620408951F920F920FB667
:1002E0000F920BB60F9211242F933F934F935F936E
:1002F0006F937F938F939F93AF93BF93EF93FF93EE
:100300000E946201809162049091630496958795A2
:1003100096958795809583BDFF91EF91BF91AF91A1
:100320009F918F917F916F915F914F913F912F910D
:100330000F900BBE0F900FBE0F901F9018958091DD
:100340006F05823009F477C0843009F461C08130D0
:1003500049F18091250490912604029709F494C0F4
:100360008091250490912604039721F01092260491
:100370001092250410926F05809125049091260417
:1003800082309105E1F483E391E09093D80180936A
:10039000D70184E491E09093DA018093D90110921F
:1003A0006F05089581E090E09093260480932504E2
:1003B00080912504909126048230910521F38330A9
:1003C000910590F4009709F43DC00197A1F481E1F3
:1003D00091E09093D8018093D70182E291E09093CD
:1003E000DA018093D90108958330910509F471C031
:1003F000049709F461C088E891E09093D801809354
:10040000D70189E991E09093DA018093D9010895A9
:100410008091250490912604039719F18091250479
:10042000909126040297E9F082E090E090932604F0
:1004300080932504BDCF84E090E0909326048093C0
:100440002504B6CF80E091E09093D8018093D70146
:100450008091E7019091E8019093DA018093D901AE
:100460000895109226041092250410926F05809131
:10047000280480932A048091290480932B0480917E
:10048000CB018093CC0194CF80916F05882331F00C
:1004900083E090E0909326048093250480912704C4
:1004A000865F80932A048091C90180932B048091F8
:1004B000CA018093CC017CCF81E191E09093D80177
:1004C0008093D70185E591E09093DA018093D9017B
:1004D000089586E691E09093D8018093D70187E74D
:1004E00091E09093DA018093D90108951F93CF93FF
:1004F000DF938091250490912604049709F45DC050
:10050000A09128048091CB0140912904B091270447
:100510006091CA01E091C90190E0C0E1D7E28C9FEF
:1005200090018D9F300D9C9F300D112414E6419F4A
:10053000A0011124240F351F2A0F311D70E06C9F7C
:10054000C0016D9F900D7C9F900D1124E19FF001E3
:1005500011248E0F9F1F8B0F911D28173907E9F16A
:10056000A0912A048091CC0140912B04B0912704E2
:100570006091CA01E091C90190E08C9F90018D9F2C
:10058000300D9C9F300D1124419FA0011124240F98
:10059000351F2A0F311D70E06C9FC0016D9F900DBB
:1005A0007C9F900D1124E19FF00111248E0F9F1F5D
:1005B0008B0F911D2817390781F0809129048C3306
:1005C00010F0109229048091CB018C3310F010921E
:1005D000CB01DF91CF911F91089582E090E090933D
:1005E000260480932504E9CF8FEF82B913B81A9AB5
:1005F0008AB780688ABF89B7806889BF1F98179AB1
:100600001A9A80E293E00197F1F71A9888EC90E04B
:100610000197F1F7179808951F920F920FB60F9256
:1006200011248F9381E080938F048F910F900FBEE0
:100630000F901F9018958091270480933204809129
:100640003304843008F450C080912504909126042E
:10065000049761F18091C9012091CA0194E6299F14
:1006600090011124280F311D309331042093300460
:1006700080913004909131040E94160B80912C04DB
:10068000882361F1809186058B7F80938605809118
:10069000270490E09C012170307080FD16C080918D
:1006A0002504909126040297B9F1089580912904B8
:1006B0002091CB0194E6299F90011124280F311D30
:1006C0003093310420933004D3CF2130310569F7C2
:1006D000809186058C7F809386050895809186059C
:1006E000846080938605D3CF8091FC019091FD01B9
:1006F0006AE070E00E9454147093310460933004F7
:1007000080913004909131040E94160B80918505F0
:100710008F77809385050895809186058260809308
:100720008605089584E70E94880780EE9EE201977F
:10073000F1F70E94BC078093FE010E94BC078093E2
:10074000FF01109200028EEF91E09093F8018093E8
:10075000F7010895EF92FF920F931F93DF93CF93CA
:1007600000D00F92CDB7DEB77E010894E11CF11CDA
:10077000D701E4ECF1E083E001900D928150E1F7C4
:100780008091CE01882371F555E3E52E54E0F52ED6
:1007900000D000D000D0EDB7FEB73196ADB7BEB7F0
:1007A0001296FC92EE9211978EEB91E093838283E6
:1007B000F582E4820E941015F092E801E092E701D0
:1007C000EDB7FEB736960FB6F894FEBF0FBEEDBF7D
:1007D0000F900F900F90CF91DF911F910F91FF908D
:1007E000EF9008951092CE0180E961E975E042E052
:1007F0000E945B0E80E49FE10197F1F770919105F3
:1008000060E08091920590E0682B792BC70141E070
:100810000E94760E2DB73EB7285030400FB6F894A0
:100820003EBF0FBE2DBFEDB7FEB7319645E3E42EB8
:1008300044E0F42EADB7BEB71296FC92EE9211973B
:100840002AEA31E033832283848315828091F70181
:100850009091F801978386830E9410158091F90189
:1008600090E0880F991F9093870080938600809175
:10087000F901809366046091F9010DB71EB70F5F0F
:100880001F4FEDB7FEB7F282E18224EB31E0D801D1
:1008900013963C932E9312972091E7013091E80133
:1008A00015963C932E93149770E0882777FD8095DA
:1008B000982F0E94FA1120E030E040E250E40E94BC
:1008C0004E110E945812F801778366830E9410151A
:1008D0002DB73EB7285F3F4F0FB6F8943EBF0FBE0F
:1008E0002DBF56CF809147048823B9F00E948D0810
:1008F0008091D7019091D8010E949A0A10924704E2
:100900009498949A809132048FB9779BFECF8FB1DF
:1009100080938905C09AC09808950E949408809198
:10092000D9019091DA010E949A0A81E080934704EC
:10093000E7CF0E94BE0A0E94F7000E9467000E9453
:10094000DD080E946D0E87E00E941E010E9486084D
:100950000E94AF070E94F402789410928F0580E9FC
:100960006FE875E042E00E94490E80E49FE1019744
:10097000F1F70E94F40586E899E29093FD018093D7
:10098000FC0181E090E460E070E00E9490050E942C
:100990005506809134048823E9F40E949F010E9447
:1009A00076020E94770B0E9472040E94660C0E94DD
:1009B00092030E94AA030E941B030E9437018091A8
:1009C000250490912604029751F08F988091340469
:1009D000882319F3109234040E945506DECF8091CB
:1009E0002D04882391F38F9AD4CFCF92DF92EF9288
:1009F000FF920F931F93DF93CF93CDB7DEB7A897E6
:100A00000FB6F894DEBF0FBECDBF8EE092E00E941D
:100A100087078EE192E00E94870797ECE92E94E029
:100A2000F92E8091770490E0B70140E150E00E94F8
:100A3000EF14C7010E9487078EE2C82E82E0D82EED
:100A4000C6010E94870781E392E00E948707809198
:100A5000780490E0B7014AE050E00E94EF14C7012B
:100A60000E948707C6010E94870710917A0481E4DB
:100A700092E00E948707812F90E0B7014AE050E0A2
:100A80000E94EF14C7010E948707C6010E948707D2
:100A900081E592E00E9487078091790490E08E01C1
:100AA0000F5F1F4FB80140E150E00E94EF14C801F2
:100AB0000E948707C6010E94870781E692E00E9494
:100AC000870780917A0490E0B80140E150E00E94ED
:100AD000EF14C8010E948707C6010E94870781E7BB
:100AE00092E00E94870780917B0490E0B70140E18B
:100AF00050E00E94EF14C7010E948707C6010E94C0
:100B00008707A8960FB6F894DEBF0FBECDBFCF9172
:100B1000DF911F910F91FF90EF90DF90CF9008959C
:100B200022E120936E0410926F04909370048093DE
:100B30007104709372046093730482E26EE674E051
:100B400046E00E94490E80E49CE90197F1F7089580
:100B500081E080936E0481E580936F0485E080934B
:100B6000700482E26EE674E043E00E94490E20EBDE
:100B700034E040E951E0CA010197F1F721503040DB
:100B8000D1F782E093E360E070E00E94900582E09C
:100B900091E361E071E00E94900581E090E061E006
:100BA00070E00E949005089581E080936E0481E5D5
:100BB00080936F0485E08093700482E26EE674E0B7
:100BC00043E00E94490E20EB34E040E951E0CA01C5
:100BD0000197F1F721503040D1F781E090E061E0DA
:100BE00070E00E949005089581E080936E0480E596
:100BF00080936F0485E08093700482E26EE674E077
:100C000043E00E94490E28EB3BE040E951E0CA0175
:100C10000197F1F721503040D1F781E090E061E099
:100C200070E00E949005089580E480936E04109215
:100C30006F0490916A0480916B0480937004909388
:100C400071041092720481E08093730482E26EE674
:100C500074E046E00E94490E20E233E040E951E0B2
:100C6000CA010197F1F721503040D1F7089580E48F
:100C700080936E0410926F049091680480916904CF
:100C80008093700490937104109272041092730414
:100C900010928F0482E26EE674E046E00E94490EF4
:100CA00080918F048823E1F3089580E280936E049D
:100CB00010926F049091FC018091FD01809370046B
:100CC000909371041092720410928F0482E26EE687
:100CD00074E045E00E94490E80918F048823E1F37F
:100CE000089580E180936E0482E26EE674E041E054
:100CF0000E94490E0E94450E8823E1F780EB94E0A4
:100D00000197F1F782E26FE774E048E00E945B0E22
:100D10000E94450E8823E1F781E892E00E94870750
:100D20008AEB92E00E94870783EF92E00E94870798
:100D30008091800490E067EC74E04AE050E00E940B
:100D4000EF1487EC94E00E9487078EE093E00E9406
:100D500087078091810490E067EC74E04AE050E0FE
:100D60000E94EF1487EC94E00E9487078EE292E0E5
:100D70000E948707089583E480936E0481E0809346
:100D80006F0482E26EE674E042E00E94490E0E9427
:100D9000450E8823E1F780EB94E00197F1F782E2BA
:100DA00067E774E048E00E945B0E089582E4809358
:100DB0006E0481E080936F0482E26EE674E042E0AC
:100DC0000E94490E0E94450E8823E1F780EB94E0D3
:100DD0000197F1F782E267E774E048E00E945B0E5A
:100DE000089582E280936E0481E080936F0482E232
:100DF0006EE674E042E00E94490E0E94450E882390
:100E0000E1F780EB94E00197F1F782E267E774E0A5
:100E100048E00E945B0E0E94450E8823E1F708958A
:100E200083E280936E0481E080936F0482E26EE639
:100E300074E042E00E94490E0E94450E8823E1F7CB
:100E400080EB94E00197F1F782E267E774E048E015
:100E50000E945B0E0E94450E8823E1F7089584E10D
:100E600080936E0482E26EE674E041E00E94490ED7
:100E70000E94450E8823E1F780EB94E00197F1F79B
:100E800082E260E974E041E00E945B0E0E94450E40
:100E90008823E1F78091900408958091FA01909160
:100EA000FB018130910551F181309105F0F00297FD
:100EB00041F460916A0470916B048CE694E00E94A6
:100EC00054178FE594E0609166040E94471781E112
:100ED00080936E0482E26EE674E041E00E94490E67
:100EE00088ED94E00197F1F708956091680470919E
:100EF000690484E694E00E945417E3CF6091FC01FA
:100F00007091FD0180E694E00E945417DACF0895B5
:100F10005D9BFECF8CB95D9BFECF0895CF93DF9391
:100F2000FC018081882339F0EF010E9488078981C4
:100F300021968823D1F7DF91CF910895CF93DF9346
:100F4000EC0105C02196F90184910E9488079E0159
:100F5000FE0184918823B1F7DF91CF9108958AB182
:100F600088618AB9E5E9F0E080818660808310922B
:100F7000900087E689B9089580E090E005C0019669
:100F80002EE38038920721F05F9BF9CF8CB1089552
:100F900080E00895811181E08FB9779BFECF6FB912
:100FA000779BFECF80916200886080936200809181
:100FB0006200877F8093620080EA9FE00197F1F7EB
:100FC00008950F931F93CF93DF938C01660F660FE5
:100FD000660F605C80E048EE53E00E94CA07C0E004
:100FE000D0E0F801EC0FFD1F81E0608144E650E0A5
:100FF0000E94CA072196C830D10599F7DF91CF9199
:101000001F910F910895605890E0019700249695E4
:1010100087950794969587950794982F802D680F4C
:1010200080E048EE53E00E94CA0708951F93182FEE
:10103000882359F1843678F48A30B8F4812F6AE035
:101040000E944814905D81E0692F44E650E00E94C0
:10105000CA071F91089564E60E944814682F605DD6
:1010600081E044E650E00E94CA07812F64E60E94B6
:101070004814892F6AE00E944814682F605D81E05F
:1010800044E650E00E94CA07D9CF81E060E344E61D
:1010900050E00E94CA071F9108951F93182F87FDE3
:1010A00004C00E9416081F91089581E06DE244E695
:1010B00050E00E94CA07812F81950E9416081F9157
:1010C000089580E06EE048EE53E00E94CA0708955C
:1010D00080E06CE048EE53E00E94CA07089580E08B
:1010E0006EE148EE53E00E94CA07089580E068E18F
:1010F00048EE53E00E94CA070895E2E6F0E08081DE
:10110000886080838081877F8083089580E061E0AC
:1011100040ED57E00E94CA07089580E062E04CED80
:1011200055E00E94CA07089580E060EC4CED55E060
:101130000E94CA070895FC0181E08FB9779BFECF1A
:1011400090914804E90FF11D80818FB9779BFECF04
:101150008091620088608093620080916200877F46
:1011600080936200892F8F5F80934804803159F00B
:10117000803209F0089585ED8A95F1F70E948D0877
:1011800010924804089585ED8A95F1F70E9494081D
:1011900008951F9310E081E060E244E650E00E9471
:1011A000CA071F5F1031B9F71F910895682F81E0BA
:1011B00044E650E00E94CA07089580E09AEF019744
:1011C000F1F788E08093610080E060E348E55BE14F
:1011D0000E94CA0780E060E348E55BE10E94CA071D
:1011E00080E060E348E55BE10E94CA0780E068E3D5
:1011F00048E853E10E94CA0780E068E048E853E10C
:101200000E94CA0780E061E048E853E10E94CA07F3
:1012100080E066E048E853E10E94CA0780E06CE0A5
:1012200045E050E00E94CA070895BF92CF92DF9236
:10123000EF92FF920F931F93DF93CF93CDB7DEB75B
:1012400061970FB6F894DEBF0FBECDBFB62E042F48
:10125000C22EDD2497FD80C09C01002309F056C0FA
:1012600010E07E010894E11CF11CC9016AE070E005
:101270000E946814262F372FF701E10FF11D805DC2
:1012800080831F5F2115310581F7CC2019F4DD2003
:1012900009F05AC0BB20B1F0CC2009F053C080E265
:1012A000E12FF0E06B2D70E06D197109E617F7077B
:1012B0004CF4EE0DFF1D80831F5FE12FF0E0E61779
:1012C000F707BCF3DD2031F0F701E10FF11D8DE2EE
:1012D00080831F5F1150F701E10FF11D81E06081F4
:1012E00048EE53E00E94CA071123A1F761960FB69A
:1012F000F894DEBF0FBECDBFCF91DF911F910F914C
:10130000FF90EF90DF90CF90BF90089510E07E01A6
:101310000894E11CF11CC9016AE070E00E946814A5
:10132000262F372FF701E10FF11D805D80831F5FAE
:10133000011789F7F701E00FF11D8EE28083102F6E
:101340001F5F93CF80E3ACCFF701E10FF11D8DE27A
:1013500080831F5FDD249ECFDD24D3942227332793
:10136000281B390B7ACF7F928F929F92AF92BF92B8
:10137000CF92DF92EF92FF920F931F93DF93CF9361
:10138000CDB7DEB7A1970FB6F894DEBF0FBECDBFC5
:101390005B016C01942E822E7E2C002309F0B3C0D9
:1013A0009B01AC01882009F073C010E07E01089415
:1013B000E11CF11CFAE1AF2EB12CAC0EBD1EE9E030
:1013C000CE2ED12CCC0EDD1ECA01B9012AE030E0B0
:1013D00040E050E00E947B142A8F3B8F4C8F5D8F42
:1013E0006E8F7F8F88A399A3D701F50188E00190C4
:1013F0000D928150E1F729813A814B815C81F601A0
:10140000E10FF11D8D81805D80831F5F2115310506
:1014100041055105C9F6912F992091F0772009F0E7
:1014200087C080E2191560F4F601E10FF11D808399
:101430001F5F1915C8F3192D1F5F190F9095190F0C
:10144000002331F0F601E10FF11D8DE280831F5F73
:101450001150F601E10FF11D81E0608148EE53E08B
:101460000E94CA071123A1F7A1960FB6F894DEBF18
:101470000FBECDBFCF91DF911F910F91FF90EF90E5
:10148000DF90CF90BF90AF909F908F907F90089506
:1014900010E07E010894E11CF11C7AE1A72EB12C2A
:1014A000AC0EBD1E69E0C62ED12CCC0EDD1ECA01CD
:1014B000B9012AE030E040E050E00E947B142A8F1E
:1014C0003B8F4C8F5D8F6E8F7F8F88A399A3D70141
:1014D000F50188E001900D928150E1F729813A8170
:1014E0004B815C81F601E10FF11D8D81805D808370
:1014F0001F5F8116E1F6F601E80DF11D8EE2808393
:10150000182D1F5F61CFDC01CB018827B7FD8395C4
:101510009927AA27BB27082FA6019501D7FE42CFFE
:1015200050954095309521953F4F4F4F5F4F3ACFA3
:1015300080E378CFFF920F931F93CF93DF938C01BB
:10154000FF24C0E0D0E0C00FD11F81E0688144E6F5
:1015500050E00E94CA07F394CF2DD0E0F80101902B
:101560000020E9F7E01BF10B3297EC17FD0758F765
:10157000DF91CF911F910F91FF90089510927C05FC
:1015800080E180937D0580E280937E0580E38093F7
:101590007F0580E48093800580EC8093700589EF5F
:1015A0008093710584EA8093720580EB80937305C4
:1015B00089E98093740582E98093750582E88093B8
:1015C000760588EF8093770590E89093780580E919
:1015D000809379058FEF80937A0580E787BB90939E
:1015E0006100E2E6F0E080818F778083089590E0EB
:1015F00049B3FC01EE0FFF1FE75BFB4F20813181F8
:10160000220F331F306E50E002C0559547958A95E2
:10161000E2F741705070242B352B3183208380E01A
:1016200020503F4F09F0089581E00895CF93DF9354
:101630009C016AE070E00E94541480938405C90103
:101640006AE070E00E945414CB016AE070E00E94EE
:101650005414809385058AE080938605C90164E669
:1016600070E00E945414CB016AE070E00E945414B0
:1016700080938705C90168EE73E00E945414CB0182
:101680006AE070E00E94541480938805C8E8D5E0B1
:1016900091E024E030E04FEF0AC0A881AA2351F482
:1016A000488391E0219721503040222399F09923DB
:1016B000A1F7A881223009F090E0F901EC57FA4F28
:1016C000B0E0A059BA4F8C918083219721503040CF
:1016D000222369F710926704E0918405F0E0E05955
:1016E000FA4F808180938405DF91CF9108950F9305
:1016F0001F93CF93DF931ABA8FEF8BBB88B318BABF
:1017000088B3806788BBC0E0D0E001E010E08C2F98
:101710000E94F70A882361F020916F05C8010C2E02
:1017200002C0880F991F0A94E2F7282720936F05BB
:101730002196C830D10559F788B318BA8FEF8ABB04
:10174000DF91CF911F910F91089563708370813065
:10175000C9F0813030F0823081F0833041F080E098
:101760000895613041F06230D1F782E00895613030
:10177000E1F36230A1F781E008956623E1F363307D
:1017800071F7F3CF662389F3633049F7F4CF2091E3
:1017900025043091260421303105D9F0213031055E
:1017A00068F48230F1F08091F901865F8093F9014D
:1017B0008A3018F48AEF8093F901089524303105B6
:1017C000E1F7823071F1809129048F5F80932904C1
:1017D0000895823001F18091C9018F5F8093C90122
:1017E00008951092330481E0809334048091FC01C9
:1017F0009091FD0144969093FD018093FC018A53E2
:101800009A42D8F2109234048AE39AE29093FD014E
:101810008093FC0108958091CA018F5F8093CA0173
:1018200008958091CB018F5F8093CB010895209123
:1018300025043091260421303105D1F021303105C5
:1018400060F48230E9F08091F9018A508093F901C7
:10185000813F10F01092F901089524303105E1F72D
:10186000823071F180912904815080932904089578
:10187000823001F18091C90181508093C90108959E
:101880001092330481E0809334048091FC019091A4
:10189000FD0144979093FD018093FC01875592428E
:1018A000D8F61092340486E592E29093FD0180937D
:1018B000FC0108958091CA0181508093CA01089566
:1018C0008091CB0181508093CB010895CF92DF921C
:1018D000EF92FF920F931F93CF93DF93209189058F
:1018E000922F9F7060915904862F8F70E92EFF24EC
:1018F000082F10E0E801CE25DF25CE01837090701F
:10190000892B09F05FC0CC70D070CD2B49F4DF91EA
:10191000CF911F910F91FF90EF90DF90CF9008959E
:10192000E701CC70D070CE019595879595958795F8
:101930001695079516950795602F0E94A50B813087
:1019400009F4AEC0823009F48BC080915B048695A7
:1019500080935B0480915A04869580935A04CC301E
:10196000D10509F48CC08091590485FF16C080917F
:101970005B04882309F4B1C080915B048F3108F0C7
:10198000D4C082E00E94C70B809159048F7D809360
:10199000590410925B0410925A04CD2B29F48091C3
:1019A000590480628093590480915904837F809305
:1019B000590480918905909159048C70892B8093EA
:1019C0005904A5CF6370822F83700E94A50B8130CC
:1019D00009F472C0823009F457C080915D04869585
:1019E00080935D0480915C04869580935C0433E071
:1019F000C32ED12CCE20DF2083E0C816D10409F4F9
:101A000067C08091590484FF16C080915D048330C3
:101A100008F477C080915D048F3108F08EC081E0BA
:101A20000E94C70B809159048F7E809359041092B5
:101A30005D0410925C04CD2829F4809159048061E2
:101A400080935904809159048C7F8093590480912C
:101A50008905909159048370892B8093590453CF41
:101A600080915B04869580935B0480915A04880F73
:101A7000816080935A04CC30D10509F074CF109264
:101A80005B0410925A046FCF80915D048695809319
:101A90005D0480915C04880F816080935C04A7CF13
:101AA00080915B04880F816080935B0480915A046D
:101AB000869580935A0453CF80915D04880F81608E
:101AC00080935D0480915C04869580935C048FCF45
:101AD00010925D0410925C0494CF80915A04882384
:101AE00009F45BCF80915A048F3138F080915A0409
:101AF0008F3398F582E00E94170C82E00E94170C49
:101B000043CF80915C04833008F495CF80915C04CE
:101B10008F3138F080915C048F3318F581E00E949A
:101B2000170C81E00E94170C7DCF80915B048F33EE
:101B300060F482E00E94C70B24CF80915D048F3354
:101B400040F481E00E94C70B6ACF82E00E94C70B7D
:101B5000F0CF81E00E94C70BF4CF82E00E94170C07
:101B6000C9CF81E00E94170CD9CF1F920F920FB6F8
:101B70000F920BB60F9211242F933F938F939F9345
:101B8000EF93FF9380917100883209F45DC0893230
:101B9000C8F0803409F440C0813408F44FC0803567
:101BA00069F18835B9F480915E04E0918B05F0917C
:101BB0008C05E80FF11D80917300808384E9809388
:101BC00074000FC0803109F456C08831E9F18830C3
:101BD00009F451C08091710080938A0584E080935C
:101BE0007400FF91EF919F918F913F912F910F90F2
:101BF0000BBE0F900FBE0F901F90189580915E0442
:101C0000E0918B05F0918C05E80FF11D9091730028
:101C100090838F5F80935E0480918E0520915E0497
:101C200030E090E001972817390724F485EC809381
:101C30007400D7CF85E880937400D3CF883351F6F2
:101C400085EA80937400CDCF90915E0480918E05DB
:101C5000981708F0B3CFE0918B05F0918C05E90F50
:101C6000F11D8081809373009F5F90935E0485E8EF
:101C700080937400B6CF80918D058093730010928D
:101C80005E0485E880937400ACCF8091740081700D
:101C90000895982F8091740080FDFCCF9E7F9093D3
:101CA0008D0570938C0560938B0540938E0585EAB6
:101CB000809374000895982F8091740080FDFCCF6C
:101CC000916090938D0570938C0560938B05409384
:101CD0008E0585EA8093740008958FEF80937300DA
:101CE000109271008CE08093700008951F93CF9341
:101CF000DF93EC0177FD2AC0660F672F661F770B15
:101D00007195162F4423B1F070E0882777FD8095F8
:101D1000982F0E94FA1126E636E646EE5FE30E940F
:101D2000541020E030E040E052E40E9427100E946E
:101D30005812162F812F90E0BE014AE050E00E9419
:101D4000EF14812FDF91CF911F91089510E080E073
:101D500090E0F2CFA0E0B0E0E0EBFEE00C94B8142D
:101D6000DC012B01FA019C91923008F439C1EB019E
:101D70008881823008F433C1943069F4843009F0EA
:101D80002FC111969C9111978981981709F428C148
:101D9000ACE1B3E025C1843009F421C18230A9F45B
:101DA000923009F01DC19A01AD0188E0EA01099065
:101DB000AE01E90109929E018150C1F7E2018981DA
:101DC00011969C918923818308C1923009F407C13F
:101DD00012962D903C901397EB018A819B8114966B
:101DE000AD90BD90CD90DC901797EC80FD800E817A
:101DF0001F819101281B390BB90137FF04C06627E9
:101E00007727621B730B603271050CF061C01216EC
:101E100013066CF537014801062E04C0969487948A
:101E2000779467940A94D2F721E030E040E050E0E4
:101E300004C0220F331F441F551F6A95D2F721504B
:101E40003040404050402E213F2140235123211556
:101E500031054105510521F021E030E040E050E03E
:101E600079018A01E628F728082919293CC0232B83
:101E7000D1F1260E371E35014601062E04C0969478
:101E80008794779467940A94D2F721E030E040E099
:101E900050E004C0220F331F441F551F6A95D2F72C
:101EA00021503040404050402A213B214C215D21AF
:101EB000211531054105510521F021E030E040E0D8
:101EC00050E059016A01A628B728C828D9280BC0B4
:101ED000821593052CF01C01AA24BB24650103C0C4
:101EE000EE24FF24870111969C91D20111968C91CA
:101EF000981709F445C0992339F0A80197012A19C8
:101F00003B094C095D0906C0A60195012E193F0940
:101F1000400B510B57FD08C011823382228224836B
:101F20003583468357831DC081E0818333822282BB
:101F300088279927DC01821B930BA40BB50B8483A4
:101F40009583A683B7830DC0220F331F441F551FEF
:101F500024833583468357838281938101979383BA
:101F600082832481358146815781DA01C901019735
:101F7000A109B1098F5F9F4FAF4FBF4328F30BC03B
:101F8000918333822282EA0CFB1C0C1D1D1DE4820E
:101F9000F5820683178383E080832481358146811F
:101FA000578157FF1AC0C901AA2797FDA095BA2FDC
:101FB00081709070A070B0705695479537952795B1
:101FC000822B932BA42BB52B84839583A683B78375
:101FD00082819381019693838283DF0101C0D201C4
:101FE000CD01CDB7DEB7E2E10C94D414A0E2B0E0AD
:101FF000ECEFFFE00C94C41469837A838B839C8399
:102000002D833E834F835887E9E0EE2EF12CEC0EB2
:10201000FD1ECE010196B7010E94D0138E010F5E06
:102020001F4FCE010596B8010E94D0138A8991E016
:1020300089278A8BC701B801AE01475E5F4F0E94B6
:10204000AA0E0E94FB12A096E6E00C94E014A0E217
:10205000B0E0EDE2F0E10C94C41469837A838B83E1
:102060009C832D833E834F835887F9E0EF2EF12C1C
:10207000EC0EFD1ECE010196B7010E94D0138E0119
:102080000F5E1F4FCE010596B8010E94D013C70105
:10209000B801AE01475E5F4F0E94AA0E0E94FB127C
:1020A000A096E6E00C94E014A0E2B0E0EAE5F0E1EE
:1020B0000C94B81469837A838B839C832D833E832D
:1020C0004F835887CE010196BE01675F7F4F0E9404
:1020D000D013CE010596BE016F5E7F4F0E94D013D4
:1020E0009985923088F089898230C8F0943019F44B
:1020F000823051F404C0843029F4923081F48CE1B0
:1021000093E0C6C0923049F420E09A858A899813FA
:1021100021E02A87CE010996BBC0823049F420E035
:102120009A858A89981321E02A8BCE014196B0C006
:102130002D843E844F8458886D887E888F88988C43
:10214000EE24FF248701AA24BB24650140E050E06F
:1021500060E070E0E0E0F0E0C10181709070892BF8
:10216000E9F0E60CF71C081D191D9A01AB012A0DB8
:102170003B1D4C1D5D1D80E090E0A0E0B0E0E6144A
:10218000F7040805190520F481E090E0A0E0B0E034
:10219000BA01A901480F591F6A1F7B1FAA0CBB1C5B
:1021A000CC1CDD1C97FE08C081E090E0A0E0B0E010
:1021B000A82AB92ACA2ADB2A3196E032F10549F069
:1021C000660C771C881C991C569447943794279466
:1021D000C3CFFA85EA892B893C898B859C85280F9A
:1021E000391F2E5F3F4F17C0CA0181709070892B35
:1021F00061F016950795F794E79480E090E0A0E0F1
:10220000B0E8E82AF92A0A2B1B2B76956795579593
:1022100047952F5F3F4F77FDE7CF0CC0440F551F09
:10222000661F771F17FD4160EE0CFF1C001F111F7A
:1022300021503040403090E0590790E0690790E429
:10224000790760F32B8F3C8FDB01CA018F77907089
:10225000A070B07080349105A105B10561F447FD0F
:102260000AC0E114F1040105110529F0405C5F4F3B
:102270006F4F7F4F40781A8EFE1711F081E08A8FE2
:102280004D8F5E8F6F8F78A383E0898FCE01499643
:102290000E94FB12A096E2E10C94D414A8E1B0E0F5
:1022A000E4E5F1E10C94C01469837A838B839C8309
:1022B0002D833E834F835887B9E0EB2EF12CEC0E33
:1022C000FD1ECE010196B7010E94D0138E010F5E54
:1022D0001F4FCE010596B8010E94D01329852230E8
:1022E00008F47EC03989323010F4B8017CC08A8588
:1022F0009A8989278A87243011F0223031F42317F4
:1023000009F06EC06CE173E06EC0343039F41D86A4
:102310001E861F86188A1C861B8604C0323021F454
:1023200084E08987B7015FC02B853C858B899C89B8
:10233000281B390B3C872B87ED84FE840F85188979
:10234000AD88BE88CF88D88CEA14FB040C051D0527
:1023500040F4EE0CFF1C001F111F215030403C8741
:102360002B8720E030E040E050E080E090E0A0E00B
:10237000B0E460E070E0EA14FB040C051D0540F0D9
:10238000282B392B4A2B5B2BEA18FB080C091D095B
:10239000B695A79597958795EE0CFF1C001F111F0A
:1023A0006F5F7F4F6F31710531F7DA01C9018F77A8
:1023B0009070A070B07080349105A105B10561F4F2
:1023C00027FD0AC0E114F1040105110529F0205C84
:1023D0003F4F4F4F5F4F20782D873E874F87588B59
:1023E000BE01675F7F4FCB010E94FB126896EAE057
:1023F0000C94DC14A8E0B0E0E0E0F2E10C94C1142D
:102400009B01AC0183E08983DA01C9018827B7FD0C
:1024100083959927AA27BB27B82E21153105410599
:10242000510519F482E089833AC08823A9F020304D
:1024300080E0380780E0480780E8580729F460E02A
:1024400070E080E09FEC30C0EE24FF248701E21AA8
:10245000F30A040B150B02C079018A018EE1C82E24
:10246000D12CDC82CB82ED82FE820F831887C801DB
:10247000B7010E94AC1201971816190684F4082EB1
:1024800004C0EE0CFF1C001F111F0A94D2F7ED824E
:10249000FE820F831887C81AD90ADC82CB82BA82DF
:1024A000CE0101960E94FB122896E9E00C94DD14FF
:1024B000ACE0B0E0EEE5F2E10C94C81469837A83F5
:1024C0008B839C83CE010196BE016B5F7F4F0E9480
:1024D000D0138D81823061F1823050F1843021F44B
:1024E0008E81882351F12EC02F81388537FD20C081
:1024F0006E812F3131051CF06623F9F023C08EE187
:1025000090E0821B930B29853A854B855C8504C03E
:1025100056954795379527958A95D2F76623B1F05A
:1025200050954095309521953F4F4F4F5F4F0EC0CE
:1025300020E030E040E050E009C02FEF3FEF4FEFE8
:102540005FE704C020E030E040E050E8B901CA0194
:102550002C96E2E00C94E414EF92FF920F931F93F9
:102560007B018C0180E0E81680E0F80681E0080736
:1025700080E0180788F48FEFE816F10401051105D3
:1025800031F028F088E090E0A0E0B0E017C080E0F3
:1025900090E0A0E0B0E012C080E0E81680E0F8062D
:1025A00080E0080781E0180728F088E190E0A0E0CB
:1025B000B0E004C080E190E0A0E0B0E020E230E0D4
:1025C00040E050E0281B390B4A0B5B0B04C016950A
:1025D0000795F794E7948A95D2F7F701EC5DFC4FE5
:1025E0008081281B310941095109C9011F910F91AF
:1025F000FF90EF900895DF92EF92FF920F931F9359
:10260000FC01E480F58006811781D18080818230D1
:1026100048F480E090E0A0E1B0E0E82AF92A0A2B33
:102620001B2BA5C0843009F49FC0823021F4EE2416
:10263000FF24870105C0E114F1040105110519F417
:10264000E0E0F0E096C0628173819FEF6238790725
:102650000CF05BC022E83FEF261B370B2A31310517
:102660002CF020E030E040E050E02AC0B801A701A3
:10267000022E04C076956795579547950A94D2F730
:1026800081E090E0A0E0B0E004C0880F991FAA1F8D
:10269000BB1F2A95D2F70197A109B1098E219F216D
:1026A000A023B1230097A105B10521F081E090E0BE
:1026B000A0E0B0E09A01AB01282B392B4A2B5B2B11
:1026C000DA01C9018F779070A070B07080349105E5
:1026D000A105B10539F427FF09C0205C3F4F4F4FDA
:1026E0005F4F04C0215C3F4F4F4F5F4FE0E0F0E091
:1026F0002030A0E03A07A0E04A07A0E45A0710F013
:10270000E1E0F0E079018A0127C06038710564F5E5
:10271000FB01E158FF4FD801C7018F779070A0707F
:10272000B07080349105A105B10539F4E7FE0DC004
:1027300080E490E0A0E0B0E004C08FE390E0A0E08F
:10274000B0E0E80EF91E0A1F1B1F17FF05C0169503
:102750000795F794E794319687E016950795F794D7
:10276000E7948A95D1F705C0EE24FF248701EFEFA7
:10277000F0E06E2F679566276795902F9F77D79427
:10278000DD24D7948E2F8695492F462B582F5D290F
:10279000B701CA011F910F91FF90EF90DF9008954C
:1027A000FC01DB01408151812281622F6F7770E053
:1027B000221F2227221F9381892F880F822B282FE7
:1027C00030E0991F9927991F11969C931197211515
:1027D0003105A9F5411551056105710511F482E036
:1027E00037C082E89FEF13969C938E9312979A01BD
:1027F000AB0167E0220F331F441F551F6A95D1F7C5
:1028000083E08C930DC0220F331F441F551F129677
:102810008D919C911397019713969C938E93129789
:10282000203080E0380780E0480780E4580758F3FC
:1028300014962D933D934D935C93179708952F3FD6
:10284000310579F4411551056105710519F484E0EC
:102850008C93089564FF03C081E08C9312C01C9296
:1028600010C02F57304013963C932E93129783E05D
:102870008C9387E0440F551F661F771F8A95D1F709
:10288000706414964D935D936D937C9317970895A0
:10289000991B79E004C0991F961708F0961B881FB2
:1028A0007A95C9F780950895AA1BBB1B51E107C013
:1028B000AA1FBB1FA617B70710F0A61BB70B881FD0
:1028C000991F5A95A9F780959095BC01CD0108955F
:1028D00097FB092E07260AD077FD04D0E5DF06D046
:1028E00000201AF4709561957F4F0895F6F7909542
:1028F00081959F4F089597FB092E05260ED057FD11
:1029000004D014D00AD0001C38F45095409530956E
:1029100021953F4F4F4F5F4F0895F6F79095809563
:10292000709561957F4F8F4F9F4F0895A1E21A2EAA
:10293000AA1BBB1BFD010DC0AA1FBB1FEE1FFF1F63
:10294000A217B307E407F50720F0A21BB30BE40BB3
:10295000F50B661F771F881F991F1A9469F76095FA
:102960007095809590959B01AC01BD01CF010895B4
:102970002F923F924F925F926F927F928F929F928F
:10298000AF92BF92CF92DF92EF92FF920F931F937D
:10299000CF93DF93CDB7DEB7CA1BDB0B0FB6F8942E
:1029A000DEBF0FBECDBF09942A88398848885F846E
:1029B0006E847D848C849B84AA84B984C884DF80DF
:1029C000EE80FD800C811B81AA81B981CE0FD11DC3
:1029D0000FB6F894DEBF0FBECDBFED010895FB0129
:1029E0009F01E8944230C4F04532B4F44A3029F4EF
:1029F00097FB1EF4909581959F4F642F77270E9437
:102A00005414805D8A330CF0895D8193CB0100976B
:102A1000A1F716F45DE251931082C9010C946F176F
:102A20000F931F93DF93CF93CDB7DEB72E970FB6DB
:102A3000F894DEBF0FBECDBF0D891E8986E08C8362
:102A40001A8309838FEF9FE79E838D839E01275E04
:102A50003F4FCE0101966F89788DA9010E944115E3
:102A60002F813885020F131FF80110822E960FB6A2
:102A7000F894DEBF0FBECDBFCF91DF911F910F91B4
:102A800008952F923F924F925F926F927F928F9212
:102A90009F92AF92BF92CF92DF92EF92FF920F93ED
:102AA0001F93DF93CF93CDB7DEB72B970FB6F89474
:102AB000DEBF0FBECDBF3C012B015A01FC011782C6
:102AC0001682838181FD03C06FEF7FEFC6C19AE05C
:102AD000892E1E010894211C311CF3012381F2016F
:102AE00023FD859123FF81912F01882309F4B2C131
:102AF000853239F423FD859123FF81912F018532A1
:102B000029F490E0B3010E947F17E7CF982FFF24AC
:102B1000EE249924FFE1FF15D0F09B3269F09C323E
:102B200028F4903259F0933291F40EC09D3249F05E
:102B3000903369F441E024C052E0F52A84E0F82A99
:102B400028C098E0F92A25C0E0E1FE2A22C0F7FC5F
:102B500029C0892F80538A3070F4F6FE05C0989CF6
:102B6000902C1124980E15C0E89CE02C1124E80E3E
:102B7000F0E2FF2A0EC09E3229F4F6FC6BC140E45D
:102B8000F42A07C09C3619F450E8F52A02C098369A
:102B900049F4F20123FD959123FF91912F0199238F
:102BA00009F0B8CF892F8554833018F080528330D4
:102BB00038F444E050E0A40EB51E5FE359830FC023
:102BC000933631F0933779F0933509F056C020C031
:102BD000F5018081898342E050E0A40EB51E6101B9
:102BE00001E010E012C0F501C080D180F6FC03C006
:102BF0006FEF7FEF02C0692D70E042E050E0A40E5D
:102C0000B51EC6010E9464178C015FE7F52214C04F
:102C1000F501C080D180F6FC03C06FEF7FEF02C0EA
:102C2000692D70E042E050E0A40EB51EC6010E947E
:102C300059178C0150E8F52AF3FE07C01AC080E24C
:102C400090E0B3010E947F17EA948E2D90E0081760
:102C50001907A8F30EC0F601F7FC8591F7FE8191E4
:102C60006F0190E0B3010E947F17E110EA940150D8
:102C700010400115110579F7EAC0943611F0993624
:102C800069F5F7FE08C0F501208131814281538149
:102C900084E090E00AC0F501808191819C01442785
:102CA00037FD4095542F82E090E0A80EB91E9FE6B4
:102CB000F92257FF09C050954095309521953F4F17
:102CC0004F4F5F4FE0E8FE2ACA01B901A1012AE097
:102CD00030E00E94AB17D82ED21840C0953729F4A7
:102CE0001F2D1F7E2AE030E01DC01F2D197F9F364B
:102CF00061F0903720F4983509F0ACC00FC09037E0
:102D000039F0983709F0A6C004C028E030E00AC0C6
:102D1000106114FD146020E130E004C014FD166061
:102D200020E132E017FF08C0F501608171818281E6
:102D3000938144E050E008C0F50180819181BC019D
:102D400080E090E042E050E0A40EB51EA1010E9498
:102D5000AB17D82ED2188FE7F82EF122F6FE0BC053
:102D60005EEFF522D91438F4F4FE07C0F2FC05C07A
:102D70008FEEF82202C01D2D01C0192DF4FE0DC0EA
:102D8000FE01ED0DF11D8081803319F499EEF922D9
:102D900008C01F5FF2FE05C003C08F2D867809F0C2
:102DA0001F5F0F2DF3FC14C0F0FE0FC01E1510F0B6
:102DB0009D2C0BC09D2C9E0C911A1E2D06C080E2EE
:102DC00090E0B3010E947F171F5F1E15C0F304C07F
:102DD0001E1510F4E11A01C0EE2404FF0FC080E3B9
:102DE00090E0B3010E947F1702FF1DC001FD03C0E8
:102DF00088E790E00EC088E590E00BC0802F8678D1
:102E000091F001FF02C08BE201C080E2F7FC8DE28D
:102E100090E0B3010E947F1706C080E390E0B30109
:102E20000E947F179A94D914C0F3DA94F101ED0D42
:102E3000F11D808190E0B3010E947F17DD20A9F78A
:102E400006C080E290E0B3010E947F17EA94EE2072
:102E5000C1F743CEF30166817781CB012B960FB684
:102E6000F894DEBF0FBECDBFCF91DF911F910F91C0
:102E7000FF90EF90DF90CF90BF90AF909F908F909A
:102E80007F906F905F904F903F902F900895262FE6
:102E9000E199FECF9FBB8EBB2DBB0FB6F894E29A93
:102EA000E19A0FBE019608950E944717272F0C94B0
:102EB0004817FC010590615070400110D8F78095CB
:102EC00090958E0F9F1F0895FC01615070400190F6
:102ED0000110D8F7809590958E0F9F1F0895DC0103
:102EE000FC01672F71917723E1F7329704C07C9141
:102EF0006D9370836291AE17BF07C8F308950F9367
:102F00001F93CF93DF938C01EB018B8181FF1BC05B
:102F100082FF0DC02E813F818C819D81281739074A
:102F200064F4E881F9810193F983E88306C0E885B8
:102F3000F985802F0995892B31F48E819F81019627
:102F40009F838E8302C00FEF1FEFC801DF91CF91E7
:102F50001F910F910895FA01AA27283051F12031CD
:102F600081F1E8946F936E7F6E5F7F4F8F4F9F4F1D
:102F7000AF4FB1E03ED0B4E03CD0670F781F891F5F
:102F80009A1FA11D680F791F8A1F911DA11D6A0F2D
:102F9000711D811D911DA11D20D009F468943F91E0
:102FA0002AE0269F11243019305D3193DEF6CF01DF
:102FB0000895462F4770405D4193B3E00FD0C9F7A5
:102FC000F6CF462F4F70405D4A3318F0495D31FD12
:102FD0004052419302D0A9F7EACFB4E0A695979565
:102FE000879577956795BA95C9F70097610571053B
:102FF00008959B01AC010A2E069457954795379585
:103000002795BA95C9F7620F731F841F951FA01DDE
:063010000895F894FFCFC3
:103016005369676E616C202020202020202020200C
:1030260000557365206469616C7320746F202020DD
:1030360020006368616E67652074696D65202020D5
:103046002020002020202020414C41524D212020CC
:103056002020200020202028536E6F6F7A653F299C
:1030660020202020006368616E676520616C6172B4
:103076006D2020202000536E6F6F7A696E672E2EAA
:103086002E2E2E2E2E2E007A7A5A7A7A5A5A5A7A5C
:103096007A7A5A7A5A5A7A002020202057656C6329
:1030A6006F6D6520202020200020285374617465F0
:1030B600206572726F7229202000493D2564204FD9
:1030C6003D257300257320563D2564252500252DB5
:1030D600313673003F3F000190010C0C0C0C015778
:1030E600656C636F6D6500CF01CF0154656D7065CA
:1030F60072617475726500DB01566F6C756D6500E3
:10310600E9015541525400F20164010086296E6FAF
:103116002100000000000000000000000000464DF5
:103126005F5253515F5354415455533A20007374C0
:103136006174757320627974652020203A000A0D47
:103146000072657370312020202020202020203A34
:103156000066726571202020202020202020203A41
:103166000066726571206869676820202020203A11
:103176000066726571206C6F772020202020203A2F
:103186000072737369202020202020202020203AFE
:1031960000536934373334205265763A20206C6107
:1031A6007374203220646967697473206F662070B7
:1031B600617274206E6F2E20202063686970207201
:1031C600657620202020200A0D00202020202020A7
:1031D600202020202020202D2D2D2D2D2D2D2D2D74
:1031E6002D2D2D2D2D2D2D2D2D2D2D2D2D2D2D2D09
:1031F6002020202D2D2D2D2D2D2D2D202020202061
:103206000A0D002020202020202020202020202001
:1032160020202020202020202020202020002020C8
:103226002020202020202020202020000000000038
:103236000000000000010202030303030404040467
:10324600040404040505050505050505050505052C
:10325600050505050606060606060606060606060C
:1032660006060606060606060606060606060606F8
:1032760006060606070707070707070707070707DC
:1032860007070707070707070707070707070707C8
:1032960007070707070707070707070707070707B8
:1032A60007070707070707070707070707070707A8
:1032B600070707070808080808080808080808088C
:1032C6000808080808080808080808080808080878
:1032D6000808080808080808080808080808080868
:1032E6000808080808080808080808080808080858
:1032F6000808080808080808080808080808080848
:103306000808080808080808080808080808080837
:103316000808080808080808080808080808080827
:103326000808080808080808080808080808080817
:043336000808080873
:00000001FF
