S0140000746865726D6F335F736B656C2E7372656340
S11300000C9497000C94A9000C94A9000C94A900DA
S11300100C94A9000C94A9000C94A9000C94A900B8
S11300200C94A9000C94A9000C94A9000C94A900A8
S11300300C94A9000C94A9000C94A9000C94A90098
S11300400C94A9000C94A9000C94A9000C94A90088
S11300500C94A9000C94A9000C94A9000C94A90078
S11300600C94A9000C94A9000C94A9000C94A90068
S11300700C94A9000C94A9000C94A9000C94A90058
S11300800C94A9000C94CD030C94A9000E04E50370
S1130090E503E503E503E503E503E5030E04E503F2
S11300A0E503E503E503E503E503E5031804E503D8
S11300B0E503E503E503E503E503E503E503E503FC
S11300C0E503E503E503E503E503E5031804E503B8
S11300D0E503E503E503E503E503E503E503E503DC
S11300E0E503E503E503E503E503E5032F04E50381
S11300F0E503E503E503E503E503E5033304E5036D
S1130100E503E503E503E503E503E503E503E503AB
S1130110E503E503E503E503E503E5034104E5033E
S1130120E503E503E503E503E503E503FF03112424
S11301301FBECFEFD0E1DEBFCDBF21E0A0E0B1E034
S113014001C01D92AC33B207E1F70E948B040C94FA
S11301507D050C94000087B3876087BB80E58DB96B
S113016081E08EB9089591E0811101C090E09FB9BA
S1130170779BFECF6FB9779BFECF8091620088603A
S11301808093620080916200877F8093620008956B
S1130190CF93C09100018C0F911DFC01608181E01F
S11301A00E94B30081E08C0F80930001803181F0C4
S11301B0803211F0CF91089585ED8A95F1F7000012
S11301C060E880E00E94B30010920001CF9108958E
S11301D0F5EDFA95F1F7000060EC80E00E94B300C1
S11301E080910001E5CFEF92FF920F931F93CF937D
S11301F0DF931F92CDB7DEB7182F660F660F660F19
S1130200605C80E099830E94B30085ED8A95F1F7E4
S11302100000E12E9981F92E8701085F1F4FF70135
S113022061917F0181E00E94B300F5EDFA95F1F749
S11302300000E016F10699F70F90DF91CF911F911E
S11302400F91FF90EF90089590E4899F600D112421
S1130250605C80E00C94B300CF938823B9F1C82F7D
S1130260843698F48A30D8F48DECC89F812D1124FB
S11302708695869586956C2F2AE0829F60191124B5
S1130280605D81E0CF910C94B30069E2869F612D9B
S1130290112462956F70605D81E00E94B30089E271
S11302A0C89F812D112482958F709C2F24E6829FF4
S11302B0901911246DEC969F612D11246695669515
S11302C06695605D81E00E94B300CECF60E381E07B
S11302D0CF910C94B300CF9387FD03C0CF910C94BE
S11302E02C01C82F6DE281E00E94B30085ED8A9550
S11302F0F1F700008C2F8195CF910C942C016EE0C6
S113030080E00C94B3006CE080E00C94B3006EE1E8
S113031080E00C94B30068E180E00C94B300E2E662
S1130320F0E08081886080838081877F8083089566
S113033061E080E00E94B3008FE19CE10197F1F756
S113034000C00000089562E080E00E94B3008FE6E0
S113035097E10197F1F700C00000089560EC80E098
S11303600C94B30060E880E00C94B300CF93C0E138
S113037060E281E00E94B30085ED8A95F1F7000008
S1130380C150B1F7CF910895682F81E00C94B30068
S11303900F931F93CF938C0140E050E0C0E0F8012D
S11303A0E40FF51F608181E00E94B30085ED8A951A
S11303B0F1F70000CF5F4C2F50E0F80101900020CE
S11303C0E9F79F01201B310B22503109241735070F
S11303D030F7CF911F910F9108958FEF99EF019707
S11303E0F1F700C0000088E08093610060E380E0E2
S11303F00E94B3008FE59DE60197F1F700C000006D
S113040060E380E00E94B3008FE59DE60197F1F779
S113041000C0000060E380E00E94B3008FE59DE629
S11304200197F1F700C0000068E380E00E94B30088
S11304308FE19EE40197F1F700C0000068E080E0DE
S11304400E94B3008FE19EE40197F1F700C0000021
S113045061E080E00E94B3008FE19EE40197F1F730
S113046000C0000066E080E00E94B3008FE19EE4DB
S11304700197F1F700C000006CE080E00E94B30037
S11304808FE19EE40197F1F700C0000008958F9278
S11304909F92AF92BF92CF92DF92EF92FF920F930F
S11304A01F93CF93DF93CDB7DEB769970FB6F89458
S11304B0DEBF0FBECDBFF42E122F002359F04B0127
S11304C05C018824B7FC83949924AA24BB24082DB6
S11304D097FD8FC0112309F484C09E012F5F3F4F05
S11304E06901590188248A94810E912C3FEF831A63
S11304F0930A8C0C9D1C2AE030E040E050E00E94FE
S1130500EA04E62F2A8B3B8B4C8B5D8B6A897B89B3
S11305108C899D8920E32E0FF50121935F01E81555
S1130520F90549F7BB24B394B10EF601E10FF11DAF
S11305302EE220832AE030E040E050E00E94EA040A
S1130540E62F2A8B3B8B4C8B5D8B6E8B7F8B888F3E
S1130550998F6A897B898C899D8911E01B0DD6014D
S1130560AB0DB11DE05DEC93B12E611571058105F4
S1130570910501F7FF2061F0E11039C080E21F15F9
S113058038F4F601E10FF11D80831F5F1F11F9CFCD
S1130590002331F0F601E10FF11D8DE280831F5F2E
S11305A01150F601E10FF11D608181E00E94B3005A
S11305B035ED3A95F1F700001111F2CF69960FB6B7
S11305C0F894DEBF0FBECDBFDF91CF911F910F9185
S11305D0FF90EF90DF90CF90BF90AF909F908F905F
S11305E00895B12C9E012F5F3F4F6901A3CF80E393
S11305F0C6CF90958095709561957F4F8F4F9F4F93
S113060069CF5F926F927F928F929F92AF92BF92C7
S1130610CF92DF92EF92FF920F931F93CF93DF93CA
S1130620CDB7DEB761970FB6F894DEBF0FBECDBF6E
S1130630A62E542E622E792E771C7724771CB72C85
S1130640C72CD12CEE27FF27EC19FD098E279F27F5
S1130650FC01EC0DFD1D442309F48EC0CE0101966E
S11306607C018C0188248A94840E912C9FEF891A32
S1130670990A8E0C9F1C6AE070E0CF010E94D60498
S1130680262FE22FF72F805DD8018D938D01A815B9
S1130690B90589F701E0050DD701A50DB11D8EE25D
S11306A08C936AE070E0CF010E94D604262FE22FDB
S11306B0F72F11E0100FD701A00FB11D805D8C93AF
S11306C0012F309771F7611015C0772039F011E0D0
S11306D0100FF701E00FF11D8DE28083AA2041F194
S11306E0812F90E02A2D30E0821793070CF5B12C6E
S11306F040E20CC0AA20A1F0812F90E02A2D30E026
S11307002C193D09821793075CF440E31F5FF7013E
S1130710E80FF91F4083812F90E082179307B4F309
S1130720BB2031F0F701E10FF11D8DE280831F5FE3
S11307301150F701E10FF11D608181E00E94B300C7
S113074095ED9A95F1F700001111F2CF61960FB66D
S1130750F894DEBF0FBECDBFDF91CF911F910F91F3
S1130760FF90EF90DF90CF90BF90AF909F908F90CD
S11307707F906F905F90089500E0CE0101967C0118
S113078090CF9B014AE0BC01C901880F892F881FC3
S1130790990B0E94480580E008951F920F920FB6AE
S11307A00F9211240BB60F922F933F938F939F9325
S11307B0AF93BF93EF93FF93E09171008E2F90E07E
S11307C0FC013897E135F105B0F080917100809318
S11307D0370184E080937400FF91EF91BF91AF9152
S11307E09F918F913F912F910F900BBE0F900FBE51
S11307F00F901F901895EA5BFF4F0C9409058091A8
S11308000101E0913801F0913901E80FF11D809167
S11308107300808384E980937400DECF80913A0171
S1130820809373001092010185E880937400D4CF03
S11308308091010190913B01891760F7E0913801A3
S1130840F091390191E0980F90930101E80FF11DA7
S113085080818093730085E880937400BDCF85EA1E
S113086080937400B9CF2091010180913B0130E065
S113087090E0019728173907DCF485EC8093740025
S1130880ABCFE0913801F09139018091010121E071
S1130890280F20930101E80FF11D809173008083DC
S11308A080913B0130E090E00197281739072CF341
S11308B085E88093740090CF8091740081700895CE
S11308C09091740090FDFCCF8E7F80933A017093D9
S11308D039016093380140933B0185EA80937400A9
S11308E008959091740090FDFCCF816080933A014B
S11308F0709339016093380140933B0185EA8093FA
S1130900740008958FEF80937300109271008CE04F
S1130910809370000895CF93DF9300D0CDB7DEB7F6
S113092087B3876087BB80E58DB981E08EB90E946B
S1130930ED010E949801789489E48093330142E0A8
S113094063E371E080E90E9460048FE39FE1019713
S1130950F1F700C000000E9498019FEF21EE84E0AF
S1130960915020408040E1F700C000000E949801AF
S113097042E065E371E080E90E9471048FE39FE146
S11309800197F1F700C000006091350170E0762F07
S1130990662780913601682B41E0CE0101960E94C2
S11309A0C103CE0101960E94C801D7CF97FB072E41
S11309B016F4009407D077FD09D00E94120507FCB5
S11309C005D03EF4909581959F4F0895709561955B
S11309D07F4F0895052E97FB1EF400940E94010595
S11309E057FD07D00E94260507FC03D04EF40C9453
S11309F0010550954095309521953F4F4F4F5F4FDE
S1130A00089590958095709561957F4F8F4F9F4F76
S1130A100895EE0FFF1F0024001C0BBE0790F691F3
S1130A20E02D0994AA1BBB1B51E107C0AA1FBB1FE1
S1130A30A617B70710F0A61BB70B881F991F5A9566
S1130A40A9F780959095BC01CD010895A1E21A2ED5
S1130A50AA1BBB1BFD010DC0AA1FBB1FEE1FFF1F5E
S1130A60A217B307E407F50720F0A21BB30BE40BAE
S1130A70F50B661F771F881F991F1A9469F76095F5
S1130A807095809590959B01AC01BD01CF010895AF
S1130A90BB274A3031F4992322F4BDE29095819525
S1130AA09F4F0C945405BB27FB015527AA27880F99
S1130AB0991FAA1FA41710F0A41B83955051B9F7CE
S1130AC0A05DAA3308F0A95DA193009779F7B1114D
S1130AD0B1931192CB010C946D05DC01FC01672FDD
S1130AE071917723E1F7329704C07C916D93708301
S1110AF06291AE17BF07C8F30895F894FFCFC4
S9030000FC
