:100000000C9446000C9465000C9465000C946500FB
:100010000C9465000C9465000C9465000C946500CC
:100020000C9465000C9465000C9465000C946500BC
:100030000C940F010C9465000C9465000C94650001
:100040000C94AC000C9465000C9465000C94650055
:100050000C9465000C9465000C9465000C9465008C
:100060000C9465000C9465000C9465000C9465007C
:100070000C9465000C9421010C9465000C946500AF
:100080000C9465000C9465000C94650011241FBE4F
:10009000CFEFD0E1DEBFCDBF11E0A0E0B1E0EEE6F2
:1000A000F3E100E00BBF02C007900D92AC3AB1073C
:1000B000D9F722E0ACEAB1E001C01D92A032B2074C
:1000C000E1F70E943F080C94B5090C940000E1E6AA
:1000D000F0E0808188608083E2E6F0E08081877FC5
:1000E000808387B3876087BBC19A80E58DB981E043
:1000F0008EB987B3876887BB81B38C6081BB8DB1B4
:1001000081658DB9709AC39808958091BB01882349
:10011000B9F00E945A0380910301909104010E945A
:1001200078031092BB019298929A8091AC018FB99A
:10013000779BFECF8FB180931F02C09AC09808951D
:100140000E94600380910101909102010E94780356
:1001500081E08093BB01E7CF1F920F920FB60F9201
:1001600011242F938F939F938091BA018F5F809377
:10017000BA019091B9019F5F9F3009F44DC09093EF
:10018000B901803809F43FC08F719091B5019C335B
:1001900038F01092B501909109019F5F9093090189
:1001A000909109019C3338F0109209019091080157
:1001B0009F5F90930801209108019091050192178B
:1001C00058F420910801291B209308019091B00157
:1001D0009923A9F01092B001811107C081E090919C
:1001E000AF0191110AC08093AF019F918F912F9120
:1001F0000F900FBE0F901F90189580E0F4CF91E004
:100200009093B001E9CF8091B5018F5F8093B501E4
:100210001092BA0180E0B9CF1092B901B2CF1F920B
:100220000F920FB60F9211248F939F9392B380E198
:10023000892782BB9F918F910F900FBE0F901F90C7
:1002400018951F920F920FB60F9211240F900FBEA8
:100250000F901F90189580B7886080BF87B7816125
:1002600087BF81E083BF8EB58B608EBD8FEE90E03F
:100270009BBD8ABD85B5816785BD8FEF82B983B986
:1002800082E880938B008AE080938A0086E490E085
:1002900090938700809386000895E1E6F0E09081D6
:1002A00021E030E001C0220F8A95EAF720959223E1
:1002B0009083E2E6F0E080812823208387B1876481
:1002C00087B986B1876886B908958FEF8ABB109287
:1002D000D40188B318BA98B3E091D401F0E0EE5E8F
:1002E000FD4F8081892B88BBE091D401F0E0E65E70
:1002F000FD4F80818BBB8FE99FE00197F1F700C034
:1003000000008091D4018F5F8093D401853008F381
:1003100088B318BA88B3806788BB98B380911402F9
:10032000892B88BB1ABA0895369A349BFECF349A2B
:1003300084B195B19093D3018093D20108958091B7
:100340000502823009F45DC08430F1F1813049F159
:100350008091B6019091B7018230910509F464C093
:100360008330910531F01092B7011092B60180E010
:1003700090E01092050282309105A1F18330910541
:1003800009F47DC0019799F08DE291E0909304010A
:10039000809303018EE391E0909302018093010129
:1003A000089581E090E09093B7018093B6018BE0CF
:1003B00091E090930401809303018FE491E0909386
:1003C00002018093010108958091B6019091B701D7
:1003D0000297029708F440C082E090E09093B70142
:1003E0008093B60180E691E090930401809303012D
:1003F00081E791E090930201809301011092050240
:10040000089584E090E09093B7018093B6018BE06B
:1004100091E090930401809303018CE191E090932B
:10042000020180930101089520910502222331F0F9
:1004300083E090E09093B7018093B6012091B501DD
:10044000265F2093B201209109012093B1012091F0
:100450000801209306018FCF1092B7011092B601C8
:10046000109205028091B4018093B2018091B30192
:100470008093B101809107018093060185CF82E8C6
:1004800091E0909304018093030183E991E09093BC
:10049000020180930101089591E0811101C090E073
:1004A0009FB9779BFECF6FB9779BFECF809162009B
:1004B00088608093620080916200877F80936200F1
:1004C0008FE99FE00197F1F700C00000089521E057
:1004D0002FB9779BFECF2091BC01FC01E20FF11DEB
:1004E00080818FB9779BFECF809162008860809376
:1004F000620080916200877F809362008091BC01DE
:100500008F5F8093BC01803181F0803209F00895C3
:1005100085ED8A95F1F700004CED55E062E080E052
:100520000E944C021092BC01089585ED8A95F1F766
:1005300000004CED55E060EC80E00E944C028091A0
:10054000BC01E3CFEF92FF920F931F93CF93DF9302
:100550001F92CDB7DEB7182F660F660F660F605C6F
:1005600048EE53E080E099830E944C02E12E99818D
:10057000F92E8701085F1F4FF70161917F0144E663
:1005800050E081E00E944C02E016F106A9F70F90BE
:10059000DF91CF911F910F91FF90EF90089590E41C
:1005A000899F600D1124605C48EE53E080E00C945C
:1005B0004C02CF93882309F43DC0C82F8436A8F499
:1005C0008A30F8F48DECC89F812D1124869586958C
:1005D00086956C2F2AE0829F60191124605D44E6A5
:1005E00050E081E0CF910C944C0269E2869F612D2E
:1005F000112462956F70605D44E650E081E00E94D6
:100600004C0289E2C89F812D112482958F709C2F06
:1006100024E6829F901911246DEC969F612D112480
:10062000669566956695605D44E650E081E00E94BF
:100630004C02C8CF44E650E060E381E0CF910C94D7
:100640004C02CF9387FD03C0CF910C94D902C82FE1
:1006500044E650E06DE281E00E944C028C2F8195CF
:10066000CF910C94D90248EE53E06EE080E00C94F8
:100670004C0248EE53E06CE080E00C944C0248EEF3
:1006800053E06EE180E00C944C0248EE53E068E1E8
:1006900080E00C944C02E2E6F0E080818860808388
:1006A0008081877F8083089540ED57E061E080E09E
:1006B0000C944C024CED55E062E080E00C944C024E
:1006C0004CED55E060EC80E00C944C02CF93C0E11F
:1006D00044E650E060E281E00E944C02C150C1F764
:1006E000CF91089544E650E0682F81E00C944C02CD
:1006F0000F931F93CF938C0140E050E0C0E0F801CE
:10070000E40FF51F44E650E0608181E00E944C0256
:10071000CF5F4C2F50E0F80101900020E9F79F01D6
:10072000201B310B225031092417350740F7CF9198
:100730001F910F9108958FEF99EF0197F1F700C086
:10074000000088E08093610048E55BE160E380E0C1
:100750000E944C0248E55BE160E380E00E944C02AD
:1007600048E55BE160E380E00E944C0248E853E129
:1007700068E380E00E944C0248E853E168E080E0D2
:100780000E944C0248E853E161E080E00E944C0284
:1007900048E853E166E080E00E944C0245E050E00A
:1007A0006CE080E00C944C028F929F92AF92BF92CB
:1007B000CF92DF92EF92FF920F931F93CF93DF932D
:1007C000CDB7DEB769970FB6F894DEBF0FBECDBFC9
:1007D000F42E122F002359F04B015C018824B7FC42
:1007E00083949924AA24BB24082D97FD8DC011233E
:1007F00009F482C09E012F5F3F4F6901590188248F
:100800008A94810E912C3FEF831A930A8C0C9D1CC5
:100810002AE030E040E050E00E945109E62F2A8BA8
:100820003B8B4C8B5D8B6A897B898C899D8920E30E
:100830002E0FF50121935F01E815F90549F7BB2457
:10084000B394B10EF601E10FF11D2EE220832AE0F0
:1008500030E040E050E00E945109E62F2A8B3B8BAC
:100860004C8B5D8B6E8B7F8B888F998F6A897B8990
:100870008C899D8911E01B0DD601AB0DB11DE05D8A
:10088000EC93B12E611571058105910501F7FF20EB
:1008900061F0E11037C080E21F1538F4F601E10F76
:1008A000F11D80831F5F1F11F9CF002331F0F60186
:1008B000E10FF11D8DE280831F5F1150F601E10F02
:1008C000F11D48EE53E0608181E00E944C0211115D
:1008D000F4CF69960FB6F894DEBF0FBECDBFDF919F
:1008E000CF911F910F91FF90EF90DF90CF90BF902D
:1008F000AF909F908F900895B12C9E012F5F3F4F36
:100900006901A5CF80E3C8CF9095809570956195DA
:100910007F4F8F4F9F4F6BCF5F926F927F928F92DF
:100920009F92AF92BF92CF92DF92EF92FF920F937E
:100930001F93CF93DF93CDB7DEB761970FB6F894CF
:10094000DEBF0FBECDBFA62E542E622E792E771C91
:100950007724771CB72CC72CD12CEE27FF27EC1956
:10096000FD098E279F27FC01EC0DFD1D442309F492
:100970008CC0CE0101967C018C0188248A94840E5F
:10098000912C9FEF891A990A8E0C9F1C6AE070E0E7
:10099000CF010E943D09262FE22FF72F805DD8015D
:1009A0008D938D01A815B90589F701E0050DD701D3
:1009B000A50DB11D8EE28C936AE070E0CF010E941C
:1009C0003D09262FE22FF72F11E0100FD701A00FBE
:1009D000B11D805D8C93012F309771F7611015C0A8
:1009E000772039F011E0100FF701E00FF11D8DE2D3
:1009F0008083AA2041F1812F90E02A2D30E08217D8
:100A000093070CF5B12C40E20CC0AA20A1F0812F75
:100A100090E02A2D30E02C193D09821793075CF4F1
:100A200040E31F5FF701E80FF91F4083812F90E03B
:100A300082179307B4F3BB2031F0F701E10FF11DEA
:100A40008DE280831F5F1150F701E10FF11D48EE29
:100A500053E0608181E00E944C021111F4CF619655
:100A60000FB6F894DEBF0FBECDBFDF91CF911F91BF
:100A70000F91FF90EF90DF90CF90BF90AF909F903D
:100A80008F907F906F905F90089500E0CE01019667
:100A90007C0192CFE2E1F2E0108280E1818380E28A
:100AA000828380E3838380E48483E6E0F2E080EC69
:100AB000808389EF818384EA828380EB838389E961
:100AC000848382E9858382E8868388EF878380E850
:100AD000808790E991879FEF928790E797BB8093FB
:100AE0006100E2E6F0E080818F7780830895482FEF
:100AF000E82FF0E099B3EE0FFF1FE354FE4F208183
:100B00003181220F331F306E892F90E002C09595FE
:100B100087954A95E2F781709927282B392B3183E5
:100B2000208381E021153F4F09F080E00895AC015A
:100B30009C01ADECBCEC0E947009FC01F695E795B8
:100B4000F695E795F695E7959F01220F331FCF01A4
:100B5000880F991F880F991F880F991F820F931F65
:100B60009A01281B390B20931A029F010E947009D9
:100B70009695879596958795969587959C01220FD2
:100B8000331F880F991F880F991F880F991F820F95
:100B9000931FE81BF90BE0931B028AE080931C0271
:100BA0009A013695279536952795ABE7B4E10E94D3
:100BB0007009FC01F695E7959F01ADECBCEC0E9435
:100BC0007009969587959695879596958795BC011A
:100BD000660F771F880F991F880F991F880F991F1D
:100BE000680F791FE61BF70BE0931D029A013695FB
:100BF00027953695279536952795A5ECB0E20E9466
:100C00007009FC01F295E295EF70EF27FF70EF2776
:100C10009F01ADECBCEC0E94700996958795969566
:100C2000879596958795AC01440F551F880F991F9E
:100C3000880F991F880F991F480F591FCF01841BD8
:100C4000950BE82F80931E02AEE1B2E084E090E0C5
:100C500021E04FEF07C0E11107C04C9321E001975D
:100C600081F0EE912111F7CF823009F020E0F0E021
:100C7000EA5FFD4F3081FC01E65EFD4F3083019756
:100C800081F71092D401E0911A02F0E0EA5FFD4F83
:100C9000808180931A0208951ABA8FEF8BBB88B3B4
:100CA00018BA88B3806788BBEDEBF1E020E030E054
:100CB00061E070E005C02F5F3F4F2830310539F10A
:100CC00099B340815181440F551F892F90E0022E26
:100CD00002C0959587950A94E2F781709927842B35
:100CE000952B906E8193919381159F4F21F74091A1
:100CF0000502CB01022E01C0880F0A94EAF784276F
:100D0000809305022F5F3F4F28303105C9F688B325
:100D100018BA8FEF8ABB0895637083708230A9F090
:100D2000833071F0813031F0613041F0623089F40C
:100D300082E008956623E1F3633059F481E0089579
:100D40006130B1F36230D1F304C06623B9F363308C
:100D500079F380E008952091B6013091B7012130F8
:100D60003105B1F060F02430310541F48230C1F03A
:100D70008091B3018F5F8093B301089508958091AE
:100D80000001865F803F08F080EF809300010895A6
:100D9000823061F0809109018F5F8093090108958D
:100DA000809107018F5F809307010895809108016A
:100DB0008F5F8093080108952091B6013091B701AB
:100DC00021303105B1F060F02430310541F482303A
:100DD000C1F08091B30181508093B30108950895CB
:100DE000809100018A508C3008F48BE080930001E0
:100DF0000895823061F0809109018150809309014A
:100E00000895809107018150809307010895809192
:100E1000080181508093080108950F931F93CF9389
:100E2000DF93D0911F02C091D1011C2F1D27812F6C
:100E3000837009F466C00D2F03706C2F6370802FD0
:100E40000E948C068130C9F0823009F0EDC080919B
:100E5000D00186958093D0018091CF01880F816069
:100E60008093CF010330B1F41092D0011092CF01E2
:100E70008091D10184FF38C011C08091D001880FCA
:100E800081608093D0018091CF0186958093CF01BE
:100E9000033051F38091D10184FF1FC08091D001B4
:100EA000833008F4CCC08091D0018F3150F0809114
:100EB000D0018F3318F081E00E94AB0681E00E94E0
:100EC000AB0681E00E94AB068091D1018F7E8093BA
:100ED000D1011092D0011092CF01011105C0809173
:100EE000D10180618093D1018091D1018C7F809369
:100EF000D10180911F029091D1018370892B809341
:100F0000D1011C7009F456C0DC70CC706C2F70E0FD
:100F100075956795759567958D2F869586950E9431
:100F20008C06813009F44BC0823009F05FC080919B
:100F3000CE0186958093CE018091CD01880F81608E
:100F40008093CD01DC3009F448C08091D10185FF48
:100F50001DC08091CE01833008F453C08091CE0132
:100F60008F3140F08091CE018F3308F07CC082E059
:100F70000E94AB0682E00E94AB068091D1018F7D7A
:100F80008093D1011092CE011092CD01D11105C0F4
:100F90008091D10180628093D1018091D101837FC2
:100FA0008093D10180911F029091D1018C70892B87
:100FB0008093D101DF91CF911F910F91089580917E
:100FC000CE01880F81608093CE018091CD018695FE
:100FD0008093CD01DC3009F0B8CF1092CE01109291
:100FE000CD018091D10185FFD8CFB3CF8091CE01C3
:100FF00086958093CE018091CD0186958093CD0119
:10100000A1CF8091CD01833008F28091CD018F3145
:1010100038F08091CD018F3350F582E00E94DC06DC
:1010200082E00E94DC06A9CF8091D0018695809352
:10103000D0018091CF0186958093CF0129CF8091F7
:10104000CF01833008F449CF8091CF018F3138F040
:101050008091CF018F3378F481E00E94DC0681E03B
:101060000E94DC0631CF82E00E94AB0680CF82E096
:101070000E94DC06D2CF81E00E94DC06EDCF0E9408
:101080004A050E942B010E9467000E949B0387E093
:101090000E944D010E9454037894C0E1D7E202E01F
:1010A00010E00E949F018091B6019091B7010497D2
:1010B00009F454C04091B4012091B301909107010B
:1010C0007091B501809109016091080154E6259F56
:1010D00090011124240F311D9C9FA0019D9F500D54
:1010E0001124240F351F44E6849FC0011124870F6B
:1010F000911D6C9FA0016D9F500D1124840F951FB1
:101100002817390709F4A5C04091B2012091B10117
:10111000909106017091B5018091090160910801DB
:1011200054E6259F90011124240F311D9C9FA0019E
:101130009D9F500D1124240F351F44E6849FC0014C
:101140001124870F911D6C9FA0016D9F500D1124DC
:10115000840F951F2817390709F47BC08091B301CC
:101160008C3310F01092B301809107018C3310F092
:10117000109207010E940D070E944C06369A349B7C
:10118000FECF349A84B195B19093D3018093D2016C
:101190009695879596958795809583BD0E94850045
:1011A000809100018093AC018091B6019091B701CC
:1011B000049709F453C0209109018091080134E695
:1011C000839FC0011124820F911D9093AE018093E3
:1011D000AD018091000190E0880F991F90938700E6
:1011E000809386008091AD019091AE010E94970599
:1011F0008091B001882339F180911C028B7F80930C
:101200001C029091B50190FF13C08C7F80931C024B
:101210000E9465018091B6019091B701029711F08B
:101220008C983FCF8091AF018823D1F38C9A39CF2E
:101230002091B6013091B7012230310549F7826023
:1012400080931C02E5CF80911C02846080931C0275
:10125000D8CF1093B7010093B60180CF2091B3018E
:101260008091070154E6859FC0011124820F911DD2
:101270009093AE018093AD01ACCF97FB072E16F48F
:10128000009407D077FD09D00E947F0907FC05D0A4
:101290003EF4909581959F4F0895709561957F4F8D
:1012A0000895052E97FB1EF400940E94680957FDCF
:1012B00007D00E94930907FC03D04EF40C946809F0
:1012C00050954095309521953F4F4F4F5F4F089572
:1012D00090958095709561957F4F8F4F9F4F0895A2
:1012E000A29FB001B39FC001A39F700D811D112467
:1012F000911DB29F700D811D1124911D0895AA1B8F
:10130000BB1B51E107C0AA1FBB1FA617B70710F0F0
:10131000A61BB70B881F991F5A95A9F78095909522
:10132000BC01CD010895A1E21A2EAA1BBB1BFD0131
:101330000DC0AA1FBB1FEE1FFF1FA217B307E407B4
:10134000F50720F0A21BB30BE40BF50B661F771F0C
:10135000881F991F1A9469F76095709580959095EC
:0E1360009B01AC01BD01CF010895F894FFCFB1
:10136E0080A401A4010C0C0C0C01015573652064C2
:10137E0069616C7320746F20202020006368616E99
:10138E00676520616C61726D2020202000446973B6
:10139E00706C6179696E672074696D65200020201C
:1013AE00202020202020202020202020202000630C
:1013BE0068616E67652074696D65202020202000AD
:1013CE002020202020414C41524D21202020202041
:1013DE000020202028536E6F6F7A653F2920202031
:1013EE002000536E6F6F7A696E672E2E2E2E2E2E64
:1013FE002E2E007A7A5A7A7A5A5A5A7A7A7A5A7AF1
:0C140E005A5A7A0057656C636F6D6500D8
:00000001FF
