:100000000C9446000C9465000C9465000C946500FB
:100010000C9465000C9465000C9465000C946500CC
:100020000C9465000C9465000C9465000C946500BC
:100030000C94E0000C9465000C9465000C94650031
:100040000C9485000C9465000C9465000C9465007C
:100050000C9465000C9465000C9465000C9465008C
:100060000C9465000C9465000C9465000C9465007C
:100070000C9465000C9465000C9465000C9465006C
:100080000C9465000C9465000C94650011241FBE4F
:10009000CFEFD0E1DEBFCDBF11E0A0E0B1E0E8E1FD
:1000A000F3E100E00BBF02C007900D92AE3CB10738
:1000B000D9F712E0AEECB1E001C01D92A134B10756
:1000C000E1F70E9454020C948A090C940000E1E6C6
:1000D000F0E0808188608083E2E6F0E08081877FC5
:1000E000808387B3876087BBC19A80E58DB981E043
:1000F0008EB987B3876887BB81B38C6081BB8DB1B4
:1001000081658DB9709AC39808951F920F920FB6AA
:100110000F9211242F938F939F939091DB019F5FF8
:100120009093DB01903809F442C08091D1018C3367
:1001300038F01092D1018091BC018F5F8093BC0197
:100140008091BC018C3338F01092BC018091BD01CC
:100150008F5F8093BD018091BD012091C001281760
:1001600058F48091BD01821B8093BD018091D6011E
:100170008823C9F01092D601892F90E08F7190707A
:10018000892B39F490E08091D701882351F0909326
:10019000D7019F918F912F910F900FBE0F901F90BD
:1001A000189591E0F4CF81E08093D601E5CF80915E
:1001B000D1018F5F8093D1011092DB0190E0B5CF28
:1001C0001F920F920FB60F9211248F939F9382B3B9
:1001D00090E1892782BB9F918F910F900FBE0F9066
:1001E0001F90189580B7886080BF87B7816187BFEF
:1001F00081E083BF8EB58B608EBD8FEE90E09BBD9E
:100200008ABD85B5816785BD139AEBE8F0E08081F2
:100210008B6980838FE090E09093870080938600C5
:100220000895E1E6F0E0908121E030E002C0220F85
:10023000331F8A95E2F7209592239083E2E6F0E05F
:1002400080812823208387B1876487B986B1876836
:1002500086B908958FEF8ABB20E030E040EA5FE086
:1002600088B318BA88B3F901ED5CFD4F9081892BF2
:1002700088BBF901E55CFD4F80818BBBCA0101970A
:10028000F1F72F5F3F4F2530310551F785E080931F
:10029000F50188B318BA88B3806788BB88B390919A
:1002A0003502892B88BB1ABA0895369A349BFECF43
:1002B000349A84B195B19093F4018093F301089539
:1002C00080912602823009F463C0843009F443C06F
:1002D000813071F12091CF013091D0012230310570
:1002E00009F469C02330310531F01092D001109229
:1002F000CF0120E030E01092260222303105C9F112
:100300002330310508F090C02115310509F47FC074
:100310002130310599F089E991E09093CA018093E9
:10032000C9018AEA91E09093CC018093CB010895B2
:1003300081E090E09093D0018093CF0182E291E040
:100340009093CA018093C90183E391E09093CC011B
:100350008093CB0108958091CF019091D0010297B5
:10036000029708F442C082E090E09093D00180931D
:10037000CF0184E491E09093CA018093C90185E59F
:1003800091E09093CC018093CB01109226020895C6
:1003900084E090E09093D0018093CF0182E291E0DD
:1003A0009093CA018093C90186E691E09093CC01B5
:1003B0008093CB01089580912602882341F083E049
:1003C00090E09093D0018093CF0123E030E08091C2
:1003D000D101865F8093D4018091BC018093D501C7
:1003E0008091BD018093BF0188CF1092D0011092FF
:1003F000CF01109226028091D2018093D401809186
:10040000D3018093D5018091BE018093BF0180E02C
:1004100091E09093CA018093C90181E191E09093AA
:10042000CC018093CB0108952330310529F024308D
:10043000310509F070CFB2CF87E791E09093CA0100
:100440008093C90188E891E09093CC018093CB011F
:1004500008958091DC018823D9F00E9429048091BD
:10046000C9019091CA010E9436061092DC0180ED0C
:1004700097E00197F1F79298929A8091DA018FB9FB
:10048000779BFECF8FB180934002C09AC0980895A9
:100490000E9430048091CB019091CC010E943606DD
:1004A00081E08093DC01E3CFEF92FF921F93CF9323
:1004B000DF930E945A060E94F2000E9467000E9489
:1004C00067000E94790487E00E9411010E942204C3
:1004D0007894C0E1D7E214E632E0E32EF12C0E94DA
:1004E00060018091CF019091D001049709F45CC024
:1004F000A091D2018091BE014091D301B091D10170
:100500006091BD01E091BC0190E08C9F90018D9FB6
:10051000300D9C9F300D1124419FA0011124240F08
:10052000351F2A0F311D70E06C9FC0016D9F900D2B
:100530007C9F900D1124E19FF00111248E0F9F1FCD
:100540008B0F911D2817390709F4A7C0A091D4017A
:100550008091BF014091D501B091D1016091BD0161
:10056000E091BC0190E08C9F90018D9F300D9C9F8D
:10057000300D1124419FA0011124240F351F2A0F93
:10058000311D70E06C9FC0016D9F900D7C9F900DA0
:100590001124E19FF00111248E0F9F1F8B0F911DDD
:1005A0002817390709F479C08091D3018C3310F0F2
:1005B0001092D3018091BE018C3310F01092BE01D5
:1005C0000E9429020E94CB070E9413070E94550136
:1005D0008091F3019091F401969587959695879572
:1005E000809583BD8091D1018093DA018091CF0104
:1005F0009091D001049709F455C02091BC018091DD
:10060000BD01819FC0011124820F911D9093D901DA
:100610008093D8018091CD0190E0909387008093E2
:1006200086008091D8019091D9010E94B2068091F4
:10063000D601882361F180913D028B7F80933D023A
:100640008091D10190E09C012170307080FD16C036
:100650008091CF019091D001029791F10E942A01DF
:100660008091CF019091D001029711F08C9837CFF3
:100670008091D7018823D1F38C9A31CF2130310575
:1006800069F780913D028C7F80933D02E7CF809196
:100690003D02846080933D02D3CFF092D001E0927E
:1006A000CF0182CF2091D3018091BE01819FC001F3
:1006B0001124820F911D9093D9018093D801AACF64
:1006C00080913D02826080933D02C8CF811181E01C
:1006D0008FB9779BFECF6FB9779BFECF8091620079
:1006E00088608093620080916200877F80936200BF
:1006F00080EA9FE00197F1F708950F931F93CF933E
:10070000DF938C01660F660F660F605C80E048EE39
:1007100053E00E946603C0E0D0E0F801EC0FFD1F3B
:1007200081E0608144E650E00E9466032196C83073
:10073000D10599F7DF91CF911F910F9108956058DE
:1007400090E0019700249695879507949695879554
:100750000794982F802D680F80E048EE53E00E94A8
:10076000660308951F93182F882359F1843678F46F
:100770008A30B8F4812F6AE00E941A09905D81E006
:10078000692F44E650E00E9466031F91089564E6D5
:100790000E941A09682F605D81E044E650E00E94E3
:1007A0006603812F64E60E941A09892F6AE00E947D
:1007B0001A09682F605D81E044E650E00E946603FC
:1007C000D9CF81E060E344E650E00E9466031F91C8
:1007D00008951F93182F87FD04C00E94B2031F9134
:1007E000089581E06DE244E650E00E946603812FA7
:1007F00081950E94B2031F91089580E06EE048EE5B
:1008000053E00E946603089580E06CE048EE53E0F8
:100810000E946603089580E06EE148EE53E00E9476
:100820006603089580E068E148EE53E00E946603A5
:100830000895E2E6F0E08081886080838081877F90
:100840008083089580E061E040ED57E00E946603F8
:10085000089580E062E04CED55E00E946603089543
:1008600080E060EC4CED55E00E9466030895FC01C9
:1008700081E08FB9779BFECF9091DD01E90FF11DEB
:1008800080818FB9779BFECF8091620088608093D2
:10089000620080916200877F80936200892F8F5F62
:1008A0008093DD01803159F0803209F0089585EDA3
:1008B0008A95F1F70E9429041092DD01089585EDD3
:1008C0008A95F1F70E94300408951F9310E081E0AB
:1008D00060E244E650E00E9466031F5F1031B9F702
:1008E0001F910895682F81E044E650E00E9466035E
:1008F000089580E09AEF0197F1F788E08093610016
:1009000080E060E348E55BE10E94660380E060E32D
:1009100048E55BE10E94660380E060E348E55BE157
:100920000E94660380E068E348E853E10E946603A2
:1009300080E068E048E853E10E94660380E061E0FF
:1009400048E853E10E94660380E066E048E853E12E
:100950000E94660380E06CE045E050E00E94660380
:100960000895BF92CF92DF92EF92FF920F931F9361
:10097000DF93CF93CDB7DEB761970FB6F894DEBFA4
:100980000FBECDBFB62E042FC22EDD2497FD80C032
:100990009C01002309F056C010E07E010894E11C80
:1009A000F11CC9016AE070E00E943A09262F372F36
:1009B000F701E10FF11D805D80831F5F2115310577
:1009C00081F7CC2019F4DD2009F05AC0BB20B1F02A
:1009D000CC2009F053C080E2E12FF0E06B2D70E0F5
:1009E0006D197109E617F7074CF4EE0DFF1D8083B2
:1009F0001F5FE12FF0E0E617F707BCF3DD2031F0D1
:100A0000F701E10FF11D8DE280831F5F1150F701A7
:100A1000E10FF11D81E0608148EE53E00E94660322
:100A20001123A1F761960FB6F894DEBF0FBECDBFBC
:100A3000CF91DF911F910F91FF90EF90DF90CF90BA
:100A4000BF90089510E07E010894E11CF11CC901DB
:100A50006AE070E00E943A09262F372FF701E10F74
:100A6000F11D805D80831F5F011789F7F701E00F9B
:100A7000F11D8EE28083102F1F5F93CF80E3ACCFF8
:100A8000F701E10FF11D8DE280831F5FDD249ECF12
:100A9000DD24D39422273327281B390B7ACF7F926A
:100AA0008F929F92AF92BF92CF92DF92EF92FF927E
:100AB0000F931F93DF93CF93CDB7DEB7A1970FB6F8
:100AC000F894DEBF0FBECDBF5B016C01942E822E69
:100AD0007E2C002309F0B3C09B01AC01882009F0F3
:100AE00073C010E07E010894E11CF11CFAE1AF2E06
:100AF000B12CAC0EBD1EE9E0CE2ED12CCC0EDD1EED
:100B0000CA01B9012AE030E040E050E00E944D09FE
:100B10002A8F3B8F4C8F5D8F6E8F7F8F88A399A319
:100B2000D701F50188E001900D928150E1F729810C
:100B30003A814B815C81F601E10FF11D8D81805D71
:100B400080831F5F2115310541055105C9F6912F9D
:100B5000992091F0772009F087C080E2191560F4A0
:100B6000F601E10FF11D80831F5F1915C8F3192DE0
:100B70001F5F190F9095190F002331F0F601E10F57
:100B8000F11D8DE280831F5F1150F601E10FF11D11
:100B900081E0608148EE53E00E9466031123A1F7D3
:100BA000A1960FB6F894DEBF0FBECDBFCF91DF91F7
:100BB0001F910F91FF90EF90DF90CF90BF90AF907B
:100BC0009F908F907F90089510E07E010894E11C23
:100BD000F11C7AE1A72EB12CAC0EBD1E69E0C62E29
:100BE000D12CCC0EDD1ECA01B9012AE030E040E074
:100BF00050E00E944D092A8F3B8F4C8F5D8F6E8F86
:100C00007F8F88A399A3D701F50188E001900D9209
:100C10008150E1F729813A814B815C81F601E10F36
:100C2000F11D8D81805D80831F5F8116E1F6F601E5
:100C3000E80DF11D8EE28083182D1F5F61CFDC016E
:100C4000CB018827B7FD83959927AA27BB27082FB3
:100C5000A6019501D7FE42CF50954095309521953C
:100C60003F4F4F4F5F4F3ACF80E378CFFF920F93C4
:100C70001F93CF93DF938C01FF24C0E0D0E0C00F1F
:100C8000D11F81E0688144E650E00E946603F3943E
:100C9000CF2DD0E0F80101900020E9F7E01BF10B27
:100CA0003297EC17FD0758F7DF91CF911F910F9105
:100CB000FF9008951092330280E18093340280E225
:100CC0008093350280E38093360280E4809337027C
:100CD00080EC8093270289EF8093280284EA809336
:100CE000290280EB80932A0289E980932B0282E912
:100CF00080932C0282E880932D0288EF80932E024D
:100D000090E890932F0280E9809330028FEF8093D8
:100D1000310280E787BB90936100E2E6F0E08081DA
:100D20008F778083089590E049B3FC01EE0FFF1F99
:100D3000E252FE4F20813181220F331F306E50E08E
:100D400002C0559547958A95E2F741705070242B63
:100D5000352B3183208380E020503F4F09F00895E8
:100D600081E00895CF93DF939C016AE070E00E94D8
:100D7000260980933B02C9016AE070E00E942609BF
:100D8000CB016AE070E00E94260980933C028AE071
:100D900080933D02C90164E670E00E942609CB0100
:100DA0006AE070E00E94260980933E02C90168EE65
:100DB00073E00E942609CB016AE070E00E942609D8
:100DC00080933F02CFE3D2E091E024E030E04FEFA8
:100DD0000AC0A881AA2351F4488391E021972150A9
:100DE0003040222399F09923A1F7A881223009F0FD
:100DF00090E0F901E55CFD4FB0E0A95DBD4F8C913D
:100E00008083219721503040222369F71092F50109
:100E1000E0913B02F0E0E95DFD4F808180933B0271
:100E2000DF91CF9108950F931F93CF93DF931ABA59
:100E30008FEF8BBB88B318BA88B3806788BBC0E0DC
:100E4000D0E001E010E08C2F0E949306882361F02F
:100E500020912602C8010C2E02C0880F991F0A9407
:100E6000E2F72827209326022196C830D10559F7AA
:100E700088B318BA8FEF8ABBDF91CF911F910F9182
:100E80000895637083708130C9F0813030F0823012
:100E900081F0833041F080E00895613041F06230AC
:100EA000D1F782E008956130E1F36230A1F781E08B
:100EB00008956623E1F3633071F7F3CF662389F376
:100EC000633049F7F4CF2091CF013091D001213028
:100ED0003105C9F02130310558F48091CD018F5F83
:100EE0008093CD018A3F18F08AEF8093CD01089559
:100EF00024303105E1F78230A1F08091D3018F5F7A
:100F00008093D3010895823031F08091BC018F5FCE
:100F10008093BC0108958091BD018F5F8093BD01D6
:100F200008958091BE018F5F8093BE010895209146
:100F3000CF013091D00121303105C9F02130310588
:100F400058F48091CD0181508093CD01863018F402
:100F500085E08093CD01089524303105E1F782309A
:100F6000A1F08091D30181508093D3010895823004
:100F700031F08091BC0181508093BC010895809133
:100F8000BD0181508093BD0108958091BE018150C3
:100F90008093BE010895CF92DF92EF92FF920F935C
:100FA0001F93CF93DF9320914002922F9F70609107
:100FB000EE01862F8F70E92EFF24082F10E0E80144
:100FC000CE25DF25CE0183709070892B09F05FC09C
:100FD000CC70D070CD2B49F4DF91CF911F910F9140
:100FE000FF90EF90DF90CF900895E701CC70D07024
:100FF000CE019595879595958795169507951695A4
:101000000795602F0E944107813009F4AEC08230FD
:1010100009F48BC08091F00186958093F001809156
:10102000EF0186958093EF01CC30D10509F48CC097
:101030008091EE0185FF16C08091F001833008F4A5
:10104000B1C08091F0018F3108F0D4C082E00E94DD
:1010500063078091EE018F7D8093EE011092F00185
:101060001092EF01CD2B29F48091EE0180628093E4
:10107000EE018091EE01837F8093EE01809140022A
:101080009091EE018C70892B8093EE01A5CF637057
:10109000822F83700E944107813009F472C0823030
:1010A00009F457C08091F20186958093F2018091F6
:1010B000F10186958093F10133E0C32ED12CCE202F
:1010C000DF2083E0C816D10409F467C08091EE01E7
:1010D00084FF16C08091F201833008F477C08091BC
:1010E000F2018F3108F08EC081E00E946307809189
:1010F000EE018F7E8093EE011092F2011092F101C9
:10110000CD2829F48091EE0180618093EE018091D9
:10111000EE018C7F8093EE01809140029091EE0170
:101120008370892B8093EE0153CF8091F0018695D7
:101130008093F0018091EF01880F81608093EF012F
:10114000CC30D10509F074CF1092F0011092EF016C
:101150006FCF8091F20186958093F2018091F10129
:10116000880F81608093F101A7CF8091F001880FF3
:1011700081608093F0018091EF0186958093EF016B
:1011800053CF8091F201880F81608093F2018091AA
:10119000F10186958093F1018FCF1092F2011092A8
:1011A000F10194CF8091EF01833008F45BCF8091FF
:1011B000EF018F3138F08091EF018F3398F582E0A5
:1011C0000E94970782E00E94970743CF8091F10128
:1011D000833008F495CF8091F1018F3138F0809100
:1011E000F1018F3318F581E00E94970781E00E949A
:1011F00097077DCF8091F0018F3360F482E00E94E9
:10120000630724CF8091F2018F3340F481E00E9484
:1012100063076ACF82E00E946307F0CF81E00E94FB
:101220006307F4CF82E00E949707C9CF81E00E9454
:101230009707D9CF991B79E004C0991F961708F03A
:10124000961B881F7A95C9F780950895AA1BBB1B2A
:1012500051E107C0AA1FBB1FA617B70710F0A61BB6
:10126000B70B881F991F5A95A9F780959095BC01D7
:10127000CD01089597FB092E07260AD077FD04D0EB
:10128000E5DF06D000201AF4709561957F4F089530
:10129000F6F7909581959F4F089597FB092E0526A7
:1012A0000ED057FD04D014D00AD0001C38F450954D
:1012B0004095309521953F4F4F4F5F4F0895F6F77A
:1012C00090958095709561957F4F8F4F9F4F0895B2
:1012D000A1E21A2EAA1BBB1BFD010DC0AA1FBB1F3A
:1012E000EE1FFF1FA217B307E407F50720F0A21BAC
:1012F000B30BE40BF50B661F771F881F991F1A9419
:1013000069F760957095809590959B01AC01BD0142
:08131000CF010895F894FFCF0E
:10131800446973706C6179696E672074696D6520C2
:1013280000202020202020202020202020202020D5
:101338002000557365206469616C7320746F2020E8
:101348002020006368616E67652074696D652020E0
:10135800202020002020202020414C41524D2120D7
:10136800202020200020202028536E6F6F7A653FB0
:101378002920202020006368616E676520616C6108
:10138800726D2020202000536E6F6F7A696E672E71
:101398002E2E2E2E2E2E2E007A7A5A7A7A5A5A5AB3
:1013A8007A7A7A5A7A5A5A7A002020202057656C1D
:1013B800636F6D65202020202000202853746174FD
:1013C80065206572726F722920200001010C0C0CD7
:0E13D8000C57656C636F6D6500C101C101802B
:00000001FF
