S00F00006C6162355F34382E73726563E6
S11300006AC079C078C077C076C075C074C073C048
S113001072C071C070C06FC06EC06DC06CC06BC068
S11300206AC069C068C067C066C065C064C063C098
S1130030A0C061C0DAC0B3C0B2C0B1C0B0C0AFC06C
S1130040AEC0ADC0D2C0ABC0AAC0A9C0A8C0A7C032
S1130050A6C0A5C0D4C0A3C0A2C0A1C0A0C09FC058
S11300609EC09DC09CC09BC09AC099C098C097C0B8
S113007096C095C0C4C093C092C091C090C08FC0B8
S11300808EC08DC08CC08BC08AC089C088C087C018
S113009086C085C0CBC083C082C081C080C07FC001
S11300A07EC07DC0C7C07BC07AC079C078C077C02D
S11300B076C075C074C073C072C071C070C06FC0A8
S11300C06EC06DC0C5C06BC06AC069C068C067C07F
S11300D066C065C07BC011241FBECFEFD2E0DEBF77
S11300E0CDBF21E0A0E0B1E001C01D92AB36B20764
S11300F0E1F74FD146C384CF1F93CF93DF93EC0135
S113010077FD2CC0660F672F661F770B719544230C
S1130110D9F0072E000C880B990B11D226E636E68F
S113012046EE5FE398D220E030E040E052E470D144
S1130130D3D1162FCB0199274AE0BE01EFD2812FEC
S1130140DF91CF911F910895162FCB014AE0BE0194
S1130150E5D2812FDF91CF911F91089580E090E047
S113016010E04AE0BE01DAD2812FDF91CF911F91D6
S113017008951F920F920FB60F9211242F933F935D
S11301808F939F93AF93BF93EF93FF93E091B90045
S11301908E2F90E0FC013897E135F105A0F08091B5
S11301A0B9008093160184E08093BC00FF91EF9125
S11301B0BF91AF919F918F913F912F910F900FBE5F
S11301C00F901F901895E65EFF4F099480910001EF
S11301D0E0911701F0911801E80FF11D8091BB0027
S11301E0808384E98093BC00E1CF809119018093DE
S11301F0BB001092000185E88093BC00D7CF8091AA
S1130200000190911A01891760F7E0911701F091AC
S1130210180191E0980F90930001E80FF11D80817F
S11302208093BB0085E88093BC00C0CF85EA8093AF
S1130230BC00BCCF2091000180911A0130E090E015
S1130240019728173907DCF485EC8093BC00AECF06
S1130250E0911701F09118018091000121E0280F2D
S113026020930001E80FF11D8091BB0080838091F1
S11302701A0130E090E00197281739072CF385E83C
S11302808093BC0093CF8091BC00817008959091BD
S1130290BC0090FDFCCF8E7F8093190170931801F0
S11302A06093170140931A0185EA8093BC00089576
S11302B09091BC0090FDFCCF8160809319017093F4
S11302C018016093170140931A0185EA8093BC00DA
S11302D008958FEF8093BB001092B90082E0809361
S11302E0B80008959091C00095FFFCCF8093C6009C
S11302F08091C00085FFFCCF0895FC01208122235A
S113030071F031969091C00095FFFCCF2093C60008
S11303109091C00095FFFCCF21912111F3CF089556
S11303209C01C901F9014491442399F02F5F3F4F87
S1130330FC0184919091C00095FFFCCF8093C6008E
S11303409091C00095FFFCCFC901F901449141117E
S1130350EDCF0895E1ECF0E0808188618083E2ECE8
S1130360F0E080818660808381E08093C5008FE91E
S11303708093C400089580E89EE302C0019739F099
S11303802091C00027FFFACF8091C600089580E035
S11303900895CF93DF9300D0CDB7DEB784B18FEF4C
S11303A084B99AB18AB9D6DF94DF1092120142E07F
S11303B062E171E080E96BDF8FE99FE00197F1F77B
S11303C000C0000042E064E171E080E971DF8FE980
S11303D09FE00197F1F700C000006091140170E004
S11303E0762F662780911501682B41E0CE01019696
S11303F083DEC1DF8437E9F78FE99FE00197F1F7E6
S113040000C0000089E76EDF89E76CDFDBCF50585E
S1130410BB27AA270ED0E5C0D6D030F0DBD020F021
S113042031F49F3F11F41EF4CBC00EF4E095E7FBCA
S1130430C1C0E92FE7D080F3BA17620773078407B6
S1130440950718F071F49EF5FFC00EF4E0950B2E9D
S1130450BA2FA02D0B01B90190010C01CA01A00112
S11304601124FF27591B99F0593F50F4503E68F16D
S11304701A16F040A22F232F342F4427585FF3CFAE
S1130480469537952795A795F0405395C9F77EF47F
S11304901F16BA0B620B730B840BBAF09150A1F0C8
S11304A0FF0FBB1F661F771F881FC2F70EC0BA0F4E
S11304B0621F731F841F48F4879577956795B795D6
S11304C0F7959E3F08F0B3CF9395880F08F09927CE
S11304D0EE0F97958795089504D06894B111B5C02F
S11304E0089598D088F09F5790F0B92F9927B75165
S11304F0A0F0D1F0660F771F881F991F1AF0BA95E4
S1130500C9F712C0B13081F09FD0B1E008959CC00A
S1130510672F782F8827B85F39F0B93FCCF38695D9
S113052077956795B395D9F73EF490958095709536
S113053061957F4F8F4F9F4F0895E89409C097FBB3
S11305403EF490958095709561957F4F8F4F9F4FA6
S11305509923A9F0F92F96E9BB279395F6958795EA
S113056077956795B795F111F8CFFAF4BB0F11F4AD
S113057060FF1BC06F5F7F4F8F4F9F4F16C0882354
S113058011F096E911C0772321F09EE8872F762F8A
S113059005C0662371F096E8862F70E060E02AF0CB
S11305A09A95660F771F881FDAF7880F96958795B7
S11305B097F9089597F99F6780E870E060E00895DF
S11305C09FEF80EC089500240A9416161706180667
S11305D00906089500240A94121613061406050643
S11305E00895092E0394000C11F4882352F0BB0FD4
S11305F040F4BF2B11F460FF04C06F5F7F4F8F4F37
S11306009F4F089557FD9058440F551F59F05F3F71
S113061071F04795880F97FB991F61F09F3F79F020
S113062087950895121613061406551FF2CF4695A2
S1130630F1DF08C0161617061806991FF1CF869524
S11306407105610508940895E894BB276627772708
S1130650CB0197F908950BD0C4CFB5DF28F0BADFEA
S113066018F0952309F0A6CFABCF1124EECFCADF43
S1130670A0F3959FD1F3950F50E0551F629FF001B1
S1130680729FBB27F00DB11D639FAA27F00DB11D0A
S1130690AA1F649F6627B00DA11D661F829F222793
S11306A0B00DA11D621F739FB00DA11D621F839F1A
S11306B0A00D611D221F749F3327A00D611D231FF0
S11306C0849F600D211D822F762F6A2F11249F573E
S11306D050408AF0E1F088234AF0EE0FFF1FBB1F61
S11306E0661F771F881F91505040A9F79E3F510500
S11306F070F060CFAACF5F3FECF3983EDCF38695B1
S113070077956795B795F795E7959F5FC1F7FE2BAA
S1130710880F911D9695879597F90895BB274A30C0
S113072031F4992322F4BDE2909581959F4F01C045
S1130730BB27FB015527AA27880F991FAA1FA417B7
S113074010F0A41B83955051B9F7A05DAA3308F0AB
S1130750A95DA193009779F7B111B1931192CB01DF
S113076000C0DC01FC01672F71917723E1F7329718
S113077004C07C916D9370836291AE17BF07C8F378
S10907800895F894FFCF78
S9030000FC
