:100000000C9446000C9465000C9465000C946500FB
:100010000C9465000C9465000C9465000C946500CC
:100020000C9465000C9465000C9465000C946500BC
:100030000C9465000C9465000C9465000C946500AC
:100040000C9478000C9465000C9465000C94650089
:100050000C9465000C9465000C9465000C9465008C
:100060000C9465000C9465000C9465000C9465007C
:100070000C9465000C9465000C9465000C9465006C
:100080000C9465000C9465000C94650011241FBE4F
:10009000CFEFD0E1DEBFCDBF11E0A0E0B1E0ECECEE
:1000A000F1E000E00BBF02C007900D92A230B10753
:1000B000D9F721E0A2E0B1E001C01D92A330B20760
:1000C000E1F70E94AB000C94E4000C94000087B3AD
:1000D000876087BB8DB180698DB9709A089580B7AC
:1000E000886080BF87B7816087BF83B783BF08956B
:1000F0001F920F920FB60F9211242F935F936F935D
:100100007F938F939F93AF93BF93209102012F5FB3
:1001100020930201822F90E064EF71E00E94BC0006
:10012000892B61F42FB9779903C0C09A779BFDCFD3
:10013000C09880910001880F80930001BF91AF911A
:100140009F918F917F916F915F912F910F900FBE33
:100150000F901F90189580B7886080BF87B7816027
:1001600087BF83B783BF87B3876087BB8DB1806943
:100170008DB9709A7894FFCF97FB072E16F40094F0
:1001800007D077FD09D00E94D00007FC05D03EF4CF
:10019000909581959F4F0895709561957F4F089533
:1001A000AA1BBB1B51E107C0AA1FBB1FA617B7079D
:1001B00010F0A61BB70B881F991F5A95A9F78095B9
:0C01C0009095BC01CD010895F894FFCF8C
:0201CC00010030
:00000001FF
