:100000000C9446000C9458000C9458000C94580022
:100010000C9458000C9458000C9458000C94580000
:100020000C9458000C9458000C9458000C945800F0
:100030000C9458000C9458000C9458000C945800E0
:100040000C9458000C9458000C9458000C945800D0
:100050000C9458000C9458000C9458000C945800C0
:100060000C9458000C9458000C9458000C945800B0
:100070000C9458000C9458000C9458000C945800A0
:100080000C9458000C9458000C94580011241FBE76
:10009000CFEFD0E1DEBFCDBF21E0A0E0B1E001C0F5
:1000A0001D92A932B207E1F70E9430010C94E001E1
:1000B0000C940000482FE82FF0E099B3EE0FFF1FDB
:1000C000E050FF4F20813181220F331F306E892F86
:1000D00090E002C0959587954A95E2F7817099273F
:1000E000282B392B3183208381E02115304F09F0F3
:1000F00080E00895AC019C01ADECBCEC0E94D10104
:10010000FC01F695E795F695E795F695E7959F013D
:10011000220F331FCF01880F991F880F991F880F57
:10012000991F820F931F9A01281B390B20932401DA
:100130009F010E94D10196958795969587959695F2
:1001400087959C01220F331F880F991F880F991FD5
:10015000880F991F820F931FE81BF90BE09325016D
:100160008AE0809326019A01369527953695279542
:10017000ABE7B4E10E94D101FC01F695E7959F0140
:10018000ADECBCEC0E94D101BC01769567957695EB
:10019000679576956795CB01880F991F660F771F36
:1001A000660F771F660F771F680F791FE61BF70B27
:1001B000E09327019A013695279536952795369530
:1001C0002795A5ECB0E20E94D101FC01F295E295E1
:1001D000EF70EF27FF70EF279F01ADECBCEC0E94A2
:1001E000D101AC015695479556954795569547953B
:1001F000CA01880F991F440F551F440F551F440F04
:10020000551F480F591FCF01841B950BE82F809372
:100210002801A8E2B1E084E090E021E04FEF222342
:1002200049F0E11107C04C9321E0019781F0EE9174
:100230002111F7CF823009F020E0F0E0E05FFE4FBF
:100240003081FC01EC5DFE4F3083019781F7E09136
:100250002401F0E0E05FFE4F808180932401089547
:1002600010921C0180E180931D0180E780931E01A4
:1002700090E390931F0190E49093200190EC909371
:10028000100199EF9093110194EA9093120190EB71
:100290009093130199E99093140192E990931501B9
:1002A00092E89093160198EF9093170190E890933D
:1002B000180190E9909319019FEF90931A0187BB61
:1002C00088E08093610080916200877F8093620064
:1002D000CFEFD3E0FF24FA9401E010E08FE39FE139
:1002E0000197F1F700C000001ABAFBBA88B318BA38
:1002F00088B3806788BBE0E0F1E060E070E005C0B3
:100300006F5F7F4F6830710531F199B32081318182
:10031000220F331FA901506E292F30E0062E02C094
:10032000359527950A94E2F721703327242B352B36
:10033000219331932115304F19F7C801062E02C0C1
:10034000880F991F0A94E2F7C80FD91F6F5F7F4F7C
:1003500068307105D1F6C11584E0D80710F0C1E00E
:10036000D0E0CE010E947A0088B318BA88B38067C3
:1003700088BBFABAECE1F1E0A4E2B1E088B318BAC4
:1003800088B39191892B88BB8D918BBB8FED9EE2B9
:100390000197F1F700C0000091E0E132F90771F731
:1003A0009DCFA29FB001B39FC001A39F700D811D7F
:1003B0001124911DB29F700D811D1124911D08956E
:0403C000F894FFCFDF
:00000001FF
