:100000000C9446000C9465000C9465000C946500FB
:100010000C9465000C9465000C9465000C946500CC
:100020000C9465000C9465000C9465000C946500BC
:100030000C9465000C9465000C9465000C946500AC
:100040000C9465000C9465000C946F000C94650092
:100050000C9465000C9465000C9465000C9465008C
:100060000C9465000C9465000C9465000C9465007C
:100070000C9465000C9465000C9465000C9465006C
:100080000C9465000C9465000C94650011241FBE4F
:10009000CFEFD0E1DEBFCDBF11E0A0E0B1E0E0E402
:1000A000FAE000E00BBF02C007900D92AC30B10740
:1000B000D9F721E0ACE0B1E001C01D92A53FB20745
:1000C000E1F70E9426040C941E050C94000087B3EF
:1000D000876087BB8DB180658DB9709A08951F9236
:1000E0000F920FB60F9211240BB60F928F939F931E
:1000F000EF93FF938CB180932401E0910D0191E087
:100100009E0F90930D01F0E0EC5EFE4F8083811115
:1001100009C081E080930F0180E280838183828324
:1001200010920D01FF91EF919F918F910F900BBE57
:100130000F900FBE0F901F9018955D9BFECF8CB94E
:100140005D9BFECF089590919B0095FFFCCF80931F
:100150009C0080919B0085FFFCCF0895FC0190815D
:10016000992349F031965D9BFECF9CB95D9BFECFF4
:1001700091919111F8CF0895FC012081222371F013
:10018000319690919B0095FFFCCF20939C0090911D
:100190009B0095FFFCCF21912111F3CF08959C0185
:1001A000FC014491442369F00196F90124915D9B7F
:1001B000FECF2CB95D9BFECF9C01FC014491411107
:1001C000F3CF08958AB188698AB9E5E9F0E08081C2
:1001D000866080831092900087E689B90895EAE9E5
:1001E000F0E0808188618083EDE9F0E080818660C5
:1001F00080831092980087E680939900089580E8A4
:100200009EE302C0019721F05F9BFCCF8CB1089563
:1002100080E0089580E89EE302C0019739F02091C4
:100220009B0027FFFACF80919C00089580E00895FD
:1002300091E0811101C090E09FB9779BFECF6FB92B
:10024000779BFECF809162008860809362008091EE
:100250006200877F809362000895CF93C0910E0162
:100260008C0F911DFC01608181E00E94180181E0EA
:100270008C0F80930E01803181F0803211F0CF918C
:10028000089585ED8A95F1F7000060E880E00E940E
:10029000180110920E01CF910895F5EDFA95F1F73E
:1002A000000060EC80E00E94180180910E01E5CF13
:1002B000EF92FF920F931F93CF93DF931F92CDB7CF
:1002C000DEB7182F660F660F660F605C80E09983BB
:1002D0000E94180185ED8A95F1F70000E12E9981C1
:1002E000F92E8701085F1F4FF70161917F0181E0BF
:1002F0000E941801F5EDFA95F1F70000E016F106FD
:1003000099F70F90DF91CF911F910F91FF90EF9090
:10031000089590E4899F600D1124605C80E00C9446
:100320001801CF938823B9F1C82F843698F48A3006
:10033000D8F48DECC89F812D1124869586958695DD
:100340006C2F2AE0829F60191124605D81E0CF91BB
:100350000C94180169E2869F612D112462956F70DB
:10036000605D81E00E94180189E2C89F812D1124FF
:1003700082958F709C2F24E6829F901911246DEC3A
:10038000969F612D1124669566956695605D81E066
:100390000E941801CECF60E381E0CF910C94180148
:1003A000CF9387FD03C0CF910C949101C82F6DE2CC
:1003B00081E00E94180185ED8A95F1F700008C2FED
:1003C0008195CF910C9491016EE080E00C9418011E
:1003D0006CE080E00C9418016EE180E00C94180150
:1003E00068E180E00C941801E2E6F0E0808188602A
:1003F00080838081877F8083089561E080E00E9410
:1004000018018FE19CE10197F1F700C00000089509
:1004100062E080E00E9418018FE697E10197F1F712
:1004200000C00000089560EC80E00C94180160E8C2
:1004300080E00C941801CF93C0E160E281E00E945B
:10044000180185ED8A95F1F70000C150B1F7CF9101
:100450000895682F81E00C9418010F931F93CF9398
:100460008C0140E050E0C0E0F801E40FF51F60812E
:1004700081E00E94180185ED8A95F1F70000CF5FB9
:100480004C2F50E0F80101900020E9F79F01201B5C
:10049000310B225031092417350730F7CF911F91C6
:1004A0000F9108958FEF99EF0197F1F700C00000C9
:1004B00088E08093610060E380E00E9418018FE58E
:1004C0009DE60197F1F700C0000060E380E00E9424
:1004D00018018FE59DE60197F1F700C0000060E389
:1004E00080E00E9418018FE59DE60197F1F700C0BA
:1004F000000068E380E00E9418018FE19EE401970C
:10050000F1F700C0000068E080E00E9418018FE170
:100510009EE40197F1F700C0000061E080E00E94D6
:1005200018018FE19EE40197F1F700C0000066E03A
:1005300080E00E9418018FE19EE40197F1F700C06E
:1005400000006CE080E00E9418018FE19EE40197BA
:10055000F1F700C0000008958F929F92AF92BF9272
:10056000CF92DF92EF92FF920F931F93CF93DF937F
:10057000CDB7DEB769970FB6F894DEBF0FBECDBF1B
:10058000F42E122F002359F04B015C018824B7FC94
:1005900083949924AA24BB24082D97FD8FC011238E
:1005A00009F484C09E012F5F3F4F690159018824DF
:1005B0008A94810E912C3FEF831A930A8C0C9D1C18
:1005C0002AE030E040E050E00E949404E62F2A8BBD
:1005D0003B8B4C8B5D8B6A897B898C899D8920E361
:1005E0002E0FF50121935F01E815F90549F7BB24AA
:1005F000B394B10EF601E10FF11D2EE220832AE043
:1006000030E040E050E00E949404E62F2A8B3B8BC0
:100610004C8B5D8B6E8B7F8B888F998F6A897B89E2
:100620008C899D8911E01B0DD601AB0DB11DE05DDC
:10063000EC93B12E611571058105910501F7FF203D
:1006400061F0E11039C080E21F1538F4F601E10FC6
:10065000F11D80831F5F1F11F9CF002331F0F601D8
:10066000E10FF11D8DE280831F5F1150F601E10F54
:10067000F11D608181E00E94180135ED3A95F1F796
:1006800000001111F2CF69960FB6F894DEBF0FBECD
:10069000CDBFDF91CF911F910F91FF90EF90DF9031
:1006A000CF90BF90AF909F908F900895B12C9E01F6
:1006B0002F5F3F4F6901A3CF80E3C6CF9095809510
:1006C000709561957F4F8F4F9F4F69CF5F926F926B
:1006D0007F928F929F92AF92BF92CF92DF92EF92D2
:1006E000FF920F931F93CF93DF93CDB7DEB7619740
:1006F0000FB6F894DEBF0FBECDBFA62E542E622ECD
:10070000792E771C7724771CB72CC72CD12CEE2799
:10071000FF27EC19FD098E279F27FC01EC0DFD1D1D
:10072000442309F48EC0CE0101967C018C018824FB
:100730008A94840E912C9FEF891A990A8E0C9F1C23
:100740006AE070E0CF010E948004262FE22FF72F8D
:10075000805DD8018D938D01A815B90589F701E059
:10076000050DD701A50DB11D8EE28C936AE070E0F6
:10077000CF010E948004262FE22FF72F11E0100FE7
:10078000D701A00FB11D805D8C93012F309771F7B9
:10079000611015C0772039F011E0100FF701E00F5C
:1007A000F11D8DE28083AA2041F1812F90E02A2D56
:1007B00030E0821793070CF5B12C40E20CC0AA2060
:1007C000A1F0812F90E02A2D30E02C193D098217ED
:1007D00093075CF440E31F5FF701E80FF91F4083C4
:1007E000812F90E082179307B4F3BB2031F0F7011B
:1007F000E10FF11D8DE280831F5F1150F701E10FC2
:10080000F11D608181E00E94180195ED9A95F1F744
:1008100000001111F2CF61960FB6F894DEBF0FBE43
:10082000CDBFDF91CF911F910F91FF90EF90DF909F
:10083000CF90BF90AF909F908F907F906F905F9080
:10084000089500E0CE0101967C0190CF8091610077
:100850008860809361000E94E20087B3876087BB55
:100860008DB180658DB9709A0E9452020E94FD017F
:100870000E9408027894CDEC80910F018130B9F18B
:1008800080E091E00E94AE0080910C014AE061E1BD
:1008900071E090E00E94E90481E191E00E94AE00E5
:1008A00080E00E949D00109210012FEF81EE94E0F5
:1008B000215080409040E1F700C00000809110017D
:1008C0008F5F809310018A3080F380910C018F5FDD
:1008D0008C9F912D112492959F7024E1929F8019F5
:1008E000112480930C0180910F01813049F684E13D
:1008F00091E00E942D0210920F010E940802C0CFC9
:1009000097FB072E16F4009407D077FD09D00E94BC
:10091000B30407FC05D03EF4909581959F4F089550
:10092000709561957F4F0895052E97FB1EF40094F6
:100930000E94AB0457FD07D00E94C70407FC03D0F8
:100940004EF40C94AB0450954095309521953F4F53
:100950004F4F5F4F089590958095709561957F4FAB
:100960008F4F9F4F0895AA1BBB1B51E107C0AA1FC1
:10097000BB1FA617B70710F0A61BB70B881F991F40
:100980005A95A9F780959095BC01CD010895A1E2F3
:100990001A2EAA1BBB1BFD010DC0AA1FBB1FEE1FF9
:1009A000FF1FA217B307E407F50720F0A21BB30B44
:1009B000E40BF50B661F771F881F991F1A9469F7C0
:1009C00060957095809590959B01AC01BD01CF011C
:1009D0000895BB274A3031F4992322F4BDE2909563
:1009E00081959F4F0C94F504BB27FB015527AA273F
:1009F000880F991FAA1FA41710F0A41B83955051AC
:100A0000B9F7A05DAA3308F0A95DA193009779F723
:100A1000B111B1931192CB010C940E05DC01FC01D4
:100A2000672F71917723E1F7329704C07C916D9322
:100A300070836291AE17BF07C8F30895F894FFCF93
:0C0A4000486921204B796C653A200000C9
:00000001FF
